Component: ARM Compiler 6.16 Tool: armlink [5dfeaa00]

==============================================================================

Section Cross References

    misc.o(.ARM.exidx.text.NVIC_Init) refers to misc.o(.text.NVIC_Init) for [Anonymous Symbol]
    misc.o(.ARM.exidx.text.SysTick_CLKSourceConfig) refers to misc.o(.text.SysTick_CLKSourceConfig) for [Anonymous Symbol]
    n32g031_adc.o(.text.ADC_DeInit) refers to n32g031_rcc.o(.text.RCC_EnableAHBPeriphReset) for RCC_EnableAHBPeriphReset
    n32g031_adc.o(.ARM.exidx.text.ADC_DeInit) refers to n32g031_adc.o(.text.ADC_DeInit) for [Anonymous Symbol]
    n32g031_adc.o(.ARM.exidx.text.ADC_Init) refers to n32g031_adc.o(.text.ADC_Init) for [Anonymous Symbol]
    n32g031_adc.o(.ARM.exidx.text.ADC_InitStruct) refers to n32g031_adc.o(.text.ADC_InitStruct) for [Anonymous Symbol]
    n32g031_adc.o(.ARM.exidx.text.ADC_Enable) refers to n32g031_adc.o(.text.ADC_Enable) for [Anonymous Symbol]
    n32g031_adc.o(.ARM.exidx.text.ADC_EnableDMA) refers to n32g031_adc.o(.text.ADC_EnableDMA) for [Anonymous Symbol]
    n32g031_adc.o(.ARM.exidx.text.ADC_ConfigInt) refers to n32g031_adc.o(.text.ADC_ConfigInt) for [Anonymous Symbol]
    n32g031_adc.o(.ARM.exidx.text.ADC_EnableSoftwareStartConv) refers to n32g031_adc.o(.text.ADC_EnableSoftwareStartConv) for [Anonymous Symbol]
    n32g031_adc.o(.ARM.exidx.text.ADC_GetSoftwareStartConvStatus) refers to n32g031_adc.o(.text.ADC_GetSoftwareStartConvStatus) for [Anonymous Symbol]
    n32g031_adc.o(.ARM.exidx.text.ADC_ConfigDiscModeChannelCount) refers to n32g031_adc.o(.text.ADC_ConfigDiscModeChannelCount) for [Anonymous Symbol]
    n32g031_adc.o(.ARM.exidx.text.ADC_EnableDiscMode) refers to n32g031_adc.o(.text.ADC_EnableDiscMode) for [Anonymous Symbol]
    n32g031_adc.o(.ARM.exidx.text.ADC_ConfigRegularChannel) refers to n32g031_adc.o(.text.ADC_ConfigRegularChannel) for [Anonymous Symbol]
    n32g031_adc.o(.ARM.exidx.text.ADC_EnableExternalTrigConv) refers to n32g031_adc.o(.text.ADC_EnableExternalTrigConv) for [Anonymous Symbol]
    n32g031_adc.o(.ARM.exidx.text.ADC_GetDat) refers to n32g031_adc.o(.text.ADC_GetDat) for [Anonymous Symbol]
    n32g031_adc.o(.ARM.exidx.text.ADC_EnableAutoInjectedConv) refers to n32g031_adc.o(.text.ADC_EnableAutoInjectedConv) for [Anonymous Symbol]
    n32g031_adc.o(.ARM.exidx.text.ADC_EnableInjectedDiscMode) refers to n32g031_adc.o(.text.ADC_EnableInjectedDiscMode) for [Anonymous Symbol]
==============================================================================

Removing Unused input sections from the image.

    Removing misc.o(.text), (0 bytes).
    Removing misc.o(.ARM.exidx.text.NVIC_Init), (8 bytes).
    Removing misc.o(.text.SysTick_CLKSourceConfig), (28 bytes).
    Removing misc.o(.ARM.exidx.text.SysTick_CLKSourceConfig), (8 bytes).
    Removing n32g031_adc.o(.text), (0 bytes).
    Removing n32g031_adc.o(.text.ADC_DeInit), (36 bytes).
    Removing n32g031_adc.o(.ARM.exidx.text.ADC_DeInit), (8 bytes).
    Removing n32g031_adc.o(.ARM.exidx.text.ADC_Init), (8 bytes).
    Removing n32g031_adc.o(.text.ADC_InitStruct), (14 bytes).
    Removing n32g031_adc.o(.ARM.exidx.text.ADC_InitStruct), (8 bytes).
    Removing n32g031_adc.o(.ARM.exidx.text.ADC_Enable), (8 bytes).
    Removing n32g031_adc.o(.ARM.exidx.text.ADC_EnableDMA), (8 bytes).
    Removing n32g031_adc.o(.text.ADC_ConfigInt), (22 bytes).
    Removing n32g031_adc.o(.ARM.exidx.text.ADC_ConfigInt), (8 bytes).
    Removing n32g031_adc.o(.ARM.exidx.text.ADC_EnableSoftwareStartConv), (8 bytes).
    Removing n32g031_adc.o(.text.ADC_GetSoftwareStartConvStatus), (8 bytes).
    Removing n32g031_adc.o(.ARM.exidx.text.ADC_GetSoftwareStartConvStatus), (8 bytes).
    Removing n32g031_adc.o(.text.ADC_ConfigDiscModeChannelCount), (24 bytes).
==============================================================================

Image Symbol Table

    Local Symbols

    Symbol Name                              Value     Ov Type        Size  Object(Section)

    ../clib/division.s                       0x00000000   Number         0  aeabi_sdivfast.o ABSOLUTE
    ../clib/division.s                       0x00000000   Number         0  aeabi_sdivfast_div0.o ABSOLUTE
    ../clib/longlong.c                       0x00000000   Number         0  llmul.o ABSOLUTE
    ../clib/microlib/division.c              0x00000000   Number         0  uidiv.o ABSOLUTE
    ../clib/microlib/division.c              0x00000000   Number         0  idiv.o ABSOLUTE
    ../clib/microlib/division.c              0x00000000   Number         0  ldiv.o ABSOLUTE
    ../clib/microlib/division.c              0x00000000   Number         0  uidiv_div0.o ABSOLUTE
    ../clib/microlib/division.c              0x00000000   Number         0  idiv_div0.o ABSOLUTE
    ../clib/microlib/division.c              0x00000000   Number         0  idiv0.o ABSOLUTE
    ../clib/microlib/division.c              0x00000000   Number         0  uldiv.o ABSOLUTE
    ../clib/microlib/errno.c                 0x00000000   Number         0  errno.o ABSOLUTE
    ../clib/microlib/init/entry.s            0x00000000   Number         0  entry.o ABSOLUTE
    ../clib/microlib/init/entry.s            0x00000000   Number         0  entry2.o ABSOLUTE
    ../clib/microlib/init/entry.s            0x00000000   Number         0  entry5.o ABSOLUTE
    ../clib/microlib/init/entry.s            0x00000000   Number         0  entry7a.o ABSOLUTE
    ../clib/microlib/init/entry.s            0x00000000   Number         0  entry7b.o ABSOLUTE
    ../clib/microlib/init/entry.s            0x00000000   Number         0  entry8a.o ABSOLUTE
    ../clib/microlib/init/entry.s            0x00000000   Number         0  entry8b.o ABSOLUTE
    ../clib/microlib/init/entry.s            0x00000000   Number         0  entry9a.o ABSOLUTE
    ../clib/microlib/init/entry.s            0x00000000   Number         0  entry9b.o ABSOLUTE
    ../clib/microlib/init/entry.s            0x00000000   Number         0  entry10a.o ABSOLUTE
    ../clib/microlib/init/entry.s            0x00000000   Number         0  entry10b.o ABSOLUTE
    ../clib/microlib/init/entry.s            0x00000000   Number         0  entry11a.o ABSOLUTE
    ../clib/microlib/init/entry.s            0x00000000   Number         0  entry11b.o ABSOLUTE
    ../clib/microlib/longlong.c              0x00000000   Number         0  llshl.o ABSOLUTE
    ../clib/microlib/longlong.c              0x00000000   Number         0  llsshr.o ABSOLUTE
    ../clib/microlib/longlong.c              0x00000000   Number         0  llushr.o ABSOLUTE
    ../clib/microlib/printf/printf.c         0x00000000   Number         0  printfb.o ABSOLUTE
    ../clib/microlib/printf/printf.c         0x00000000   Number         0  printf0.o ABSOLUTE
    ../clib/microlib/printf/printf.c         0x00000000   Number         0  printf1.o ABSOLUTE
    ../clib/microlib/printf/printf.c         0x00000000   Number         0  printf2.o ABSOLUTE
    ../clib/microlib/printf/printf.c         0x00000000   Number         0  printf3.o ABSOLUTE
    ../clib/microlib/printf/printf.c         0x00000000   Number         0  printf4.o ABSOLUTE
    ../clib/microlib/printf/printf.c         0x00000000   Number         0  printf5.o ABSOLUTE
    ../clib/microlib/printf/printf.c         0x00000000   Number         0  printf6.o ABSOLUTE
    ../clib/microlib/printf/printf.c         0x00000000   Number         0  printf7.o ABSOLUTE
    ../clib/microlib/printf/printf.c         0x00000000   Number         0  printf8.o ABSOLUTE
    ../clib/microlib/printf/printf.c         0x00000000   Number         0  printfa.o ABSOLUTE
    ../clib/microlib/printf/stubs.s          0x00000000   Number         0  printfstubs.o ABSOLUTE
    ../clib/microlib/stdio/puts.c            0x00000000   Number         0  puts.o ABSOLUTE
    ../clib/microlib/stdio/puts.c            0x00000000   Number         0  puts_e.o ABSOLUTE
    ../clib/microlib/stdio/streams.c         0x00000000   Number         0  stdout.o ABSOLUTE
    ../clib/microlib/string/memchr.c         0x00000000   Number         0  memchr.o ABSOLUTE
    ../clib/microlib/string/memcpy.c         0x00000000   Number         0  memcpya.o ABSOLUTE
    ../clib/microlib/string/memcpy.c         0x00000000   Number         0  memcpyb.o ABSOLUTE
    ../clib/microlib/string/memset.c         0x00000000   Number         0  memseta.o ABSOLUTE
    ../clib/microlib/string/strlen.c         0x00000000   Number         0  strlen.o ABSOLUTE
    ../clib/microlib/stubs.s                 0x00000000   Number         0  iusefp.o ABSOLUTE
    ../firmware/CMSIS/device/startup/startup_n32g031.s 0x00000000   Number         0  startup_n32g031.o ABSOLUTE
    ../fplib/microlib/d2f.c                  0x00000000   Number         0  d2f.o ABSOLUTE
    ../fplib/microlib/f2d.c                  0x00000000   Number         0  f2d.o ABSOLUTE
    ../fplib/microlib/fpadd.c                0x00000000   Number         0  fadd.o ABSOLUTE
    ../fplib/microlib/fpadd.c                0x00000000   Number         0  dadd.o ABSOLUTE
    ../fplib/microlib/fpcmp.c                0x00000000   Number         0  fcmple.o ABSOLUTE
    ../fplib/microlib/fpcmp.c                0x00000000   Number         0  fcmplt.o ABSOLUTE
    ../fplib/microlib/fpcmp.c                0x00000000   Number         0  fcmpgt.o ABSOLUTE
    ../fplib/microlib/fpcmp4.c               0x00000000   Number         0  fcmp4.o ABSOLUTE
    ../fplib/microlib/fpdiv.c                0x00000000   Number         0  fdiv.o ABSOLUTE
    ../fplib/microlib/fpdiv.c                0x00000000   Number         0  ddiv.o ABSOLUTE
    ../fplib/microlib/fpepilogue.c           0x00000000   Number         0  fepilogue.o ABSOLUTE
    ../fplib/microlib/fpepilogue.c           0x00000000   Number         0  depilogue.o ABSOLUTE
    ../fplib/microlib/fpfix.c                0x00000000   Number         0  ffixi.o ABSOLUTE
    ../fplib/microlib/fpfix.c                0x00000000   Number         0  ffixui.o ABSOLUTE
    ../fplib/microlib/fpfix.c                0x00000000   Number         0  ffixl.o ABSOLUTE
    ../fplib/microlib/fpfix.c                0x00000000   Number         0  dfixul.o ABSOLUTE
    ../fplib/microlib/fpflt.c                0x00000000   Number         0  fflti.o ABSOLUTE
    ../fplib/microlib/fpflt.c                0x00000000   Number         0  ffltui.o ABSOLUTE
    ../fplib/microlib/fpflt.c                0x00000000   Number         0  ffltl.o ABSOLUTE
    ../fplib/microlib/fpflt.c                0x00000000   Number         0  dflti.o ABSOLUTE
    ../fplib/microlib/fpmul.c                0x00000000   Number         0  fmul.o ABSOLUTE
    ../fplib/microlib/fpmul.c                0x00000000   Number         0  dmul.o ABSOLUTE
    ../fplib/microlib/fpscalb.c              0x00000000   Number         0  dscalb.o ABSOLUTE
    ../mathlib/dunder.c                      0x00000000   Number         0  dunder.o ABSOLUTE
    ../mathlib/fmax.c                        0x00000000   Number         0  fmaxf.o ABSOLUTE
    ../mathlib/log.c                         0x00000000   Number         0  log.o ABSOLUTE
    ../mathlib/poly.c                        0x00000000   Number         0  poly.o ABSOLUTE
    ../mathlib/qnan.c                        0x00000000   Number         0  qnan.o ABSOLUTE
    DevicesADC.c                             0x00000000   Number         0  devicesadc.o ABSOLUTE
    DevicesBlower.c                          0x00000000   Number         0  devicesblower.o ABSOLUTE
    DevicesBuzz.c                            0x00000000   Number         0  devicesbuzz.o ABSOLUTE
    DevicesCRC.c                             0x00000000   Number         0  devicescrc.o ABSOLUTE
    DevicesDelay.c                           0x00000000   Number         0  devicesdelay.o ABSOLUTE
    DevicesFlash.c                           0x00000000   Number         0  devicesflash.o ABSOLUTE
    DevicesIIC.c                             0x00000000   Number         0  devicesiic.o ABSOLUTE
    DevicesInfrared.c                        0x00000000   Number         0  devicesinfrared.o ABSOLUTE
    DevicesInput.c                           0x00000000   Number         0  devicesinput.o ABSOLUTE
    DevicesKey.c                             0x00000000   Number         0  deviceskey.o ABSOLUTE
    DevicesLed.c                             0x00000000   Number         0  devicesled.o ABSOLUTE
    DevicesList.c                            0x00000000   Number         0  deviceslist.o ABSOLUTE
    DevicesPower.c                           0x00000000   Number         0  devicespower.o ABSOLUTE
    DevicesQueue.c                           0x00000000   Number         0  devicesqueue.o ABSOLUTE
    DevicesSPI.c                             0x00000000   Number         0  devicesspi.o ABSOLUTE
    DevicesSoftIIC.c                         0x00000000   Number         0  devicessoftiic.o ABSOLUTE
    DevicesSoftTimer.c                       0x00000000   Number         0  devicessofttimer.o ABSOLUTE
    DevicesTime.c                            0x00000000   Number         0  devicestime.o ABSOLUTE
    DevicesTimer.c                           0x00000000   Number         0  devicestimer.o ABSOLUTE
    DevicesUart.c                            0x00000000   Number         0  devicesuart.o ABSOLUTE
    DevicesWatchDog.c                        0x00000000   Number         0  deviceswatchdog.o ABSOLUTE
    cdcmple.s                                0x00000000   Number         0  cdcmple.o ABSOLUTE
    cdrcmple.s                               0x00000000   Number         0  cdrcmple.o ABSOLUTE
    cmt2300a.c                               0x00000000   Number         0  cmt2300a.o ABSOLUTE
    cmt2300a_hal.c                           0x00000000   Number         0  cmt2300a_hal.o ABSOLUTE
    cmt_spi3.c                               0x00000000   Number         0  cmt_spi3.o ABSOLUTE
    dc.s                                     0x00000000   Number         0  dc.o ABSOLUTE
    handlers.s                               0x00000000   Number         0  handlers.o ABSOLUTE
    init.s                                   0x00000000   Number         0  init.o ABSOLUTE
    main.c                                   0x00000000   Number         0  main.o ABSOLUTE
    misc.c                                   0x00000000   Number         0  misc.o ABSOLUTE
    n32g031_adc.c                            0x00000000   Number         0  n32g031_adc.o ABSOLUTE
    n32g031_beeper.c                         0x00000000   Number         0  n32g031_beeper.o ABSOLUTE
    n32g031_comp.c                           0x00000000   Number         0  n32g031_comp.o ABSOLUTE
    n32g031_crc.c                            0x00000000   Number         0  n32g031_crc.o ABSOLUTE
    n32g031_dbg.c                            0x00000000   Number         0  n32g031_dbg.o ABSOLUTE
    n32g031_dma.c                            0x00000000   Number         0  n32g031_dma.o ABSOLUTE
    n32g031_exti.c                           0x00000000   Number         0  n32g031_exti.o ABSOLUTE
    n32g031_flash.c                          0x00000000   Number         0  n32g031_flash.o ABSOLUTE
    n32g031_gpio.c                           0x00000000   Number         0  n32g031_gpio.o ABSOLUTE
    n32g031_hdiv.c                           0x00000000   Number         0  n32g031_hdiv.o ABSOLUTE
    n32g031_i2c.c                            0x00000000   Number         0  n32g031_i2c.o ABSOLUTE
    n32g031_it.c                             0x00000000   Number         0  n32g031_it.o ABSOLUTE
    n32g031_iwdg.c                           0x00000000   Number         0  n32g031_iwdg.o ABSOLUTE
    n32g031_lptim.c                          0x00000000   Number         0  n32g031_lptim.o ABSOLUTE
    n32g031_lpuart.c                         0x00000000   Number         0  n32g031_lpuart.o ABSOLUTE
    n32g031_opamp.c                          0x00000000   Number         0  n32g031_opamp.o ABSOLUTE
    n32g031_pwr.c                            0x00000000   Number         0  n32g031_pwr.o ABSOLUTE
    n32g031_rcc.c                            0x00000000   Number         0  n32g031_rcc.o ABSOLUTE
    n32g031_rtc.c                            0x00000000   Number         0  n32g031_rtc.o ABSOLUTE
    n32g031_spi.c                            0x00000000   Number         0  n32g031_spi.o ABSOLUTE
    n32g031_sqrt.c                           0x00000000   Number         0  n32g031_sqrt.o ABSOLUTE
    n32g031_tim.c                            0x00000000   Number         0  n32g031_tim.o ABSOLUTE
    n32g031_usart.c                          0x00000000   Number         0  n32g031_usart.o ABSOLUTE
    n32g031_wwdg.c                           0x00000000   Number         0  n32g031_wwdg.o ABSOLUTE
    qmp6989.c                                0x00000000   Number         0  qmp6989.o ABSOLUTE
    radio.c                                  0x00000000   Number         0  radio.o ABSOLUTE
    system_n32g031.c                         0x00000000   Number         0  system_n32g031.o ABSOLUTE
    RESET                                    0x08000000   Section      192  startup_n32g031.o(RESET)
    .ARM.Collect$$$$00000000                 0x080000c0   Section        0  entry.o(.ARM.Collect$$$$00000000)
    .ARM.Collect$$$$00000001                 0x080000c0   Section        4  entry2.o(.ARM.Collect$$$$00000001)
    .ARM.Collect$$$$00000004                 0x080000c4   Section        4  entry5.o(.ARM.Collect$$$$00000004)
    .ARM.Collect$$$$00000008                 0x080000c8   Section        0  entry7b.o(.ARM.Collect$$$$00000008)
    .ARM.Collect$$$$0000000A                 0x080000c8   Section        0  entry8b.o(.ARM.Collect$$$$0000000A)
    .ARM.Collect$$$$0000000B                 0x080000c8   Section        8  entry9a.o(.ARM.Collect$$$$0000000B)
    __lit__00000000                          0x080000d0   Data           4  entry2.o(.ARM.Collect$$$$00002712)
    .ARM.Collect$$$$0000000D                 0x080000d0   Section        0  entry10a.o(.ARM.Collect$$$$0000000D)
    .ARM.Collect$$$$0000000F                 0x080000d0   Section        0  entry11a.o(.ARM.Collect$$$$0000000F)
    .ARM.Collect$$$$00002712                 0x080000d0   Section        4  entry2.o(.ARM.Collect$$$$00002712)
    .text                                    0x080000d4   Section       28  startup_n32g031.o(.text)
    .text                                    0x080000f0   Section        0  ldiv.o(.text)
    .text                                    0x0800013c   Section        0  memseta.o(.text)
    .text                                    0x08000160   Section        0  fadd.o(.text)
    .text                                    0x08000212   Section        0  fmul.o(.text)
    .text                                    0x0800028c   Section        0  fdiv.o(.text)
    .text                                    0x08000308   Section        0  dadd.o(.text)
    .text                                    0x0800046c   Section        0  dmul.o(.text)
    .text                                    0x0800053c   Section        0  fcmple.o(.text)
    .text                                    0x08000558   Section        0  fcmplt.o(.text)
    .text                                    0x08000574   Section        0  fcmpgt.o(.text)
    .text                                    0x08000590   Section        0  fflti.o(.text)
    .text                                    0x080005a6   Section        0  ffltui.o(.text)
    .text                                    0x080005b4   Section        0  ffltl.o(.text)
    .text                                    0x080005e0   Section        0  ffixi.o(.text)
    .text                                    0x08000612   Section        0  ffixl.o(.text)
    .text                                    0x08000652   Section        0  f2d.o(.text)
    .text                                    0x0800067a   Section        0  d2f.o(.text)
    .text                                    0x080006b2   Section        0  uidiv_div0.o(.text)
    .text                                    0x080006f0   Section        0  uldiv.o(.text)
    .text                                    0x08000750   Section        0  llshl.o(.text)
    .text                                    0x08000770   Section        0  llsshr.o(.text)
    .text                                    0x08000796   Section        0  iusefp.o(.text)
    .text                                    0x08000796   Section        0  fepilogue.o(.text)
    .text                                    0x08000818   Section        0  depilogue.o(.text)
    .text                                    0x080008d8   Section        0  ddiv.o(.text)
    .text                                    0x080009c8   Section        0  dscalb.o(.text)
    .text                                    0x080009f4   Section        0  dflti.o(.text)
    .text                                    0x08000a1c   Section        0  dfixul.o(.text)
    .text                                    0x08000a5c   Section       40  cdcmple.o(.text)
    .text                                    0x08000a84   Section       40  cdrcmple.o(.text)
    .text                                    0x08000aac   Section        0  fcmp4.o(.text)
    .text                                    0x08000ae0   Section       36  init.o(.text)
    .text                                    0x08000b04   Section        0  llushr.o(.text)
    [Anonymous Symbol]                       0x08000b26   Section        0  n32g031_adc.o(.text.ADC_ConfigClk)
    [Anonymous Symbol]                       0x08000b52   Section        0  n32g031_adc.o(.text.ADC_ConfigRegularChannel)
    [Anonymous Symbol]                       0x08000bae   Section        0  n32g031_adc.o(.text.ADC_Enable)
    [Anonymous Symbol]                       0x08000bbe   Section        0  n32g031_adc.o(.text.ADC_EnableDMA)
    [Anonymous Symbol]                       0x08000bd2   Section        0  n32g031_adc.o(.text.ADC_EnableSoftwareStartConv)
    [Anonymous Symbol]                       0x08000be8   Section        0  n32g031_adc.o(.text.ADC_EnableTempSensor)
    [Anonymous Symbol]                       0x08000c00   Section        0  n32g031_adc.o(.text.ADC_EnableTempSensorVrefint)
    __arm_cp.26_0                            0x08000c18   Number         4  n32g031_adc.o(.text.ADC_EnableTempSensorVrefint)
    [Anonymous Symbol]                       0x08000c1c   Section        0  n32g031_adc.o(.text.ADC_EnableVrefint)
    __arm_cp.28_0                            0x08000c30   Number         4  n32g031_adc.o(.text.ADC_EnableVrefint)
    [Anonymous Symbol]                       0x08000c34   Section        0  n32g031_adc.o(.text.ADC_GetFlagStatusNew)
    [Anonymous Symbol]                       0x08000c40   Section        0  n32g031_adc.o(.text.ADC_Init)
    __arm_cp.1_0                             0x08000c80   Number         4  n32g031_adc.o(.text.ADC_Init)
    [Anonymous Symbol]                       0x08000c84   Section        0  cmt2300a.o(.text.CMT2300A_AutoSwitchStatus)
    [Anonymous Symbol]                       0x080010c8   Section        0  cmt2300a.o(.text.CMT2300A_ConfigGpio)
    [Anonymous Symbol]                       0x080010d4   Section        0  cmt2300a.o(.text.CMT2300A_ConfigInterrupt)
    [Anonymous Symbol]                       0x08001110   Section        0  cmt2300a.o(.text.CMT2300A_ConfigRegBank)
    [Anonymous Symbol]                       0x08001136   Section        0  cmt2300a.o(.text.CMT2300A_EnableInterrupt)
    [Anonymous Symbol]                       0x08001142   Section        0  cmt2300a.o(.text.CMT2300A_EnableLfosc)
    [Anonymous Symbol]                       0x08001166   Section        0  cmt2300a.o(.text.CMT2300A_GoSleep)
    [Anonymous Symbol]                       0x08001170   Section        0  cmt2300a.o(.text.CMT2300A_Init)
    __arm_cp.36_0                            0x08001228   Number         4  cmt2300a.o(.text.CMT2300A_Init)
    [Anonymous Symbol]                       0x0800122c   Section        0  cmt2300a_hal.o(.text.CMT2300A_InitGpio)
    [Anonymous Symbol]                       0x08001234   Section        0  cmt2300a_hal.o(.text.CMT2300A_ReadReg)
    [Anonymous Symbol]                       0x0800124a   Section        0  cmt2300a.o(.text.CMT2300A_SetFrequencyChannel)
    [Anonymous Symbol]                       0x08001256   Section        0  cmt2300a.o(.text.CMT2300A_SetFrequencyStep)
    [Anonymous Symbol]                       0x08001262   Section        0  cmt2300a_hal.o(.text.CMT2300A_WriteReg)
    [Anonymous Symbol]                       0x0800126c   Section        0  n32g031_dma.o(.text.DMA_DeInit)
    __arm_cp.0_1                             0x080012c4   Number         4  n32g031_dma.o(.text.DMA_DeInit)
    __arm_cp.0_2                             0x080012c8   Number         4  n32g031_dma.o(.text.DMA_DeInit)
    __arm_cp.0_3                             0x080012cc   Number         4  n32g031_dma.o(.text.DMA_DeInit)
    __arm_cp.0_4                             0x080012d0   Number         4  n32g031_dma.o(.text.DMA_DeInit)
    __arm_cp.0_5                             0x080012d4   Number         4  n32g031_dma.o(.text.DMA_DeInit)
    __arm_cp.0_6                             0x080012d8   Number         4  n32g031_dma.o(.text.DMA_DeInit)
    __arm_cp.0_7                             0x080012dc   Number         4  n32g031_dma.o(.text.DMA_DeInit)
    [Anonymous Symbol]                       0x080012e0   Section        0  n32g031_dma.o(.text.DMA_EnableChannel)
    __arm_cp.3_0                             0x080012f8   Number         4  n32g031_dma.o(.text.DMA_EnableChannel)
    [Anonymous Symbol]                       0x080012fc   Section        0  n32g031_dma.o(.text.DMA_Init)
    __arm_cp.1_0                             0x08001334   Number         4  n32g031_dma.o(.text.DMA_Init)
    [Anonymous Symbol]                       0x08001338   Section        0  n32g031_dma.o(.text.DMA_RequestRemap)
    [Anonymous Symbol]                       0x08001344   Section        0  n32g031_it.o(.text.EXTI2_3_IRQHandler)
    __arm_cp.7_0                             0x08001368   Number         4  n32g031_it.o(.text.EXTI2_3_IRQHandler)
    __arm_cp.7_1                             0x0800136c   Number         4  n32g031_it.o(.text.EXTI2_3_IRQHandler)
    [Anonymous Symbol]                       0x08001370   Section        0  n32g031_exti.o(.text.EXTI_ClrITPendBit)
    __arm_cp.7_0                             0x08001378   Number         4  n32g031_exti.o(.text.EXTI_ClrITPendBit)
    [Anonymous Symbol]                       0x0800137c   Section        0  n32g031_exti.o(.text.EXTI_GetITStatus)
    [Anonymous Symbol]                       0x08001394   Section        0  n32g031_exti.o(.text.EXTI_InitPeripheral)
    [Anonymous Symbol]                       0x080013f0   Section        0  n32g031_gpio.o(.text.GPIO_ConfigEXTILine)
    [Anonymous Symbol]                       0x08001410   Section        0  n32g031_gpio.o(.text.GPIO_InitPeripheral)
    __arm_cp.3_0                             0x080015ac   Number         4  n32g031_gpio.o(.text.GPIO_InitPeripheral)
    __arm_cp.3_1                             0x080015b0   Number         4  n32g031_gpio.o(.text.GPIO_InitPeripheral)
    __arm_cp.3_2                             0x080015b4   Number         4  n32g031_gpio.o(.text.GPIO_InitPeripheral)
    __arm_cp.3_3                             0x080015b8   Number         4  n32g031_gpio.o(.text.GPIO_InitPeripheral)
    __arm_cp.3_4                             0x080015bc   Number         4  n32g031_gpio.o(.text.GPIO_InitPeripheral)
    __arm_cp.3_5                             0x080015c0   Number         4  n32g031_gpio.o(.text.GPIO_InitPeripheral)
    [Anonymous Symbol]                       0x080015c4   Section        0  n32g031_gpio.o(.text.GPIO_InitStruct)
    __arm_cp.4_0                             0x080015dc   Number         4  n32g031_gpio.o(.text.GPIO_InitStruct)
    [Anonymous Symbol]                       0x080015e0   Section        0  n32g031_gpio.o(.text.GPIO_ReadInputDataBit)
    [Anonymous Symbol]                       0x080015ea   Section        0  n32g031_gpio.o(.text.GPIO_ResetBits)
    [Anonymous Symbol]                       0x080015ee   Section        0  n32g031_gpio.o(.text.GPIO_SetBits)
    [Anonymous Symbol]                       0x080015f2   Section        0  n32g031_gpio.o(.text.GPIO_TogglePin)
    [Anonymous Symbol]                       0x080015fa   Section        0  n32g031_it.o(.text.HardFault_Handler)
    [Anonymous Symbol]                       0x080015fc   Section        0  n32g031_iwdg.o(.text.IWDG_CntReload)
    __arm_cp.2_0                             0x08001604   Number         4  n32g031_iwdg.o(.text.IWDG_CntReload)
    [Anonymous Symbol]                       0x08001608   Section        0  n32g031_iwdg.o(.text.IWDG_Enable)
    __arm_cp.4_1                             0x08001610   Number         4  n32g031_iwdg.o(.text.IWDG_Enable)
    [Anonymous Symbol]                       0x08001614   Section        0  n32g031_iwdg.o(.text.IWDG_ReloadKey)
    __arm_cp.3_1                             0x0800161c   Number         4  n32g031_iwdg.o(.text.IWDG_ReloadKey)
    [Anonymous Symbol]                       0x08001620   Section        0  n32g031_iwdg.o(.text.IWDG_SetPrescalerDiv)
    __arm_cp.1_0                             0x08001628   Number         4  n32g031_iwdg.o(.text.IWDG_SetPrescalerDiv)
    [Anonymous Symbol]                       0x0800162c   Section        0  n32g031_iwdg.o(.text.IWDG_WriteConfig)
    __arm_cp.0_0                             0x08001634   Number         4  n32g031_iwdg.o(.text.IWDG_WriteConfig)
    [Anonymous Symbol]                       0x08001638   Section        0  n32g031_it.o(.text.LPTIM_TIM6_IRQHandler)
    __arm_cp.4_0                             0x08001668   Number         4  n32g031_it.o(.text.LPTIM_TIM6_IRQHandler)
    __arm_cp.4_1                             0x0800166c   Number         4  n32g031_it.o(.text.LPTIM_TIM6_IRQHandler)
    __arm_cp.4_2                             0x08001670   Number         4  n32g031_it.o(.text.LPTIM_TIM6_IRQHandler)
    [Anonymous Symbol]                       0x08001674   Section        0  n32g031_it.o(.text.NMI_Handler)
    [Anonymous Symbol]                       0x08001678   Section        0  misc.o(.text.NVIC_Init)
    __arm_cp.0_0                             0x080016d0   Number         4  misc.o(.text.NVIC_Init)
    __arm_cp.0_1                             0x080016d4   Number         4  misc.o(.text.NVIC_Init)
    __arm_cp.0_2                             0x080016d8   Number         4  misc.o(.text.NVIC_Init)
    __arm_cp.0_3                             0x080016dc   Number         4  misc.o(.text.NVIC_Init)
    [Anonymous Symbol]                       0x080016e0   Section        0  n32g031_rcc.o(.text.RCC_ConfigAdc1mClk)
    [Anonymous Symbol]                       0x080016f4   Section        0  n32g031_rcc.o(.text.RCC_ConfigAdcHclk)
    [Anonymous Symbol]                       0x08001704   Section        0  n32g031_rcc.o(.text.RCC_ConfigAdcPllClk)
    __arm_cp.19_0                            0x0800171c   Number         4  n32g031_rcc.o(.text.RCC_ConfigAdcPllClk)
    [Anonymous Symbol]                       0x08001720   Section        0  n32g031_rcc.o(.text.RCC_EnableAHBPeriphClk)
    __arm_cp.34_0                            0x08001738   Number         4  n32g031_rcc.o(.text.RCC_EnableAHBPeriphClk)
    [Anonymous Symbol]                       0x0800173c   Section        0  n32g031_rcc.o(.text.RCC_EnableAPB1PeriphClk)
    __arm_cp.36_0                            0x08001754   Number         4  n32g031_rcc.o(.text.RCC_EnableAPB1PeriphClk)
    [Anonymous Symbol]                       0x08001758   Section        0  n32g031_rcc.o(.text.RCC_EnableAPB2PeriphClk)
    __arm_cp.35_0                            0x08001770   Number         4  n32g031_rcc.o(.text.RCC_EnableAPB2PeriphClk)
    [Anonymous Symbol]                       0x08001774   Section        0  radio.o(.text.RF_Init)
    __arm_cp.0_0                             0x08001804   Number         4  radio.o(.text.RF_Init)
    __arm_cp.0_1                             0x08001808   Number         4  radio.o(.text.RF_Init)
    __arm_cp.0_2                             0x0800180c   Number         4  radio.o(.text.RF_Init)
    __arm_cp.0_3                             0x08001810   Number         4  radio.o(.text.RF_Init)
    __arm_cp.0_4                             0x08001814   Number         4  radio.o(.text.RF_Init)
    __arm_cp.0_5                             0x08001818   Number         4  radio.o(.text.RF_Init)
    [Anonymous Symbol]                       0x0800181c   Section        0  system_n32g031.o(.text.SystemCoreClockUpdate)
    __arm_cp.1_2                             0x08001878   Number         4  system_n32g031.o(.text.SystemCoreClockUpdate)
    __arm_cp.1_3                             0x0800187c   Number         4  system_n32g031.o(.text.SystemCoreClockUpdate)
    __arm_cp.1_4                             0x08001880   Number         4  system_n32g031.o(.text.SystemCoreClockUpdate)
    __arm_cp.1_5                             0x08001884   Number         4  system_n32g031.o(.text.SystemCoreClockUpdate)
    __arm_cp.1_6                             0x08001888   Number         4  system_n32g031.o(.text.SystemCoreClockUpdate)
    __arm_cp.1_7                             0x0800188c   Number         4  system_n32g031.o(.text.SystemCoreClockUpdate)
    [Anonymous Symbol]                       0x08001890   Section        0  system_n32g031.o(.text.SystemInit)
    __arm_cp.0_0                             0x08001948   Number         4  system_n32g031.o(.text.SystemInit)
    __arm_cp.0_1                             0x0800194c   Number         4  system_n32g031.o(.text.SystemInit)
    __arm_cp.0_2                             0x08001950   Number         4  system_n32g031.o(.text.SystemInit)
    __arm_cp.0_3                             0x08001954   Number         4  system_n32g031.o(.text.SystemInit)
    __arm_cp.0_4                             0x08001958   Number         4  system_n32g031.o(.text.SystemInit)
    __arm_cp.0_5                             0x0800195c   Number         4  system_n32g031.o(.text.SystemInit)
    __arm_cp.0_6                             0x08001960   Number         4  system_n32g031.o(.text.SystemInit)
    __arm_cp.0_7                             0x08001964   Number         4  system_n32g031.o(.text.SystemInit)
    [Anonymous Symbol]                       0x08001968   Section        0  n32g031_it.o(.text.TIM1_BRK_UP_TRG_COM_IRQHandler)
    [Anonymous Symbol]                       0x08001984   Section        0  n32g031_it.o(.text.TIM3_IRQHandler)
    __arm_cp.3_0                             0x08001a38   Number         4  n32g031_it.o(.text.TIM3_IRQHandler)
    __arm_cp.3_1                             0x08001a3c   Number         4  n32g031_it.o(.text.TIM3_IRQHandler)
    __arm_cp.3_2                             0x08001a40   Number         4  n32g031_it.o(.text.TIM3_IRQHandler)
    [Anonymous Symbol]                       0x08001a44   Section        0  n32g031_it.o(.text.TIM8_BRK_UP_TRG_COM_IRQHandler)
    __arm_cp.5_1                             0x08001a68   Number         4  n32g031_it.o(.text.TIM8_BRK_UP_TRG_COM_IRQHandler)
    [Anonymous Symbol]                       0x08001a6c   Section        0  n32g031_it.o(.text.TIM8_CC_IRQHandler)
    __arm_cp.6_1                             0x08001ab4   Number         4  n32g031_it.o(.text.TIM8_CC_IRQHandler)
    __arm_cp.6_2                             0x08001ab8   Number         4  n32g031_it.o(.text.TIM8_CC_IRQHandler)
    __arm_cp.6_3                             0x08001abc   Number         4  n32g031_it.o(.text.TIM8_CC_IRQHandler)
    [Anonymous Symbol]                       0x08001ac0   Section        0  n32g031_tim.o(.text.TIM_ClrIntPendingBit)
    [Anonymous Symbol]                       0x08001ac6   Section        0  n32g031_tim.o(.text.TIM_ConfigInt)
    [Anonymous Symbol]                       0x08001ada   Section        0  n32g031_tim.o(.text.TIM_Enable)
    [Anonymous Symbol]                       0x08001aec   Section        0  n32g031_tim.o(.text.TIM_EnableCtrlPwmOutputs)
    __arm_cp.20_0                            0x08001b04   Number         4  n32g031_tim.o(.text.TIM_EnableCtrlPwmOutputs)
    [Anonymous Symbol]                       0x08001b08   Section        0  n32g031_tim.o(.text.TIM_GetIntStatus)
    [Anonymous Symbol]                       0x08001b1c   Section        0  n32g031_tim.o(.text.TIM_InitOc1)
    [Anonymous Symbol]                       0x08001b78   Section        0  n32g031_tim.o(.text.TIM_InitOc2)
    __arm_cp.3_2                             0x08001be0   Number         4  n32g031_tim.o(.text.TIM_InitOc2)
    [Anonymous Symbol]                       0x08001be4   Section        0  n32g031_tim.o(.text.TIM_InitOc3)
    __arm_cp.4_2                             0x08001c54   Number         4  n32g031_tim.o(.text.TIM_InitOc3)
    [Anonymous Symbol]                       0x08001c58   Section        0  n32g031_tim.o(.text.TIM_InitOc4)
    __arm_cp.5_1                             0x08001cb8   Number         4  n32g031_tim.o(.text.TIM_InitOc4)
    __arm_cp.5_2                             0x08001cbc   Number         4  n32g031_tim.o(.text.TIM_InitOc4)
    [Anonymous Symbol]                       0x08001cc0   Section        0  n32g031_tim.o(.text.TIM_InitTimeBase)
    __arm_cp.1_1                             0x08001dac   Number         4  n32g031_tim.o(.text.TIM_InitTimeBase)
    __arm_cp.1_2                             0x08001db0   Number         4  n32g031_tim.o(.text.TIM_InitTimeBase)
    __arm_cp.1_3                             0x08001db4   Number         4  n32g031_tim.o(.text.TIM_InitTimeBase)
    [Anonymous Symbol]                       0x08001db8   Section        0  devicesinfrared.o(.text.cInfraredSendValue)
    __arm_cp.1_0                             0x08001f58   Number         4  devicesinfrared.o(.text.cInfraredSendValue)
    __arm_cp.1_1                             0x08001f5c   Number         4  devicesinfrared.o(.text.cInfraredSendValue)
    [Anonymous Symbol]                       0x08001f60   Section        0  deviceslist.o(.text.cListInit)
    [Anonymous Symbol]                       0x08001f78   Section        0  deviceslist.o(.text.cListInsert)
    __arm_cp.1_0                             0x08001fc8   Number         4  deviceslist.o(.text.cListInsert)
    [Anonymous Symbol]                       0x08001fcc   Section        0  devicessoftiic.o(.text.cSoftIICxReadDatas)
    __arm_cp.10_0                            0x080022bc   Number         4  devicessoftiic.o(.text.cSoftIICxReadDatas)
    [Anonymous Symbol]                       0x080022c0   Section        0  devicessoftiic.o(.text.cSoftIICxWriteDatas)
    __arm_cp.9_0                             0x08002514   Number         4  devicessoftiic.o(.text.cSoftIICxWriteDatas)
    [Anonymous Symbol]                       0x08002518   Section        0  devicessofttimer.o(.text.cSoftTimerCreate)
    [Anonymous Symbol]                       0x0800256c   Section        0  devicessofttimer.o(.text.cSoftTimerMachine)
    __arm_cp.10_0                            0x080025d0   Number         4  devicessofttimer.o(.text.cSoftTimerMachine)
    [Anonymous Symbol]                       0x080025d4   Section        0  devicessofttimer.o(.text.cSoftTimerReload)
    [Anonymous Symbol]                       0x080025fc   Section        0  devicessofttimer.o(.text.cSoftTimerReset)
    [Anonymous Symbol]                       0x08002632   Section        0  devicessofttimer.o(.text.cSoftTimerSet)
    [Anonymous Symbol]                       0x08002664   Section        0  devicestimer.o(.text.cTimer3Init)
    [Anonymous Symbol]                       0x08002668   Section        0  devicestimer.o(.text.cTimer6Init)
    __arm_cp.2_0                             0x080026c8   Number         4  devicestimer.o(.text.cTimer6Init)
    __arm_cp.2_1                             0x080026cc   Number         4  devicestimer.o(.text.cTimer6Init)
    __arm_cp.2_2                             0x080026d0   Number         4  devicestimer.o(.text.cTimer6Init)
    __arm_cp.2_3                             0x080026d4   Number         4  devicestimer.o(.text.cTimer6Init)
    [Anonymous Symbol]                       0x080026d8   Section        0  cmt_spi3.o(.text.cmt_spi3_init)
    [Anonymous Symbol]                       0x080027d4   Section        0  cmt_spi3.o(.text.cmt_spi3_read)
    __arm_cp.6_1                             0x080028e0   Number         4  cmt_spi3.o(.text.cmt_spi3_read)
    [Anonymous Symbol]                       0x080028e4   Section        0  cmt_spi3.o(.text.cmt_spi3_recv)
    __arm_cp.4_0                             0x08002a10   Number         4  cmt_spi3.o(.text.cmt_spi3_recv)
    [Anonymous Symbol]                       0x08002a14   Section        0  cmt_spi3.o(.text.cmt_spi3_send)
    __arm_cp.3_0                             0x08002b54   Number         4  cmt_spi3.o(.text.cmt_spi3_send)
    [Anonymous Symbol]                       0x08002b58   Section        0  cmt_spi3.o(.text.cmt_spi3_write)
    __arm_cp.5_0                             0x08002c48   Number         4  cmt_spi3.o(.text.cmt_spi3_write)
    __arm_cp.5_1                             0x08002c4c   Number         4  cmt_spi3.o(.text.cmt_spi3_write)
    [Anonymous Symbol]                       0x08002c50   Section        0  deviceskey.o(.text.enumKeyStateMachine)
    __arm_cp.1_0                             0x08002d78   Number         4  deviceskey.o(.text.enumKeyStateMachine)
    [Anonymous Symbol]                       0x08002d7c   Section        0  devicesqueue.o(.text.enumQueueInit)
    __arm_cp.0_0                             0x08002db8   Number         4  devicesqueue.o(.text.enumQueueInit)
    __arm_cp.0_1                             0x08002dbc   Number         4  devicesqueue.o(.text.enumQueueInit)
    [Anonymous Symbol]                       0x08002ddc   Section        0  devicesqueue.o(.text.enumQueuePopByte)
    [Anonymous Symbol]                       0x08002e0e   Section        0  devicesqueue.o(.text.enumQueuePopDatas)
    [Anonymous Symbol]                       0x08002e68   Section        0  devicesqueue.o(.text.enumQueuePushByte)
    [Anonymous Symbol]                       0x08002ed8   Section        0  devicesqueue.o(.text.enumQueuePushDatas)
    __arm_cp.10_0                            0x08002f60   Number         4  devicesqueue.o(.text.enumQueuePushDatas)
    [Anonymous Symbol]                       0x08002f64   Section        0  devicessofttimer.o(.text.enumSoftTimerGetState)
    [Anonymous Symbol]                       0x08002f90   Section        0  devicesadc.o(.text.fADCGetValue)
    __arm_cp.1_0                             0x0800307c   Number         4  devicesadc.o(.text.fADCGetValue)
    __arm_cp.1_1                             0x08003080   Number         4  devicesadc.o(.text.fADCGetValue)
    [Anonymous Symbol]                       0x08003084   Section        0  devicesblower.o(.text.fBlowerACTemperatureGet)
    __arm_cp.3_0                             0x0800313c   Number         4  devicesblower.o(.text.fBlowerACTemperatureGet)
    __arm_cp.3_1                             0x08003140   Number         4  devicesblower.o(.text.fBlowerACTemperatureGet)
    __arm_cp.3_2                             0x08003144   Number         4  devicesblower.o(.text.fBlowerACTemperatureGet)
    __arm_cp.3_3                             0x08003148   Number         4  devicesblower.o(.text.fBlowerACTemperatureGet)
    __arm_cp.3_4                             0x0800314c   Number         4  devicesblower.o(.text.fBlowerACTemperatureGet)
    __arm_cp.3_5                             0x08003150   Number         4  devicesblower.o(.text.fBlowerACTemperatureGet)
    __arm_cp.3_6                             0x08003154   Number         4  devicesblower.o(.text.fBlowerACTemperatureGet)
    __arm_cp.3_7                             0x08003158   Number         4  devicesblower.o(.text.fBlowerACTemperatureGet)
    __arm_cp.3_8                             0x0800315c   Number         4  devicesblower.o(.text.fBlowerACTemperatureGet)
    __arm_cp.3_9                             0x08003160   Number         4  devicesblower.o(.text.fBlowerACTemperatureGet)
    __arm_cp.3_10                            0x08003164   Number         4  devicesblower.o(.text.fBlowerACTemperatureGet)
    [Anonymous Symbol]                       0x08003168   Section        0  main.o(.text.fputc)
    [Anonymous Symbol]                       0x0800316c   Section        0  devicestime.o(.text.lTimeGetStamp)
    __arm_cp.3_0                             0x080031cc   Number         4  devicestime.o(.text.lTimeGetStamp)
    __arm_cp.3_1                             0x080031d0   Number         4  devicestime.o(.text.lTimeGetStamp)
    [Anonymous Symbol]                       0x080031d4   Section        0  main.o(.text.main)
    __arm_cp.1_0                             0x08003424   Number         4  main.o(.text.main)
    __arm_cp.1_1                             0x08003428   Number         4  main.o(.text.main)
    __arm_cp.1_2                             0x0800342c   Number         4  main.o(.text.main)
    __arm_cp.1_3                             0x08003430   Number         4  main.o(.text.main)
    __arm_cp.1_4                             0x08003434   Number         4  main.o(.text.main)
    __arm_cp.1_6                             0x08003464   Number         4  main.o(.text.main)
    __arm_cp.1_9                             0x080034ac   Number         4  main.o(.text.main)
    __arm_cp.1_10                            0x080034b0   Number         4  main.o(.text.main)
    [Anonymous Symbol]                       0x080034cc   Section        0  qmp6989.o(.text.qmp6989_compensation)
    [Anonymous Symbol]                       0x08003588   Section        0  qmp6989.o(.text.qmp6989_get_calibration_param)
    __arm_cp.5_1                             0x08003764   Number         4  qmp6989.o(.text.qmp6989_get_calibration_param)
    __arm_cp.5_2                             0x08003768   Number         4  qmp6989.o(.text.qmp6989_get_calibration_param)
    __arm_cp.5_3                             0x0800376c   Number         4  qmp6989.o(.text.qmp6989_get_calibration_param)
    __arm_cp.5_4                             0x08003770   Number         4  qmp6989.o(.text.qmp6989_get_calibration_param)
    __arm_cp.5_5                             0x08003774   Number         4  qmp6989.o(.text.qmp6989_get_calibration_param)
    __arm_cp.5_6                             0x08003778   Number         4  qmp6989.o(.text.qmp6989_get_calibration_param)
    __arm_cp.5_7                             0x0800377c   Number         4  qmp6989.o(.text.qmp6989_get_calibration_param)
    __arm_cp.5_8                             0x08003780   Number         4  qmp6989.o(.text.qmp6989_get_calibration_param)
    [Anonymous Symbol]                       0x08003784   Section        0  qmp6989.o(.text.qmp6989_initialization)
    __arm_cp.6_0                             0x08003840   Number         4  qmp6989.o(.text.qmp6989_initialization)
    __arm_cp.6_2                             0x08003844   Number         4  qmp6989.o(.text.qmp6989_initialization)
    [Anonymous Symbol]                       0x08003848   Section        0  qmp6989.o(.text.qmp6989_measure_P)
    __arm_cp.11_0                            0x080038f8   Number         4  qmp6989.o(.text.qmp6989_measure_P)
    [Anonymous Symbol]                       0x080038fc   Section        0  qmp6989.o(.text.qmp6989_measure_T)
    __arm_cp.9_0                             0x0800399c   Number         4  qmp6989.o(.text.qmp6989_measure_T)
    [Anonymous Symbol]                       0x080039a0   Section        0  devicessoftiic.o(.text.ucSoftIICxReadByte)
    [Anonymous Symbol]                       0x08003b38   Section        0  deviceskey.o(.text.uiKeyValueGet)
    __arm_cp.3_0                             0x08003c64   Number         4  deviceskey.o(.text.uiKeyValueGet)
    [Anonymous Symbol]                       0x08003c68   Section        0  devicesadc.o(.text.vADCInit)
    __arm_cp.0_2                             0x08003e2c   Number         4  devicesadc.o(.text.vADCInit)
    __arm_cp.0_3                             0x08003e30   Number         4  devicesadc.o(.text.vADCInit)
    __arm_cp.0_4                             0x08003e34   Number         4  devicesadc.o(.text.vADCInit)
    [Anonymous Symbol]                       0x08003e38   Section        0  devicesblower.o(.text.vBlowerACInit)
    __arm_cp.0_0                             0x08003f70   Number         4  devicesblower.o(.text.vBlowerACInit)
    __arm_cp.0_2                             0x08003f74   Number         4  devicesblower.o(.text.vBlowerACInit)
    __arm_cp.0_7                             0x08003f78   Number         4  devicesblower.o(.text.vBlowerACInit)
    __arm_cp.0_9                             0x08003f7c   Number         4  devicesblower.o(.text.vBlowerACInit)
    [Anonymous Symbol]                       0x08003f80   Section        0  devicesblower.o(.text.vBlowerACSpeedSet)
    __arm_cp.1_0                             0x08003fbc   Number         4  devicesblower.o(.text.vBlowerACSpeedSet)
    __arm_cp.1_1                             0x08003fc0   Number         4  devicesblower.o(.text.vBlowerACSpeedSet)
    __arm_cp.1_2                             0x08003fc4   Number         4  devicesblower.o(.text.vBlowerACSpeedSet)
    __arm_cp.1_3                             0x08003fc8   Number         4  devicesblower.o(.text.vBlowerACSpeedSet)
    [Anonymous Symbol]                       0x08003fcc   Section        0  devicesbuzz.o(.text.vBuzzInit)
    __arm_cp.2_1                             0x08004034   Number         4  devicesbuzz.o(.text.vBuzzInit)
    __arm_cp.2_2                             0x08004038   Number         4  devicesbuzz.o(.text.vBuzzInit)
    __arm_cp.2_3                             0x0800403c   Number         4  devicesbuzz.o(.text.vBuzzInit)
    [Anonymous Symbol]                       0x08004040   Section        0  devicesbuzz.o(.text.vBuzzSetStatus)
    [Anonymous Symbol]                       0x0800404c   Section        0  devicesbuzz.o(.text.vBuzzStateMachine)
    __arm_cp.4_0                             0x080040e0   Number         4  devicesbuzz.o(.text.vBuzzStateMachine)
    [Anonymous Symbol]                       0x080040e4   Section        0  devicescrc.o(.text.vHardCRCInit)
    [Anonymous Symbol]                       0x080040f0   Section        0  devicesinfrared.o(.text.vInfraredInit)
    __arm_cp.2_0                             0x08004148   Number         4  devicesinfrared.o(.text.vInfraredInit)
    __arm_cp.2_1                             0x0800414c   Number         4  devicesinfrared.o(.text.vInfraredInit)
    __arm_cp.2_2                             0x08004150   Number         4  devicesinfrared.o(.text.vInfraredInit)
    __arm_cp.2_3                             0x08004154   Number         4  devicesinfrared.o(.text.vInfraredInit)
    [Anonymous Symbol]                       0x08004158   Section        0  devicesinfrared.o(.text.vInfraredOutputInit)
    __arm_cp.4_0                             0x08004290   Number         4  devicesinfrared.o(.text.vInfraredOutputInit)
    __arm_cp.4_1                             0x08004294   Number         4  devicesinfrared.o(.text.vInfraredOutputInit)
    __arm_cp.4_2                             0x08004298   Number         4  devicesinfrared.o(.text.vInfraredOutputInit)
    __arm_cp.4_3                             0x0800429c   Number         4  devicesinfrared.o(.text.vInfraredOutputInit)
    __arm_cp.4_4                             0x080042a0   Number         4  devicesinfrared.o(.text.vInfraredOutputInit)
    __arm_cp.4_5                             0x080042a4   Number         4  devicesinfrared.o(.text.vInfraredOutputInit)
    __arm_cp.4_6                             0x080042a8   Number         4  devicesinfrared.o(.text.vInfraredOutputInit)
    [Anonymous Symbol]                       0x080042ac   Section        0  devicesinput.o(.text.vInputInit)
    [Anonymous Symbol]                       0x080042e4   Section        0  deviceskey.o(.text.vKeyInit)
    __arm_cp.2_0                             0x08004338   Number         4  deviceskey.o(.text.vKeyInit)
    __arm_cp.2_1                             0x0800433c   Number         4  deviceskey.o(.text.vKeyInit)
    __arm_cp.2_2                             0x08004340   Number         4  deviceskey.o(.text.vKeyInit)
    __arm_cp.2_3                             0x08004344   Number         4  deviceskey.o(.text.vKeyInit)
    __arm_cp.2_4                             0x08004348   Number         4  deviceskey.o(.text.vKeyInit)
    [Anonymous Symbol]                       0x0800434c   Section        0  devicesled.o(.text.vLedInit)
    __arm_cp.2_0                             0x08004448   Number         4  devicesled.o(.text.vLedInit)
    __arm_cp.2_3                             0x0800444c   Number         4  devicesled.o(.text.vLedInit)
    __arm_cp.2_5                             0x08004450   Number         4  devicesled.o(.text.vLedInit)
    __arm_cp.2_6                             0x08004454   Number         4  devicesled.o(.text.vLedInit)
    [Anonymous Symbol]                       0x08004458   Section        0  devicesled.o(.text.vLedStateMachine)
    __arm_cp.8_0                             0x080045b0   Number         4  devicesled.o(.text.vLedStateMachine)
    [Anonymous Symbol]                       0x080045b4   Section        0  devicespower.o(.text.vPowerClose)
    [Anonymous Symbol]                       0x08004640   Section        0  devicespower.o(.text.vPowerInit)
    __arm_cp.0_0                             0x08004738   Number         4  devicespower.o(.text.vPowerInit)
    __arm_cp.0_1                             0x0800473c   Number         4  devicespower.o(.text.vPowerInit)
    [Anonymous Symbol]                       0x08004740   Section        0  devicespower.o(.text.vPowerOpen)
    __arm_cp.2_0                             0x080047cc   Number         4  devicespower.o(.text.vPowerOpen)
    __arm_cp.2_1                             0x080047d0   Number         4  devicespower.o(.text.vPowerOpen)
    __arm_cp.2_2                             0x080047d4   Number         4  devicespower.o(.text.vPowerOpen)
    [Anonymous Symbol]                       0x080047d8   Section        0  qmp6989.o(.text.vQMP6989ValueGet)
    __arm_cp.17_0                            0x08004824   Number         4  qmp6989.o(.text.vQMP6989ValueGet)
    __arm_cp.17_1                            0x08004828   Number         4  qmp6989.o(.text.vQMP6989ValueGet)
    __arm_cp.17_2                            0x0800482c   Number         4  qmp6989.o(.text.vQMP6989ValueGet)
    __arm_cp.17_3                            0x08004830   Number         4  qmp6989.o(.text.vQMP6989ValueGet)
    [Anonymous Symbol]                       0x08004834   Section        0  devicessoftiic.o(.text.vSoftIIC6998Init)
    __arm_cp.0_0                             0x080048ac   Number         4  devicessoftiic.o(.text.vSoftIIC6998Init)
    __arm_cp.0_1                             0x080048b0   Number         4  devicessoftiic.o(.text.vSoftIIC6998Init)
    __arm_cp.0_2                             0x080048b4   Number         4  devicessoftiic.o(.text.vSoftIIC6998Init)
    __arm_cp.0_3                             0x080048b8   Number         4  devicessoftiic.o(.text.vSoftIIC6998Init)
    __arm_cp.0_4                             0x080048bc   Number         4  devicessoftiic.o(.text.vSoftIIC6998Init)
    __arm_cp.0_5                             0x080048c0   Number         4  devicessoftiic.o(.text.vSoftIIC6998Init)
    __arm_cp.0_6                             0x080048c4   Number         4  devicessoftiic.o(.text.vSoftIIC6998Init)
    __arm_cp.0_7                             0x080048c8   Number         4  devicessoftiic.o(.text.vSoftIIC6998Init)
    [Anonymous Symbol]                       0x080048cc   Section        0  devicessoftiic.o(.text.vSoftIICxSetSdaGPIOMode)
    [Anonymous Symbol]                       0x08004904   Section        0  devicesbuzz.o(.text.vSoftTimerBuzzCallbackFunction)
    __arm_cp.0_0                             0x08004914   Number         4  devicesbuzz.o(.text.vSoftTimerBuzzCallbackFunction)
    [Anonymous Symbol]                       0x08004918   Section        0  devicesinfrared.o(.text.vSoftTimerInfraredCallbackFunction)
    __arm_cp.0_0                             0x08004980   Number         4  devicesinfrared.o(.text.vSoftTimerInfraredCallbackFunction)
    __arm_cp.0_1                             0x08004984   Number         4  devicesinfrared.o(.text.vSoftTimerInfraredCallbackFunction)
    [Anonymous Symbol]                       0x08004988   Section        0  deviceskey.o(.text.vSoftTimerKeyCallbackFunction)
    __arm_cp.0_0                             0x080049a0   Number         4  deviceskey.o(.text.vSoftTimerKeyCallbackFunction)
    __arm_cp.0_1                             0x080049a4   Number         4  deviceskey.o(.text.vSoftTimerKeyCallbackFunction)
    [Anonymous Symbol]                       0x080049a8   Section        0  devicesled.o(.text.vSoftTimerLedCallbackFunction)
    __arm_cp.0_0                             0x080049fc   Number         4  devicesled.o(.text.vSoftTimerLedCallbackFunction)
    __arm_cp.0_1                             0x08004a00   Number         4  devicesled.o(.text.vSoftTimerLedCallbackFunction)
    [Anonymous Symbol]                       0x08004a04   Section        0  devicesdelay.o(.text.vTimerDelayInit)
    [Anonymous Symbol]                       0x08004a08   Section        0  devicesdelay.o(.text.vTimerDelayMs)
    __arm_cp.7_0                             0x08004a60   Number         4  devicesdelay.o(.text.vTimerDelayMs)
    [Anonymous Symbol]                       0x08004a64   Section        0  devicesdelay.o(.text.vTimerDelayUs)
    [Anonymous Symbol]                       0x08004ab2   Section        0  main.o(.text.vUserSystemInit)
    [Anonymous Symbol]                       0x08004afc   Section        0  deviceswatchdog.o(.text.vWatchdogInit)
    __arm_cp.0_0                             0x08004b1c   Number         4  deviceswatchdog.o(.text.vWatchdogInit)
    [Anonymous Symbol]                       0x08004b20   Section        0  deviceswatchdog.o(.text.vWatchdogReload)
    i.__0printf                              0x08004b28   Section        0  printfa.o(i.__0printf)
    i.__ARM_clz                              0x08004b48   Section        0  depilogue.o(i.__ARM_clz)
    i.__kernel_poly                          0x08004b76   Section        0  poly.o(i.__kernel_poly)
    i.__mathlib_dbl_divzero                  0x08004c24   Section        0  dunder.o(i.__mathlib_dbl_divzero)
    i.__mathlib_dbl_infnan                   0x08004c38   Section        0  dunder.o(i.__mathlib_dbl_infnan)
    i.__mathlib_dbl_invalid                  0x08004c42   Section        0  dunder.o(i.__mathlib_dbl_invalid)
    i.__scatterload_copy                     0x08004c52   Section       14  handlers.o(i.__scatterload_copy)
    i.__scatterload_null                     0x08004c60   Section        2  handlers.o(i.__scatterload_null)
    i.__scatterload_zeroinit                 0x08004c62   Section       14  handlers.o(i.__scatterload_zeroinit)
    i.__set_errno                            0x08004c70   Section        0  errno.o(i.__set_errno)
    _fp_digits                               0x08004c7d   Thumb Code   344  printfa.o(i._fp_digits)
    i._fp_digits                             0x08004c7c   Section        0  printfa.o(i._fp_digits)
    _printf_core                             0x08004df1   Thumb Code  1754  printfa.o(i._printf_core)
    i._printf_core                           0x08004df0   Section        0  printfa.o(i._printf_core)
    _printf_post_padding                     0x080054dd   Thumb Code    32  printfa.o(i._printf_post_padding)
    i._printf_post_padding                   0x080054dc   Section        0  printfa.o(i._printf_post_padding)
    _printf_pre_padding                      0x080054fd   Thumb Code    44  printfa.o(i._printf_pre_padding)
    i._printf_pre_padding                    0x080054fc   Section        0  printfa.o(i._printf_pre_padding)
    i.fmaxf                                  0x08005528   Section        0  fmaxf.o(i.fmaxf)
    i.log                                    0x08005550   Section        0  log.o(i.log)
    i.puts                                   0x080058a4   Section        0  puts.o(i.puts)
    Lg2                                      0x080058c8   Data          24  log.o(.constdata)
    .constdata                               0x080058c8   Section       56  log.o(.constdata)
    Lg                                       0x080058e0   Data          32  log.o(.constdata)
    .constdata                               0x08005900   Section        8  qnan.o(.constdata)
    QMP6989_POWER_SCALE                      0x08005918   Data          16  qmp6989.o(.rodata.cst16)
    [Anonymous Symbol]                       0x08005918   Section        0  qmp6989.o(.rodata.cst16)
    [Anonymous Symbol]                       0x08005988   Section        0  devicesqueue.o(.rodata.str1.1)
    [Anonymous Symbol]                       0x0800599e   Section        0  qmp6989.o(.rodata.str1.1)
    [Anonymous Symbol]                       0x080059b2   Section        0  main.o(.rodata.str1.1)
    .data                                    0x20000000   Section        4  stdout.o(.data)
    _errno                                   0x20000004   Data           4  errno.o(.data)
    .data                                    0x20000004   Section        4  errno.o(.data)
    int16_tT                                 0x20000028   Data           2  qmp6989.o(.data.int16_tT)
    [Anonymous Symbol]                       0x20000028   Section        0  qmp6989.o(.data.int16_tT)
    st_uiBuzzTickCnt                         0x20000030   Data           4  devicesbuzz.o(.bss..L_MergedGlobals)
    [Anonymous Symbol]                       0x20000030   Section        0  devicesbuzz.o(.bss..L_MergedGlobals)
    st_typeBuzzInfo                          0x20000034   Data          12  devicesbuzz.o(.bss..L_MergedGlobals)
    [Anonymous Symbol]                       0x20000078   Section        0  deviceskey.o(.bss..L_MergedGlobals)
    vLedIncTick.st_cDirection                0x200000d0   Data           1  devicesled.o(.bss..L_MergedGlobals)
    [Anonymous Symbol]                       0x200000d0   Section        0  devicesled.o(.bss..L_MergedGlobals)
    st_sGrade                                0x200000d2   Data           2  devicesled.o(.bss..L_MergedGlobals)
    st_uiLedTickCnt                          0x200000d4   Data           4  devicesled.o(.bss..L_MergedGlobals)
    [Anonymous Symbol]                       0x20000110   Section        0  devicesqueue.o(.bss..L_MergedGlobals)
    st_ucQueueInfraredLeftBuff               0x20000148   Data          68  devicesqueue.o(.bss..L_MergedGlobals)
    [Anonymous Symbol]                       0x20000190   Section        0  devicesinfrared.o(.bss..L_MergedGlobals)
    qmp6989_calibration_process.uint8_tCnt   0x20000200   Data           1  qmp6989.o(.bss..L_MergedGlobals)
    [Anonymous Symbol]                       0x20000200   Section        0  qmp6989.o(.bss..L_MergedGlobals)
    qmp6989_curr_mode                        0x20000201   Data           1  qmp6989.o(.bss..L_MergedGlobals)
    qmp6989_get_data_ext.qmp6989_data_i      0x20000202   Data           1  qmp6989.o(.bss..L_MergedGlobals)
    qmp6989_calibration_process.pfo_Pa       0x20000204   Data           4  qmp6989.o(.bss..L_MergedGlobals)
    int32_tP                                 0x20000208   Data           4  qmp6989.o(.bss..L_MergedGlobals)
    fT_Celsius                               0x2000020c   Data           4  qmp6989.o(.bss..L_MergedGlobals)
    fP_Pa                                    0x20000210   Data           4  qmp6989.o(.bss..L_MergedGlobals)
    fCalibParam                              0x20000214   Data          36  qmp6989.o(.bss..L_MergedGlobals)
    [Anonymous Symbol]                       0x20000238   Section        0  main.o(.bss..L_MergedGlobals)
    [Anonymous Symbol]                       0x20000290   Section        0  devicesinfrared.o(.bss..L_MergedGlobals.1)
    [Anonymous Symbol]                       0x20000300   Section        0  main.o(.bss..L_MergedGlobals.8)
    st_typeLedInfo                           0x200003a4   Data          64  devicesled.o(.bss.st_typeLedInfo)
    [Anonymous Symbol]                       0x200003a4   Section        0  devicesled.o(.bss.st_typeLedInfo)
    st_ucQueueKeyInputBuff                   0x200003e4   Data         132  devicesqueue.o(.bss.st_ucQueueKeyInputBuff)
    [Anonymous Symbol]                       0x200003e4   Section        0  devicesqueue.o(.bss.st_ucQueueKeyInputBuff)
    st_usADC1DmaDatas                        0x20000468   Data         176  devicesadc.o(.bss.st_usADC1DmaDatas)
    [Anonymous Symbol]                       0x20000468   Section        0  devicesadc.o(.bss.st_usADC1DmaDatas)
    STACK                                    0x20000518   Section     1024  startup_n32g031.o(STACK)

    Global Symbols

    Symbol Name                              Value     Ov Type        Size  Object(Section)

    BuildAttributes$$THM_ISAv3M$S$PE$A:L22$X:L11$S22$IEEE1$IW$~IW$USESV6$~STKCKD$USESV7$~SHL$OTIME$ROPI$IEEEX$EBA8$MICROLIB$REQ8$PRES8$EABIv2 0x00000000   Number         0  anon$$obj.o ABSOLUTE
    _printf_a                                0x00000000   Number         0  printfstubs.o ABSOLUTE
    _printf_c                                0x00000000   Number         0  printfstubs.o ABSOLUTE
    _printf_charcount                        0x00000000   Number         0  printfstubs.o ABSOLUTE
    _printf_d                                0x00000000   Number         0  printfstubs.o ABSOLUTE
    _printf_e                                0x00000000   Number         0  printfstubs.o ABSOLUTE
    _printf_f                                0x00000000   Number         0  printfstubs.o ABSOLUTE
    _printf_flags                            0x00000000   Number         0  printfstubs.o ABSOLUTE
    _printf_fp_dec                           0x00000000   Number         0  printfstubs.o ABSOLUTE
    _printf_fp_hex                           0x00000000   Number         0  printfstubs.o ABSOLUTE
    _printf_g                                0x00000000   Number         0  printfstubs.o ABSOLUTE
    _printf_i                                0x00000000   Number         0  printfstubs.o ABSOLUTE
    _printf_int_dec                          0x00000000   Number         0  printfstubs.o ABSOLUTE
    _printf_l                                0x00000000   Number         0  printfstubs.o ABSOLUTE
    _printf_lc                               0x00000000   Number         0  printfstubs.o ABSOLUTE
    _printf_ll                               0x00000000   Number         0  printfstubs.o ABSOLUTE
    _printf_lld                              0x00000000   Number         0  printfstubs.o ABSOLUTE
    _printf_lli                              0x00000000   Number         0  printfstubs.o ABSOLUTE
    _printf_llo                              0x00000000   Number         0  printfstubs.o ABSOLUTE
    _printf_llu                              0x00000000   Number         0  printfstubs.o ABSOLUTE
    _printf_llx                              0x00000000   Number         0  printfstubs.o ABSOLUTE
    _printf_longlong_dec                     0x00000000   Number         0  printfstubs.o ABSOLUTE
    _printf_longlong_hex                     0x00000000   Number         0  printfstubs.o ABSOLUTE
    _printf_longlong_oct                     0x00000000   Number         0  printfstubs.o ABSOLUTE
    _printf_ls                               0x00000000   Number         0  printfstubs.o ABSOLUTE
    _printf_mbtowc                           0x00000000   Number         0  printfstubs.o ABSOLUTE
    _printf_n                                0x00000000   Number         0  printfstubs.o ABSOLUTE
    _printf_o                                0x00000000   Number         0  printfstubs.o ABSOLUTE
    _printf_p                                0x00000000   Number         0  printfstubs.o ABSOLUTE
    _printf_percent                          0x00000000   Number         0  printfstubs.o ABSOLUTE
    _printf_pre_padding                      0x00000000   Number         0  printfstubs.o ABSOLUTE
    _printf_return_value                     0x00000000   Number         0  printfstubs.o ABSOLUTE
    _printf_s                                0x00000000   Number         0  printfstubs.o ABSOLUTE
    _printf_sizespec                         0x00000000   Number         0  printfstubs.o ABSOLUTE
    _printf_str                              0x00000000   Number         0  printfstubs.o ABSOLUTE
    _printf_truncate_signed                  0x00000000   Number         0  printfstubs.o ABSOLUTE
    _printf_truncate_unsigned                0x00000000   Number         0  printfstubs.o ABSOLUTE
    _printf_u                                0x00000000   Number         0  printfstubs.o ABSOLUTE
    _printf_wc                               0x00000000   Number         0  printfstubs.o ABSOLUTE
    _printf_wctomb                           0x00000000   Number         0  printfstubs.o ABSOLUTE
    _printf_widthprec                        0x00000000   Number         0  printfstubs.o ABSOLUTE
    _printf_x                                0x00000000   Number         0  printfstubs.o ABSOLUTE
    __cpp_initialize__aeabi_                  - Undefined Weak Reference
    __cxa_finalize                            - Undefined Weak Reference
    __decompress                              - Undefined Weak Reference
    _clock_init                               - Undefined Weak Reference
    _microlib_exit                            - Undefined Weak Reference
    __Vectors_Size                           0x000000c0   Number         0  startup_n32g031.o ABSOLUTE
    __Vectors                                0x08000000   Data           4  startup_n32g031.o(RESET)
    __Vectors_End                            0x080000c0   Data           0  startup_n32g031.o(RESET)
    __main                                   0x080000c1   Thumb Code     0  entry.o(.ARM.Collect$$$$00000000)
    _main_stk                                0x080000c1   Thumb Code     0  entry2.o(.ARM.Collect$$$$00000001)
    _main_scatterload                        0x080000c5   Thumb Code     0  entry5.o(.ARM.Collect$$$$00000004)
    __main_after_scatterload                 0x080000c9   Thumb Code     0  entry5.o(.ARM.Collect$$$$00000004)
    _main_clock                              0x080000c9   Thumb Code     0  entry7b.o(.ARM.Collect$$$$00000008)
    _main_cpp_init                           0x080000c9   Thumb Code     0  entry8b.o(.ARM.Collect$$$$0000000A)
    _main_init                               0x080000c9   Thumb Code     0  entry9a.o(.ARM.Collect$$$$0000000B)
    __rt_final_cpp                           0x080000d1   Thumb Code     0  entry10a.o(.ARM.Collect$$$$0000000D)
    __rt_final_exit                          0x080000d1   Thumb Code     0  entry11a.o(.ARM.Collect$$$$0000000F)
    Reset_Handler                            0x080000d5   Thumb Code     8  startup_n32g031.o(.text)
    SVC_Handler                              0x080000e1   Thumb Code     2  startup_n32g031.o(.text)
    PendSV_Handler                           0x080000e3   Thumb Code     2  startup_n32g031.o(.text)
    SysTick_Handler                          0x080000e5   Thumb Code     2  startup_n32g031.o(.text)
    ADC_IRQHandler                           0x080000e7   Thumb Code     0  startup_n32g031.o(.text)
    COMP_IRQHandler                          0x080000e7   Thumb Code     0  startup_n32g031.o(.text)
    DMA_Channel1_2_3_4_IRQHandler            0x080000e7   Thumb Code     0  startup_n32g031.o(.text)
    DMA_Channel1_2_IRQHandler                0x080000e7   Thumb Code     0  startup_n32g031.o(.text)
    DMA_Channel3_4_IRQHandler                0x080000e7   Thumb Code     0  startup_n32g031.o(.text)
    DMA_Channel5_IRQHandler                  0x080000e7   Thumb Code     0  startup_n32g031.o(.text)
    EXTI0_1_IRQHandler                       0x080000e7   Thumb Code     0  startup_n32g031.o(.text)
    EXTI4_15_IRQHandler                      0x080000e7   Thumb Code     0  startup_n32g031.o(.text)
    FLASH_IRQHandler                         0x080000e7   Thumb Code     0  startup_n32g031.o(.text)
    HDIV_SQRT_IRQHandler                     0x080000e7   Thumb Code     0  startup_n32g031.o(.text)
    I2C1_IRQHandler                          0x080000e7   Thumb Code     0  startup_n32g031.o(.text)
    I2C2_IRQHandler                          0x080000e7   Thumb Code     0  startup_n32g031.o(.text)
    LPUART_IRQHandler                        0x080000e7   Thumb Code     0  startup_n32g031.o(.text)
    MMU_IRQHandler                           0x080000e7   Thumb Code     0  startup_n32g031.o(.text)
    PVD_IRQHandler                           0x080000e7   Thumb Code     0  startup_n32g031.o(.text)
    RAMC_PERR_IRQHandler                     0x080000e7   Thumb Code     0  startup_n32g031.o(.text)
    RCC_IRQHandler                           0x080000e7   Thumb Code     0  startup_n32g031.o(.text)
    RESERVE9_IRQHandler                      0x080000e7   Thumb Code     0  startup_n32g031.o(.text)
    RTC_IRQHandler                           0x080000e7   Thumb Code     0  startup_n32g031.o(.text)
    SPI1_IRQHandler                          0x080000e7   Thumb Code     0  startup_n32g031.o(.text)
    SPI2_IRQHandler                          0x080000e7   Thumb Code     0  startup_n32g031.o(.text)
    TIM1_CC_IRQHandler                       0x080000e7   Thumb Code     0  startup_n32g031.o(.text)
    USART1_2_IRQHandler                      0x080000e7   Thumb Code     0  startup_n32g031.o(.text)
    USART1_IRQHandler                        0x080000e7   Thumb Code     0  startup_n32g031.o(.text)
    USART2_IRQHandler                        0x080000e7   Thumb Code     0  startup_n32g031.o(.text)
    WWDG_IRQHandler                          0x080000e7   Thumb Code     0  startup_n32g031.o(.text)
    __aeabi_ldivmod                          0x080000f1   Thumb Code    76  ldiv.o(.text)
    __aeabi_memset                           0x0800013d   Thumb Code    14  memseta.o(.text)
    __aeabi_memset4                          0x0800013d   Thumb Code     0  memseta.o(.text)
    __aeabi_memset8                          0x0800013d   Thumb Code     0  memseta.o(.text)
    __aeabi_memclr                           0x0800014b   Thumb Code     4  memseta.o(.text)
    __aeabi_memclr4                          0x0800014b   Thumb Code     0  memseta.o(.text)
    __aeabi_memclr8                          0x0800014b   Thumb Code     0  memseta.o(.text)
    _memset$wrapper                          0x0800014f   Thumb Code    18  memseta.o(.text)
    __aeabi_fadd                             0x08000161   Thumb Code   162  fadd.o(.text)
    __aeabi_fsub                             0x08000203   Thumb Code     8  fadd.o(.text)
    __aeabi_frsub                            0x0800020b   Thumb Code     8  fadd.o(.text)
    __aeabi_fmul                             0x08000213   Thumb Code   122  fmul.o(.text)
    __aeabi_fdiv                             0x0800028d   Thumb Code   124  fdiv.o(.text)
    __aeabi_dadd                             0x08000309   Thumb Code   328  dadd.o(.text)
    __aeabi_dsub                             0x08000451   Thumb Code    12  dadd.o(.text)
    __aeabi_drsub                            0x0800045d   Thumb Code    12  dadd.o(.text)
    __aeabi_dmul                             0x0800046d   Thumb Code   202  dmul.o(.text)
    __aeabi_fcmple                           0x0800053d   Thumb Code    28  fcmple.o(.text)
    __aeabi_fcmplt                           0x08000559   Thumb Code    28  fcmplt.o(.text)
    __aeabi_fcmpgt                           0x08000575   Thumb Code    28  fcmpgt.o(.text)
    __aeabi_i2f                              0x08000591   Thumb Code    22  fflti.o(.text)
    __aeabi_ui2f                             0x080005a7   Thumb Code    14  ffltui.o(.text)
    __aeabi_l2f                              0x080005b5   Thumb Code    44  ffltl.o(.text)
    __aeabi_f2iz                             0x080005e1   Thumb Code    50  ffixi.o(.text)
    __aeabi_f2lz                             0x08000613   Thumb Code    64  ffixl.o(.text)
    __aeabi_f2d                              0x08000653   Thumb Code    40  f2d.o(.text)
    __aeabi_d2f                              0x0800067b   Thumb Code    56  d2f.o(.text)
    __aeabi_uidiv                            0x080006b3   Thumb Code     0  uidiv_div0.o(.text)
    __aeabi_uidivmod                         0x080006b3   Thumb Code    62  uidiv_div0.o(.text)
    __aeabi_uldivmod                         0x080006f1   Thumb Code    96  uldiv.o(.text)
    __aeabi_llsl                             0x08000751   Thumb Code    32  llshl.o(.text)
    _ll_shift_l                              0x08000751   Thumb Code     0  llshl.o(.text)
    __aeabi_lasr                             0x08000771   Thumb Code    38  llsshr.o(.text)
    _ll_sshift_r                             0x08000771   Thumb Code     0  llsshr.o(.text)
    __I$use$fp                               0x08000797   Thumb Code     0  iusefp.o(.text)
    _float_round                             0x08000797   Thumb Code    16  fepilogue.o(.text)
    _float_epilogue                          0x080007a7   Thumb Code   114  fepilogue.o(.text)
    _double_round                            0x08000819   Thumb Code    26  depilogue.o(.text)
    _double_epilogue                         0x08000833   Thumb Code   164  depilogue.o(.text)
    __aeabi_ddiv                             0x080008d9   Thumb Code   234  ddiv.o(.text)
    __ARM_scalbn                             0x080009c9   Thumb Code    44  dscalb.o(.text)
    scalbn                                   0x080009c9   Thumb Code     0  dscalb.o(.text)
    __aeabi_i2d                              0x080009f5   Thumb Code    34  dflti.o(.text)
    __aeabi_d2ulz                            0x08000a1d   Thumb Code    54  dfixul.o(.text)
    __aeabi_cdcmpeq                          0x08000a5d   Thumb Code     0  cdcmple.o(.text)
    __aeabi_cdcmple                          0x08000a5d   Thumb Code    38  cdcmple.o(.text)
    __aeabi_cdrcmple                         0x08000a85   Thumb Code    38  cdrcmple.o(.text)
    __ARM_fcmp4                              0x08000aad   Thumb Code    44  fcmp4.o(.text)
    _fcmp4                                   0x08000aad   Thumb Code     0  fcmp4.o(.text)
    __scatterload                            0x08000ae1   Thumb Code    28  init.o(.text)
    __scatterload_rt2                        0x08000ae1   Thumb Code     0  init.o(.text)
    __aeabi_llsr                             0x08000b05   Thumb Code    34  llushr.o(.text)
    _ll_ushift_r                             0x08000b05   Thumb Code     0  llushr.o(.text)
    ADC_ConfigClk                            0x08000b27   Thumb Code    44  n32g031_adc.o(.text.ADC_ConfigClk)
    ADC_ConfigRegularChannel                 0x08000b53   Thumb Code    92  n32g031_adc.o(.text.ADC_ConfigRegularChannel)
    ADC_Enable                               0x08000baf   Thumb Code    16  n32g031_adc.o(.text.ADC_Enable)
    ADC_EnableDMA                            0x08000bbf   Thumb Code    20  n32g031_adc.o(.text.ADC_EnableDMA)
    ADC_EnableSoftwareStartConv              0x08000bd3   Thumb Code    22  n32g031_adc.o(.text.ADC_EnableSoftwareStartConv)
    ADC_EnableTempSensor                     0x08000be9   Thumb Code    24  n32g031_adc.o(.text.ADC_EnableTempSensor)
    ADC_EnableTempSensorVrefint              0x08000c01   Thumb Code    24  n32g031_adc.o(.text.ADC_EnableTempSensorVrefint)
    ADC_EnableVrefint                        0x08000c1d   Thumb Code    20  n32g031_adc.o(.text.ADC_EnableVrefint)
    ADC_GetFlagStatusNew                     0x08000c35   Thumb Code    10  n32g031_adc.o(.text.ADC_GetFlagStatusNew)
    ADC_Init                                 0x08000c41   Thumb Code    64  n32g031_adc.o(.text.ADC_Init)
    CMT2300A_AutoSwitchStatus                0x08000c85   Thumb Code  1092  cmt2300a.o(.text.CMT2300A_AutoSwitchStatus)
    CMT2300A_ConfigGpio                      0x080010c9   Thumb Code    12  cmt2300a.o(.text.CMT2300A_ConfigGpio)
    CMT2300A_ConfigInterrupt                 0x080010d5   Thumb Code    60  cmt2300a.o(.text.CMT2300A_ConfigInterrupt)
    CMT2300A_ConfigRegBank                   0x08001111   Thumb Code    38  cmt2300a.o(.text.CMT2300A_ConfigRegBank)
    CMT2300A_EnableInterrupt                 0x08001137   Thumb Code    12  cmt2300a.o(.text.CMT2300A_EnableInterrupt)
    CMT2300A_EnableLfosc                     0x08001143   Thumb Code    36  cmt2300a.o(.text.CMT2300A_EnableLfosc)
    CMT2300A_GoSleep                         0x08001167   Thumb Code    10  cmt2300a.o(.text.CMT2300A_GoSleep)
    CMT2300A_Init                            0x08001171   Thumb Code   184  cmt2300a.o(.text.CMT2300A_Init)
    CMT2300A_InitGpio                        0x0800122d   Thumb Code     8  cmt2300a_hal.o(.text.CMT2300A_InitGpio)
    CMT2300A_ReadReg                         0x08001235   Thumb Code    22  cmt2300a_hal.o(.text.CMT2300A_ReadReg)
    CMT2300A_SetFrequencyChannel             0x0800124b   Thumb Code    12  cmt2300a.o(.text.CMT2300A_SetFrequencyChannel)
    CMT2300A_SetFrequencyStep                0x08001257   Thumb Code    12  cmt2300a.o(.text.CMT2300A_SetFrequencyStep)
    CMT2300A_WriteReg                        0x08001263   Thumb Code     8  cmt2300a_hal.o(.text.CMT2300A_WriteReg)
    DMA_DeInit                               0x0800126d   Thumb Code    88  n32g031_dma.o(.text.DMA_DeInit)
    DMA_EnableChannel                        0x080012e1   Thumb Code    24  n32g031_dma.o(.text.DMA_EnableChannel)
    DMA_Init                                 0x080012fd   Thumb Code    56  n32g031_dma.o(.text.DMA_Init)
    DMA_RequestRemap                         0x08001339   Thumb Code    10  n32g031_dma.o(.text.DMA_RequestRemap)
    EXTI2_3_IRQHandler                       0x08001345   Thumb Code    36  n32g031_it.o(.text.EXTI2_3_IRQHandler)
    EXTI_ClrITPendBit                        0x08001371   Thumb Code     8  n32g031_exti.o(.text.EXTI_ClrITPendBit)
    EXTI_GetITStatus                         0x0800137d   Thumb Code    24  n32g031_exti.o(.text.EXTI_GetITStatus)
    EXTI_InitPeripheral                      0x08001395   Thumb Code    92  n32g031_exti.o(.text.EXTI_InitPeripheral)
    GPIO_ConfigEXTILine                      0x080013f1   Thumb Code    32  n32g031_gpio.o(.text.GPIO_ConfigEXTILine)
    GPIO_InitPeripheral                      0x08001411   Thumb Code   412  n32g031_gpio.o(.text.GPIO_InitPeripheral)
    GPIO_InitStruct                          0x080015c5   Thumb Code    24  n32g031_gpio.o(.text.GPIO_InitStruct)
    GPIO_ReadInputDataBit                    0x080015e1   Thumb Code    10  n32g031_gpio.o(.text.GPIO_ReadInputDataBit)
    GPIO_ResetBits                           0x080015eb   Thumb Code     4  n32g031_gpio.o(.text.GPIO_ResetBits)
    GPIO_SetBits                             0x080015ef   Thumb Code     4  n32g031_gpio.o(.text.GPIO_SetBits)
    GPIO_TogglePin                           0x080015f3   Thumb Code     8  n32g031_gpio.o(.text.GPIO_TogglePin)
    HardFault_Handler                        0x080015fb   Thumb Code     2  n32g031_it.o(.text.HardFault_Handler)
    IWDG_CntReload                           0x080015fd   Thumb Code     8  n32g031_iwdg.o(.text.IWDG_CntReload)
    IWDG_Enable                              0x08001609   Thumb Code     8  n32g031_iwdg.o(.text.IWDG_Enable)
    IWDG_ReloadKey                           0x08001615   Thumb Code     8  n32g031_iwdg.o(.text.IWDG_ReloadKey)
    IWDG_SetPrescalerDiv                     0x08001621   Thumb Code     8  n32g031_iwdg.o(.text.IWDG_SetPrescalerDiv)
    IWDG_WriteConfig                         0x0800162d   Thumb Code     8  n32g031_iwdg.o(.text.IWDG_WriteConfig)
    LPTIM_TIM6_IRQHandler                    0x08001639   Thumb Code    48  n32g031_it.o(.text.LPTIM_TIM6_IRQHandler)
    NMI_Handler                              0x08001675   Thumb Code     2  n32g031_it.o(.text.NMI_Handler)
    NVIC_Init                                0x08001679   Thumb Code    88  misc.o(.text.NVIC_Init)
    RCC_ConfigAdc1mClk                       0x080016e1   Thumb Code    20  n32g031_rcc.o(.text.RCC_ConfigAdc1mClk)
    RCC_ConfigAdcHclk                        0x080016f5   Thumb Code    16  n32g031_rcc.o(.text.RCC_ConfigAdcHclk)
    RCC_ConfigAdcPllClk                      0x08001705   Thumb Code    24  n32g031_rcc.o(.text.RCC_ConfigAdcPllClk)
    RCC_EnableAHBPeriphClk                   0x08001721   Thumb Code    24  n32g031_rcc.o(.text.RCC_EnableAHBPeriphClk)
    RCC_EnableAPB1PeriphClk                  0x0800173d   Thumb Code    24  n32g031_rcc.o(.text.RCC_EnableAPB1PeriphClk)
    RCC_EnableAPB2PeriphClk                  0x08001759   Thumb Code    24  n32g031_rcc.o(.text.RCC_EnableAPB2PeriphClk)
    RF_Init                                  0x08001775   Thumb Code   144  radio.o(.text.RF_Init)
    SystemCoreClockUpdate                    0x0800181d   Thumb Code    92  system_n32g031.o(.text.SystemCoreClockUpdate)
    SystemInit                               0x08001891   Thumb Code   184  system_n32g031.o(.text.SystemInit)
    TIM1_BRK_UP_TRG_COM_IRQHandler           0x08001969   Thumb Code    28  n32g031_it.o(.text.TIM1_BRK_UP_TRG_COM_IRQHandler)
    TIM3_IRQHandler                          0x08001985   Thumb Code   180  n32g031_it.o(.text.TIM3_IRQHandler)
    TIM8_BRK_UP_TRG_COM_IRQHandler           0x08001a45   Thumb Code    36  n32g031_it.o(.text.TIM8_BRK_UP_TRG_COM_IRQHandler)
    TIM8_CC_IRQHandler                       0x08001a6d   Thumb Code    72  n32g031_it.o(.text.TIM8_CC_IRQHandler)
    TIM_ClrIntPendingBit                     0x08001ac1   Thumb Code     6  n32g031_tim.o(.text.TIM_ClrIntPendingBit)
    TIM_ConfigInt                            0x08001ac7   Thumb Code    20  n32g031_tim.o(.text.TIM_ConfigInt)
    TIM_Enable                               0x08001adb   Thumb Code    16  n32g031_tim.o(.text.TIM_Enable)
    TIM_EnableCtrlPwmOutputs                 0x08001aed   Thumb Code    24  n32g031_tim.o(.text.TIM_EnableCtrlPwmOutputs)
    TIM_GetIntStatus                         0x08001b09   Thumb Code    20  n32g031_tim.o(.text.TIM_GetIntStatus)
    TIM_InitOc1                              0x08001b1d   Thumb Code    92  n32g031_tim.o(.text.TIM_InitOc1)
    TIM_InitOc2                              0x08001b79   Thumb Code   104  n32g031_tim.o(.text.TIM_InitOc2)
    TIM_InitOc3                              0x08001be5   Thumb Code   112  n32g031_tim.o(.text.TIM_InitOc3)
    TIM_InitOc4                              0x08001c59   Thumb Code    96  n32g031_tim.o(.text.TIM_InitOc4)
    TIM_InitTimeBase                         0x08001cc1   Thumb Code   236  n32g031_tim.o(.text.TIM_InitTimeBase)
    cInfraredSendValue                       0x08001db9   Thumb Code   416  devicesinfrared.o(.text.cInfraredSendValue)
    cListInit                                0x08001f61   Thumb Code    24  deviceslist.o(.text.cListInit)
    cListInsert                              0x08001f79   Thumb Code    80  deviceslist.o(.text.cListInsert)
    cSoftIICxReadDatas                       0x08001fcd   Thumb Code   752  devicessoftiic.o(.text.cSoftIICxReadDatas)
    cSoftIICxWriteDatas                      0x080022c1   Thumb Code   596  devicessoftiic.o(.text.cSoftIICxWriteDatas)
    cSoftTimerCreate                         0x08002519   Thumb Code    84  devicessofttimer.o(.text.cSoftTimerCreate)
    cSoftTimerMachine                        0x0800256d   Thumb Code   100  devicessofttimer.o(.text.cSoftTimerMachine)
    cSoftTimerReload                         0x080025d5   Thumb Code    40  devicessofttimer.o(.text.cSoftTimerReload)
    cSoftTimerReset                          0x080025fd   Thumb Code    54  devicessofttimer.o(.text.cSoftTimerReset)
    cSoftTimerSet                            0x08002633   Thumb Code    50  devicessofttimer.o(.text.cSoftTimerSet)
    cTimer3Init                              0x08002665   Thumb Code     4  devicestimer.o(.text.cTimer3Init)
    cTimer6Init                              0x08002669   Thumb Code    96  devicestimer.o(.text.cTimer6Init)
    cmt_spi3_init                            0x080026d9   Thumb Code   252  cmt_spi3.o(.text.cmt_spi3_init)
    cmt_spi3_read                            0x080027d5   Thumb Code   268  cmt_spi3.o(.text.cmt_spi3_read)
    cmt_spi3_recv                            0x080028e5   Thumb Code   300  cmt_spi3.o(.text.cmt_spi3_recv)
    cmt_spi3_send                            0x08002a15   Thumb Code   320  cmt_spi3.o(.text.cmt_spi3_send)
    cmt_spi3_write                           0x08002b59   Thumb Code   240  cmt_spi3.o(.text.cmt_spi3_write)
    enumKeyStateMachine                      0x08002c51   Thumb Code   296  deviceskey.o(.text.enumKeyStateMachine)
    enumQueueInit                            0x08002d7d   Thumb Code    60  devicesqueue.o(.text.enumQueueInit)
    enumQueuePopByte                         0x08002ddd   Thumb Code    50  devicesqueue.o(.text.enumQueuePopByte)
    enumQueuePopDatas                        0x08002e0f   Thumb Code    90  devicesqueue.o(.text.enumQueuePopDatas)
    enumQueuePushByte                        0x08002e69   Thumb Code   112  devicesqueue.o(.text.enumQueuePushByte)
    enumQueuePushDatas                       0x08002ed9   Thumb Code   136  devicesqueue.o(.text.enumQueuePushDatas)
    enumSoftTimerGetState                    0x08002f65   Thumb Code    42  devicessofttimer.o(.text.enumSoftTimerGetState)
    fADCGetValue                             0x08002f91   Thumb Code   236  devicesadc.o(.text.fADCGetValue)
    fBlowerACTemperatureGet                  0x08003085   Thumb Code   184  devicesblower.o(.text.fBlowerACTemperatureGet)
    fputc                                    0x08003169   Thumb Code     2  main.o(.text.fputc)
    lTimeGetStamp                            0x0800316d   Thumb Code    96  devicestime.o(.text.lTimeGetStamp)
    main                                     0x080031d5   Thumb Code   592  main.o(.text.main)
    qmp6989_compensation                     0x080034cd   Thumb Code   188  qmp6989.o(.text.qmp6989_compensation)
    qmp6989_get_calibration_param            0x08003589   Thumb Code   476  qmp6989.o(.text.qmp6989_get_calibration_param)
    qmp6989_initialization                   0x08003785   Thumb Code   188  qmp6989.o(.text.qmp6989_initialization)
    qmp6989_measure_P                        0x08003849   Thumb Code   176  qmp6989.o(.text.qmp6989_measure_P)
    qmp6989_measure_T                        0x080038fd   Thumb Code   160  qmp6989.o(.text.qmp6989_measure_T)
    ucSoftIICxReadByte                       0x080039a1   Thumb Code   408  devicessoftiic.o(.text.ucSoftIICxReadByte)
    uiKeyValueGet                            0x08003b39   Thumb Code   300  deviceskey.o(.text.uiKeyValueGet)
    vADCInit                                 0x08003c69   Thumb Code   452  devicesadc.o(.text.vADCInit)
    vBlowerACInit                            0x08003e39   Thumb Code   312  devicesblower.o(.text.vBlowerACInit)
    vBlowerACSpeedSet                        0x08003f81   Thumb Code    60  devicesblower.o(.text.vBlowerACSpeedSet)
    vBuzzInit                                0x08003fcd   Thumb Code   104  devicesbuzz.o(.text.vBuzzInit)
    vBuzzSetStatus                           0x08004041   Thumb Code    12  devicesbuzz.o(.text.vBuzzSetStatus)
    vBuzzStateMachine                        0x0800404d   Thumb Code   148  devicesbuzz.o(.text.vBuzzStateMachine)
    vHardCRCInit                             0x080040e5   Thumb Code    12  devicescrc.o(.text.vHardCRCInit)
    vInfraredInit                            0x080040f1   Thumb Code    88  devicesinfrared.o(.text.vInfraredInit)
    vInfraredOutputInit                      0x08004159   Thumb Code   312  devicesinfrared.o(.text.vInfraredOutputInit)
    vInputInit                               0x080042ad   Thumb Code    56  devicesinput.o(.text.vInputInit)
    vKeyInit                                 0x080042e5   Thumb Code    84  deviceskey.o(.text.vKeyInit)
    vLedInit                                 0x0800434d   Thumb Code   252  devicesled.o(.text.vLedInit)
    vLedStateMachine                         0x08004459   Thumb Code   344  devicesled.o(.text.vLedStateMachine)
    vPowerClose                              0x080045b5   Thumb Code   140  devicespower.o(.text.vPowerClose)
    vPowerInit                               0x08004641   Thumb Code   248  devicespower.o(.text.vPowerInit)
    vPowerOpen                               0x08004741   Thumb Code   140  devicespower.o(.text.vPowerOpen)
    vQMP6989ValueGet                         0x080047d9   Thumb Code    76  qmp6989.o(.text.vQMP6989ValueGet)
    vSoftIIC6998Init                         0x08004835   Thumb Code   120  devicessoftiic.o(.text.vSoftIIC6998Init)
    vSoftIICxSetSdaGPIOMode                  0x080048cd   Thumb Code    54  devicessoftiic.o(.text.vSoftIICxSetSdaGPIOMode)
    vSoftTimerBuzzCallbackFunction           0x08004905   Thumb Code    16  devicesbuzz.o(.text.vSoftTimerBuzzCallbackFunction)
    vSoftTimerInfraredCallbackFunction       0x08004919   Thumb Code   104  devicesinfrared.o(.text.vSoftTimerInfraredCallbackFunction)
    vSoftTimerKeyCallbackFunction            0x08004989   Thumb Code    24  deviceskey.o(.text.vSoftTimerKeyCallbackFunction)
    vSoftTimerLedCallbackFunction            0x080049a9   Thumb Code    84  devicesled.o(.text.vSoftTimerLedCallbackFunction)
    vTimerDelayInit                          0x08004a05   Thumb Code     2  devicesdelay.o(.text.vTimerDelayInit)
    vTimerDelayMs                            0x08004a09   Thumb Code    88  devicesdelay.o(.text.vTimerDelayMs)
    vTimerDelayUs                            0x08004a65   Thumb Code    78  devicesdelay.o(.text.vTimerDelayUs)
    vUserSystemInit                          0x08004ab3   Thumb Code    72  main.o(.text.vUserSystemInit)
    vWatchdogInit                            0x08004afd   Thumb Code    32  deviceswatchdog.o(.text.vWatchdogInit)
    vWatchdogReload                          0x08004b21   Thumb Code     8  deviceswatchdog.o(.text.vWatchdogReload)
    __0printf                                0x08004b29   Thumb Code    24  printfa.o(i.__0printf)
    __1printf                                0x08004b29   Thumb Code     0  printfa.o(i.__0printf)
    __2printf                                0x08004b29   Thumb Code     0  printfa.o(i.__0printf)
    __c89printf                              0x08004b29   Thumb Code     0  printfa.o(i.__0printf)
    printf                                   0x08004b29   Thumb Code     0  printfa.o(i.__0printf)
    __ARM_clz                                0x08004b49   Thumb Code    46  depilogue.o(i.__ARM_clz)
    __kernel_poly                            0x08004b77   Thumb Code   172  poly.o(i.__kernel_poly)
    __mathlib_dbl_divzero                    0x08004c25   Thumb Code    16  dunder.o(i.__mathlib_dbl_divzero)
    __mathlib_dbl_infnan                     0x08004c39   Thumb Code    10  dunder.o(i.__mathlib_dbl_infnan)
    __mathlib_dbl_invalid                    0x08004c43   Thumb Code    16  dunder.o(i.__mathlib_dbl_invalid)
    __scatterload_copy                       0x08004c53   Thumb Code    14  handlers.o(i.__scatterload_copy)
    __scatterload_null                       0x08004c61   Thumb Code     2  handlers.o(i.__scatterload_null)
    __scatterload_zeroinit                   0x08004c63   Thumb Code    14  handlers.o(i.__scatterload_zeroinit)
    __set_errno                              0x08004c71   Thumb Code     6  errno.o(i.__set_errno)
    fmaxf                                    0x08005529   Thumb Code    38  fmaxf.o(i.fmaxf)
    log                                      0x08005551   Thumb Code   790  log.o(i.log)
    puts                                     0x080058a5   Thumb Code    28  puts.o(i.puts)
    __mathlib_zero                           0x08005900   Data           8  qnan.o(.constdata)
    AHBPrescTable                            0x08005908   Data          16  system_n32g031.o(.rodata.AHBPrescTable)
    g_cmt2300aBasebandBank                   0x08005928   Data          29  radio.o(.rodata.g_cmt2300aBasebandBank)
    g_cmt2300aCmtBank                        0x08005945   Data          12  radio.o(.rodata.g_cmt2300aCmtBank)
    g_cmt2300aDataRateBank                   0x08005951   Data          24  radio.o(.rodata.g_cmt2300aDataRateBank)
    g_cmt2300aFrequencyBank                  0x08005969   Data           8  radio.o(.rodata.g_cmt2300aFrequencyBank)
    g_cmt2300aSystemBank                     0x08005971   Data          12  radio.o(.rodata.g_cmt2300aSystemBank)
    g_cmt2300aTxBank                         0x0800597d   Data          11  radio.o(.rodata.g_cmt2300aTxBank)
    Region$$Table$$Base                      0x080059f8   Number         0  anon$$obj.o(Region$$Table)
    Region$$Table$$Limit                     0x08005a18   Number         0  anon$$obj.o(Region$$Table)
    __stdout                                 0x20000000   Data           4  stdout.o(.data)
    SystemCoreClock                          0x20000008   Data           4  system_n32g031.o(.data.SystemCoreClock)
    g_typeListSoftTimerHead                  0x20000010   Data          24  devicessofttimer.o(.data.g_typeListSoftTimerHead)
    g_typeSoftTimerBuzzHanle                 0x20000040   Data          56  devicesbuzz.o(.bss..L_MergedGlobals)
    g_typeKeyData                            0x20000078   Data          32  deviceskey.o(.bss..L_MergedGlobals)
    g_typeSoftTimerKeyHanle                  0x20000098   Data          56  deviceskey.o(.bss..L_MergedGlobals)
    g_typeSoftTimerLedHanle                  0x200000d8   Data          56  devicesled.o(.bss..L_MergedGlobals)
    g_TypeQueueKeyInput                      0x20000110   Data          28  devicesqueue.o(.bss..L_MergedGlobals)
    g_TypeQueueInfraredOutput                0x2000012c   Data          28  devicesqueue.o(.bss..L_MergedGlobals)
    g_typeSoftTimerInfraredLeftHanle         0x20000190   Data          56  devicesinfrared.o(.bss..L_MergedGlobals)
    g_typeSoftTimerInfraredRightHanle        0x200001c8   Data          56  devicesinfrared.o(.bss..L_MergedGlobals)
    fQMP6989Pressure                         0x20000238   Data           4  main.o(.bss..L_MergedGlobals)
    fQMP6989Temperature                      0x2000023c   Data           4  main.o(.bss..L_MergedGlobals)
    fPTCTemperature                          0x20000240   Data           4  main.o(.bss..L_MergedGlobals)
    typeKeyData                              0x20000244   Data          32  main.o(.bss..L_MergedGlobals)
    st_fADCDatas                             0x20000264   Data          44  main.o(.bss..L_MergedGlobals)
    g_typeSoftTimerInfraredLeftFrontHanle    0x20000290   Data          56  devicesinfrared.o(.bss..L_MergedGlobals.1)
    g_typeSoftTimerInfraredRightFrontHanle   0x200002c8   Data          56  devicesinfrared.o(.bss..L_MergedGlobals.1)
    typeSoftTimerPrintf                      0x20000300   Data          56  main.o(.bss..L_MergedGlobals.8)
    typeSoftTimerBlower                      0x20000338   Data          56  main.o(.bss..L_MergedGlobals.8)
    g_SoftIIC6988Handle                      0x20000370   Data          32  devicessoftiic.o(.bss.g_SoftIIC6988Handle)
    g_lTimerHigh                             0x20000390   Data           8  devicestime.o(.bss.g_lTimerHigh)
    g_typeBlowerInfo                         0x20000398   Data          12  devicesblower.o(.bss.g_typeBlowerInfo)
    __initial_sp                             0x20000918   Data           0  startup_n32g031.o(STACK)



==============================================================================

Memory Map of the image

  Image Entry point : 0x080000c1

  Load Region LR_IROM1 (Base: 0x08000000, Size: 0x00005a48, Max: 0x00010000, ABSOLUTE)

    Execution Region ER_IROM1 (Exec base: 0x08000000, Load base: 0x08000000, Size: 0x00005a18, Max: 0x00010000, ABSOLUTE)

    Exec Addr    Load Addr    Size         Type   Attr      Idx    E Section Name        Object

    0x08000000   0x08000000   0x000000c0   Data   RO         1365    RESET               startup_n32g031.o
    0x080000c0   0x080000c0   0x00000000   Code   RO         2069  * .ARM.Collect$$$$00000000  mc_p.l(entry.o)
    0x080000c0   0x080000c0   0x00000004   Code   RO         2408    .ARM.Collect$$$$00000001  mc_p.l(entry2.o)
    0x080000c4   0x080000c4   0x00000004   Code   RO         2411    .ARM.Collect$$$$00000004  mc_p.l(entry5.o)
    0x080000c8   0x080000c8   0x00000000   Code   RO         2413    .ARM.Collect$$$$00000008  mc_p.l(entry7b.o)
    0x080000c8   0x080000c8   0x00000000   Code   RO         2415    .ARM.Collect$$$$0000000A  mc_p.l(entry8b.o)
    0x080000c8   0x080000c8   0x00000008   Code   RO         2416    .ARM.Collect$$$$0000000B  mc_p.l(entry9a.o)
    0x080000d0   0x080000d0   0x00000000   Code   RO         2418    .ARM.Collect$$$$0000000D  mc_p.l(entry10a.o)
    0x080000d0   0x080000d0   0x00000000   Code   RO         2420    .ARM.Collect$$$$0000000F  mc_p.l(entry11a.o)
    0x080000d0   0x080000d0   0x00000004   Code   RO         2409    .ARM.Collect$$$$00002712  mc_p.l(entry2.o)
    0x080000d4   0x080000d4   0x0000001c   Code   RO         1366    .text               startup_n32g031.o
    0x080000f0   0x080000f0   0x0000004c   Code   RO         2084    .text               mc_p.l(ldiv.o)
    0x0800013c   0x0800013c   0x00000024   Code   RO         2090    .text               mc_p.l(memseta.o)
    0x08000160   0x08000160   0x000000b2   Code   RO         2359    .text               mf_p.l(fadd.o)
    0x08000212   0x08000212   0x0000007a   Code   RO         2361    .text               mf_p.l(fmul.o)
    0x0800028c   0x0800028c   0x0000007c   Code   RO         2363    .text               mf_p.l(fdiv.o)
    0x08000308   0x08000308   0x00000164   Code   RO         2365    .text               mf_p.l(dadd.o)
    0x0800046c   0x0800046c   0x000000d0   Code   RO         2367    .text               mf_p.l(dmul.o)
    0x0800053c   0x0800053c   0x0000001c   Code   RO         2369    .text               mf_p.l(fcmple.o)
    0x08000558   0x08000558   0x0000001c   Code   RO         2371    .text               mf_p.l(fcmplt.o)
    0x08000574   0x08000574   0x0000001c   Code   RO         2373    .text               mf_p.l(fcmpgt.o)
    0x08000590   0x08000590   0x00000016   Code   RO         2375    .text               mf_p.l(fflti.o)
    0x080005a6   0x080005a6   0x0000000e   Code   RO         2377    .text               mf_p.l(ffltui.o)
    0x080005b4   0x080005b4   0x0000002c   Code   RO         2379    .text               mf_p.l(ffltl.o)
    0x080005e0   0x080005e0   0x00000032   Code   RO         2381    .text               mf_p.l(ffixi.o)
    0x08000612   0x08000612   0x00000040   Code   RO         2385    .text               mf_p.l(ffixl.o)
    0x08000652   0x08000652   0x00000028   Code   RO         2387    .text               mf_p.l(f2d.o)
    0x0800067a   0x0800067a   0x00000038   Code   RO         2389    .text               mf_p.l(d2f.o)
    0x080006b2   0x080006b2   0x0000003e   Code   RO         2427    .text               mc_p.l(uidiv_div0.o)
    0x080006f0   0x080006f0   0x00000060   Code   RO         2433    .text               mc_p.l(uldiv.o)
    0x08000750   0x08000750   0x00000020   Code   RO         2435    .text               mc_p.l(llshl.o)
    0x08000770   0x08000770   0x00000026   Code   RO         2437    .text               mc_p.l(llsshr.o)
    0x08000796   0x08000796   0x00000000   Code   RO         2446    .text               mc_p.l(iusefp.o)
    0x08000796   0x08000796   0x00000082   Code   RO         2447    .text               mf_p.l(fepilogue.o)
    0x08000818   0x08000818   0x000000be   Code   RO         2449    .text               mf_p.l(depilogue.o)
    0x080008d6   0x080008d6   0x00000002   PAD
    0x080008d8   0x080008d8   0x000000f0   Code   RO         2453    .text               mf_p.l(ddiv.o)
    0x080009c8   0x080009c8   0x0000002c   Code   RO         2455    .text               mf_p.l(dscalb.o)
    0x080009f4   0x080009f4   0x00000028   Code   RO         2457    .text               mf_p.l(dflti.o)
    0x08000a1c   0x08000a1c   0x00000040   Code   RO         2459    .text               mf_p.l(dfixul.o)
    0x08000a5c   0x08000a5c   0x00000028   Code   RO         2461    .text               mf_p.l(cdcmple.o)
    0x08000a84   0x08000a84   0x00000028   Code   RO         2463    .text               mf_p.l(cdrcmple.o)
    0x08000aac   0x08000aac   0x00000034   Code   RO         2465    .text               mf_p.l(fcmp4.o)
    0x08000ae0   0x08000ae0   0x00000024   Code   RO         2467    .text               mc_p.l(init.o)
    0x08000b04   0x08000b04   0x00000022   Code   RO         2469    .text               mc_p.l(llushr.o)
    0x08000b26   0x08000b26   0x0000002c   Code   RO           84    .text.ADC_ConfigClk  n32g031_adc.o
    0x08000b52   0x08000b52   0x0000005c   Code   RO           34    .text.ADC_ConfigRegularChannel  n32g031_adc.o
    0x08000bae   0x08000bae   0x00000010   Code   RO           20    .text.ADC_Enable    n32g031_adc.o
    0x08000bbe   0x08000bbe   0x00000014   Code   RO           22    .text.ADC_EnableDMA  n32g031_adc.o
    0x08000bd2   0x08000bd2   0x00000016   Code   RO           26    .text.ADC_EnableSoftwareStartConv  n32g031_adc.o
    0x08000be8   0x08000be8   0x00000018   Code   RO           68    .text.ADC_EnableTempSensor  n32g031_adc.o
    0x08000c00   0x08000c00   0x0000001c   Code   RO           66    .text.ADC_EnableTempSensorVrefint  n32g031_adc.o
    0x08000c1c   0x08000c1c   0x00000018   Code   RO           70    .text.ADC_EnableVrefint  n32g031_adc.o
    0x08000c34   0x08000c34   0x0000000a   Code   RO           82    .text.ADC_GetFlagStatusNew  n32g031_adc.o
    0x08000c3e   0x08000c3e   0x00000002   PAD
    0x08000c40   0x08000c40   0x00000044   Code   RO           16    .text.ADC_Init      n32g031_adc.o
    0x08000c84   0x08000c84   0x00000444   Code   RO         1881    .text.CMT2300A_AutoSwitchStatus  cmt2300a.o
    0x080010c8   0x080010c8   0x0000000c   Code   RO         1895    .text.CMT2300A_ConfigGpio  cmt2300a.o
    0x080010d4   0x080010d4   0x0000003c   Code   RO         1897    .text.CMT2300A_ConfigInterrupt  cmt2300a.o
    0x08001110   0x08001110   0x00000026   Code   RO         1951    .text.CMT2300A_ConfigRegBank  cmt2300a.o
    0x08001136   0x08001136   0x0000000c   Code   RO         1905    .text.CMT2300A_EnableInterrupt  cmt2300a.o
    0x08001142   0x08001142   0x00000024   Code   RO         1941    .text.CMT2300A_EnableLfosc  cmt2300a.o
    0x08001166   0x08001166   0x0000000a   Code   RO         1883    .text.CMT2300A_GoSleep  cmt2300a.o
    0x08001170   0x08001170   0x000000bc   Code   RO         1949    .text.CMT2300A_Init  cmt2300a.o
    0x0800122c   0x0800122c   0x00000008   Code   RO         1961    .text.CMT2300A_InitGpio  cmt2300a_hal.o
    0x08001234   0x08001234   0x00000016   Code   RO         1963    .text.CMT2300A_ReadReg  cmt2300a_hal.o
    0x0800124a   0x0800124a   0x0000000c   Code   RO         1935    .text.CMT2300A_SetFrequencyChannel  cmt2300a.o
    0x08001256   0x08001256   0x0000000c   Code   RO         1937    .text.CMT2300A_SetFrequencyStep  cmt2300a.o
    0x08001262   0x08001262   0x00000008   Code   RO         1965    .text.CMT2300A_WriteReg  cmt2300a_hal.o
    0x0800126a   0x0800126a   0x00000002   PAD
    0x0800126c   0x0800126c   0x00000074   Code   RO          202    .text.DMA_DeInit    n32g031_dma.o
    0x080012e0   0x080012e0   0x0000001c   Code   RO          208    .text.DMA_EnableChannel  n32g031_dma.o
    0x080012fc   0x080012fc   0x0000003c   Code   RO          204    .text.DMA_Init      n32g031_dma.o
    0x08001338   0x08001338   0x0000000a   Code   RO          224    .text.DMA_RequestRemap  n32g031_dma.o
    0x08001342   0x08001342   0x00000002   PAD
    0x08001344   0x08001344   0x0000002c   Code   RO         1387    .text.EXTI2_3_IRQHandler  n32g031_it.o
    0x08001370   0x08001370   0x0000000c   Code   RO          248    .text.EXTI_ClrITPendBit  n32g031_exti.o
    0x0800137c   0x0800137c   0x00000018   Code   RO          246    .text.EXTI_GetITStatus  n32g031_exti.o
    0x08001394   0x08001394   0x0000005c   Code   RO          236    .text.EXTI_InitPeripheral  n32g031_exti.o
    0x080013f0   0x080013f0   0x00000020   Code   RO          346    .text.GPIO_ConfigEXTILine  n32g031_gpio.o
    0x08001410   0x08001410   0x000001b4   Code   RO          322    .text.GPIO_InitPeripheral  n32g031_gpio.o
    0x080015c4   0x080015c4   0x0000001c   Code   RO          324    .text.GPIO_InitStruct  n32g031_gpio.o
    0x080015e0   0x080015e0   0x0000000a   Code   RO          326    .text.GPIO_ReadInputDataBit  n32g031_gpio.o
    0x080015ea   0x080015ea   0x00000004   Code   RO          336    .text.GPIO_ResetBits  n32g031_gpio.o
    0x080015ee   0x080015ee   0x00000004   Code   RO          334    .text.GPIO_SetBits  n32g031_gpio.o
    0x080015f2   0x080015f2   0x00000008   Code   RO          342    .text.GPIO_TogglePin  n32g031_gpio.o
    0x080015fa   0x080015fa   0x00000002   Code   RO         1375    .text.HardFault_Handler  n32g031_it.o
    0x080015fc   0x080015fc   0x0000000c   Code   RO          471    .text.IWDG_CntReload  n32g031_iwdg.o
    0x08001608   0x08001608   0x0000000c   Code   RO          475    .text.IWDG_Enable   n32g031_iwdg.o
    0x08001614   0x08001614   0x0000000c   Code   RO          473    .text.IWDG_ReloadKey  n32g031_iwdg.o
    0x08001620   0x08001620   0x0000000c   Code   RO          469    .text.IWDG_SetPrescalerDiv  n32g031_iwdg.o
    0x0800162c   0x0800162c   0x0000000c   Code   RO          467    .text.IWDG_WriteConfig  n32g031_iwdg.o
    0x08001638   0x08001638   0x0000003c   Code   RO         1381    .text.LPTIM_TIM6_IRQHandler  n32g031_it.o
    0x08001674   0x08001674   0x00000002   Code   RO         1373    .text.NMI_Handler   n32g031_it.o
    0x08001676   0x08001676   0x00000002   PAD
    0x08001678   0x08001678   0x00000068   Code   RO            2    .text.NVIC_Init     misc.o
    0x080016e0   0x080016e0   0x00000014   Code   RO          793    .text.RCC_ConfigAdc1mClk  n32g031_rcc.o
    0x080016f4   0x080016f4   0x00000010   Code   RO          797    .text.RCC_ConfigAdcHclk  n32g031_rcc.o
    0x08001704   0x08001704   0x0000001c   Code   RO          795    .text.RCC_ConfigAdcPllClk  n32g031_rcc.o
    0x08001720   0x08001720   0x0000001c   Code   RO          825    .text.RCC_EnableAHBPeriphClk  n32g031_rcc.o
    0x0800173c   0x0800173c   0x0000001c   Code   RO          829    .text.RCC_EnableAPB1PeriphClk  n32g031_rcc.o
    0x08001758   0x08001758   0x0000001c   Code   RO          827    .text.RCC_EnableAPB2PeriphClk  n32g031_rcc.o
    0x08001774   0x08001774   0x000000a8   Code   RO         1979    .text.RF_Init       radio.o
    0x0800181c   0x0800181c   0x00000074   Code   RO         1352    .text.SystemCoreClockUpdate  system_n32g031.o
    0x08001890   0x08001890   0x000000d8   Code   RO         1350    .text.SystemInit    system_n32g031.o
    0x08001968   0x08001968   0x0000001c   Code   RO         1377    .text.TIM1_BRK_UP_TRG_COM_IRQHandler  n32g031_it.o
    0x08001984   0x08001984   0x000000c0   Code   RO         1379    .text.TIM3_IRQHandler  n32g031_it.o
    0x08001a44   0x08001a44   0x00000028   Code   RO         1383    .text.TIM8_BRK_UP_TRG_COM_IRQHandler  n32g031_it.o
    0x08001a6c   0x08001a6c   0x00000054   Code   RO         1385    .text.TIM8_CC_IRQHandler  n32g031_it.o
    0x08001ac0   0x08001ac0   0x00000006   Code   RO         1254    .text.TIM_ClrIntPendingBit  n32g031_tim.o
    0x08001ac6   0x08001ac6   0x00000014   Code   RO         1088    .text.TIM_ConfigInt  n32g031_tim.o
    0x08001ada   0x08001ada   0x00000010   Code   RO         1084    .text.TIM_Enable    n32g031_tim.o
    0x08001aea   0x08001aea   0x00000002   PAD
    0x08001aec   0x08001aec   0x0000001c   Code   RO         1086    .text.TIM_EnableCtrlPwmOutputs  n32g031_tim.o
    0x08001b08   0x08001b08   0x00000014   Code   RO         1252    .text.TIM_GetIntStatus  n32g031_tim.o
    0x08001b1c   0x08001b1c   0x0000005c   Code   RO         1050    .text.TIM_InitOc1   n32g031_tim.o
    0x08001b78   0x08001b78   0x0000006c   Code   RO         1052    .text.TIM_InitOc2   n32g031_tim.o
    0x08001be4   0x08001be4   0x00000074   Code   RO         1054    .text.TIM_InitOc3   n32g031_tim.o
    0x08001c58   0x08001c58   0x00000068   Code   RO         1056    .text.TIM_InitOc4   n32g031_tim.o
    0x08001cc0   0x08001cc0   0x000000f8   Code   RO         1048    .text.TIM_InitTimeBase  n32g031_tim.o
    0x08001db8   0x08001db8   0x000001a8   Code   RO         1757    .text.cInfraredSendValue  devicesinfrared.o
    0x08001f60   0x08001f60   0x00000018   Code   RO         1547    .text.cListInit     deviceslist.o
    0x08001f78   0x08001f78   0x00000054   Code   RO         1549    .text.cListInsert   deviceslist.o
    0x08001fcc   0x08001fcc   0x000002f4   Code   RO         1840    .text.cSoftIICxReadDatas  devicessoftiic.o
    0x080022c0   0x080022c0   0x00000258   Code   RO         1838    .text.cSoftIICxWriteDatas  devicessoftiic.o
    0x08002518   0x08002518   0x00000054   Code   RO         1622    .text.cSoftTimerCreate  devicessofttimer.o
    0x0800256c   0x0800256c   0x00000068   Code   RO         1626    .text.cSoftTimerMachine  devicessofttimer.o
    0x080025d4   0x080025d4   0x00000028   Code   RO         1612    .text.cSoftTimerReload  devicessofttimer.o
    0x080025fc   0x080025fc   0x00000036   Code   RO         1610    .text.cSoftTimerReset  devicessofttimer.o
    0x08002632   0x08002632   0x00000032   Code   RO         1606    .text.cSoftTimerSet  devicessofttimer.o
    0x08002664   0x08002664   0x00000004   Code   RO         1684    .text.cTimer3Init   devicestimer.o
    0x08002668   0x08002668   0x00000070   Code   RO         1686    .text.cTimer6Init   devicestimer.o
    0x080026d8   0x080026d8   0x000000fc   Code   RO         1855    .text.cmt_spi3_init  cmt_spi3.o
    0x080027d4   0x080027d4   0x00000110   Code   RO         1863    .text.cmt_spi3_read  cmt_spi3.o
    0x080028e4   0x080028e4   0x00000130   Code   RO         1859    .text.cmt_spi3_recv  cmt_spi3.o
    0x08002a14   0x08002a14   0x00000144   Code   RO         1857    .text.cmt_spi3_send  cmt_spi3.o
    0x08002b58   0x08002b58   0x000000f8   Code   RO         1861    .text.cmt_spi3_write  cmt_spi3.o
    0x08002c50   0x08002c50   0x0000012c   Code   RO         1498    .text.enumKeyStateMachine  deviceskey.o
    0x08002d7c   0x08002d7c   0x00000060   Code   RO         1569    .text.enumQueueInit  devicesqueue.o
    0x08002ddc   0x08002ddc   0x00000032   Code   RO         1587    .text.enumQueuePopByte  devicesqueue.o
    0x08002e0e   0x08002e0e   0x0000005a   Code   RO         1591    .text.enumQueuePopDatas  devicesqueue.o
    0x08002e68   0x08002e68   0x00000070   Code   RO         1585    .text.enumQueuePushByte  devicesqueue.o
    0x08002ed8   0x08002ed8   0x0000008c   Code   RO         1589    .text.enumQueuePushDatas  devicesqueue.o
    0x08002f64   0x08002f64   0x0000002a   Code   RO         1620    .text.enumSoftTimerGetState  devicessofttimer.o
    0x08002f8e   0x08002f8e   0x00000002   PAD
    0x08002f90   0x08002f90   0x000000f4   Code   RO         1399    .text.fADCGetValue  devicesadc.o
    0x08003084   0x08003084   0x000000e4   Code   RO         1744    .text.fBlowerACTemperatureGet  devicesblower.o
    0x08003168   0x08003168   0x00000002   Code   RO         2049    .text.fputc         main.o
    0x0800316a   0x0800316a   0x00000002   PAD
    0x0800316c   0x0800316c   0x00000068   Code   RO         1662    .text.lTimeGetStamp  devicestime.o
    0x080031d4   0x080031d4   0x000002f8   Code   RO         2047    .text.main          main.o
    0x080034cc   0x080034cc   0x000000bc   Code   RO         2025    .text.qmp6989_compensation  qmp6989.o
    0x08003588   0x08003588   0x000001fc   Code   RO         2007    .text.qmp6989_get_calibration_param  qmp6989.o
    0x08003784   0x08003784   0x000000c4   Code   RO         2009    .text.qmp6989_initialization  qmp6989.o
    0x08003848   0x08003848   0x000000b4   Code   RO         2019    .text.qmp6989_measure_P  qmp6989.o
    0x080038fc   0x080038fc   0x000000a4   Code   RO         2015    .text.qmp6989_measure_T  qmp6989.o
    0x080039a0   0x080039a0   0x00000198   Code   RO         1836    .text.ucSoftIICxReadByte  devicessoftiic.o
    0x08003b38   0x08003b38   0x00000130   Code   RO         1502    .text.uiKeyValueGet  deviceskey.o
    0x08003c68   0x08003c68   0x000001d0   Code   RO         1397    .text.vADCInit      devicesadc.o
    0x08003e38   0x08003e38   0x00000148   Code   RO         1738    .text.vBlowerACInit  devicesblower.o
    0x08003f80   0x08003f80   0x0000004c   Code   RO         1740    .text.vBlowerACSpeedSet  devicesblower.o
    0x08003fcc   0x08003fcc   0x00000074   Code   RO         1414    .text.vBuzzInit     devicesbuzz.o
    0x08004040   0x08004040   0x0000000c   Code   RO         1416    .text.vBuzzSetStatus  devicesbuzz.o
    0x0800404c   0x0800404c   0x00000098   Code   RO         1418    .text.vBuzzStateMachine  devicesbuzz.o
    0x080040e4   0x080040e4   0x0000000c   Code   RO         1431    .text.vHardCRCInit  devicescrc.o
    0x080040f0   0x080040f0   0x00000068   Code   RO         1759    .text.vInfraredInit  devicesinfrared.o
    0x08004158   0x08004158   0x00000154   Code   RO         1763    .text.vInfraredOutputInit  devicesinfrared.o
    0x080042ac   0x080042ac   0x00000038   Code   RO         1775    .text.vInputInit    devicesinput.o
    0x080042e4   0x080042e4   0x00000068   Code   RO         1500    .text.vKeyInit      deviceskey.o
    0x0800434c   0x0800434c   0x0000010c   Code   RO         1521    .text.vLedInit      devicesled.o
    0x08004458   0x08004458   0x0000015c   Code   RO         1533    .text.vLedStateMachine  devicesled.o
    0x080045b4   0x080045b4   0x0000008c   Code   RO         1789    .text.vPowerClose   devicespower.o
    0x08004640   0x08004640   0x00000100   Code   RO         1787    .text.vPowerInit    devicespower.o
    0x08004740   0x08004740   0x00000098   Code   RO         1791    .text.vPowerOpen    devicespower.o
    0x080047d8   0x080047d8   0x0000005c   Code   RO         2031    .text.vQMP6989ValueGet  qmp6989.o
    0x08004834   0x08004834   0x00000098   Code   RO         1820    .text.vSoftIIC6998Init  devicessoftiic.o
    0x080048cc   0x080048cc   0x00000036   Code   RO         1822    .text.vSoftIICxSetSdaGPIOMode  devicessoftiic.o
    0x08004902   0x08004902   0x00000002   PAD
    0x08004904   0x08004904   0x00000014   Code   RO         1410    .text.vSoftTimerBuzzCallbackFunction  devicesbuzz.o
    0x08004918   0x08004918   0x00000070   Code   RO         1755    .text.vSoftTimerInfraredCallbackFunction  devicesinfrared.o
    0x08004988   0x08004988   0x00000020   Code   RO         1496    .text.vSoftTimerKeyCallbackFunction  deviceskey.o
    0x080049a8   0x080049a8   0x0000005c   Code   RO         1517    .text.vSoftTimerLedCallbackFunction  devicesled.o
    0x08004a04   0x08004a04   0x00000002   Code   RO         1467    .text.vTimerDelayInit  devicesdelay.o
    0x08004a06   0x08004a06   0x00000002   PAD
    0x08004a08   0x08004a08   0x0000005c   Code   RO         1473    .text.vTimerDelayMs  devicesdelay.o
    0x08004a64   0x08004a64   0x0000004e   Code   RO         1471    .text.vTimerDelayUs  devicesdelay.o
    0x08004ab2   0x08004ab2   0x00000048   Code   RO         2045    .text.vUserSystemInit  main.o
    0x08004afa   0x08004afa   0x00000002   PAD
    0x08004afc   0x08004afc   0x00000024   Code   RO         1727    .text.vWatchdogInit  deviceswatchdog.o
    0x08004b20   0x08004b20   0x00000008   Code   RO         1729    .text.vWatchdogReload  deviceswatchdog.o
    0x08004b28   0x08004b28   0x00000020   Code   RO         2331    i.__0printf         mc_p.l(printfa.o)
    0x08004b48   0x08004b48   0x0000002e   Code   RO         2451    i.__ARM_clz         mf_p.l(depilogue.o)
    0x08004b76   0x08004b76   0x000000ac   Code   RO         2405    i.__kernel_poly     m_ps.l(poly.o)
    0x08004c22   0x08004c22   0x00000002   PAD
    0x08004c24   0x08004c24   0x00000014   Code   RO         2391    i.__mathlib_dbl_divzero  m_ps.l(dunder.o)
    0x08004c38   0x08004c38   0x0000000a   Code   RO         2392    i.__mathlib_dbl_infnan  m_ps.l(dunder.o)
    0x08004c42   0x08004c42   0x00000010   Code   RO         2394    i.__mathlib_dbl_invalid  m_ps.l(dunder.o)
    0x08004c52   0x08004c52   0x0000000e   Code   RO         2473    i.__scatterload_copy  mc_p.l(handlers.o)
    0x08004c60   0x08004c60   0x00000002   Code   RO         2474    i.__scatterload_null  mc_p.l(handlers.o)
    0x08004c62   0x08004c62   0x0000000e   Code   RO         2475    i.__scatterload_zeroinit  mc_p.l(handlers.o)
    0x08004c70   0x08004c70   0x0000000c   Code   RO         2441    i.__set_errno       mc_p.l(errno.o)
    0x08004c7c   0x08004c7c   0x00000174   Code   RO         2338    i._fp_digits        mc_p.l(printfa.o)
    0x08004df0   0x08004df0   0x000006ec   Code   RO         2339    i._printf_core      mc_p.l(printfa.o)
    0x080054dc   0x080054dc   0x00000020   Code   RO         2340    i._printf_post_padding  mc_p.l(printfa.o)
    0x080054fc   0x080054fc   0x0000002c   Code   RO         2341    i._printf_pre_padding  mc_p.l(printfa.o)
    0x08005528   0x08005528   0x00000026   Code   RO         2067    i.fmaxf             m_ps.l(fmaxf.o)
    0x0800554e   0x0800554e   0x00000002   PAD
    0x08005550   0x08005550   0x00000354   Code   RO         2063    i.log               m_ps.l(log.o)
    0x080058a4   0x080058a4   0x00000020   Code   RO         2072    i.puts              mc_p.l(puts.o)
    0x080058c4   0x080058c4   0x00000004   PAD
    0x080058c8   0x080058c8   0x00000038   Data   RO         2064    .constdata          m_ps.l(log.o)
    0x08005900   0x08005900   0x00000008   Data   RO         2407    .constdata          m_ps.l(qnan.o)
    0x08005908   0x08005908   0x00000010   Data   RO         1355    .rodata.AHBPrescTable  system_n32g031.o
    0x08005918   0x08005918   0x00000010   Data   RO         2033    .rodata.cst16       qmp6989.o
    0x08005928   0x08005928   0x0000001d   Data   RO         1987    .rodata.g_cmt2300aBasebandBank  radio.o
    0x08005945   0x08005945   0x0000000c   Data   RO         1983    .rodata.g_cmt2300aCmtBank  radio.o
    0x08005951   0x08005951   0x00000018   Data   RO         1986    .rodata.g_cmt2300aDataRateBank  radio.o
    0x08005969   0x08005969   0x00000008   Data   RO         1985    .rodata.g_cmt2300aFrequencyBank  radio.o
    0x08005971   0x08005971   0x0000000c   Data   RO         1984    .rodata.g_cmt2300aSystemBank  radio.o
    0x0800597d   0x0800597d   0x0000000b   Data   RO         1988    .rodata.g_cmt2300aTxBank  radio.o
    0x08005988   0x08005988   0x00000016   Data   RO         1596    .rodata.str1.1      devicesqueue.o
    0x0800599e   0x0800599e   0x00000014   Data   RO         2034    .rodata.str1.1      qmp6989.o
    0x080059b2   0x080059b2   0x00000043   Data   RO         2051    .rodata.str1.1      main.o
    0x080059f5   0x080059f5   0x00000003   PAD
    0x080059f8   0x080059f8   0x00000020   Data   RO         2472    Region$$Table       anon$$obj.o


    Execution Region RW_IRAM1 (Exec base: 0x20000000, Load base: 0x08005a18, Size: 0x00000918, Max: 0x00002000, ABSOLUTE)

    Exec Addr    Load Addr    Size         Type   Attr      Idx    E Section Name        Object

    0x20000000   0x08005a18   0x00000004   Data   RW         2422    .data               mc_p.l(stdout.o)
    0x20000004   0x08005a1c   0x00000004   Data   RW         2442    .data               mc_p.l(errno.o)
    0x20000008   0x08005a20   0x00000004   Data   RW         1354    .data.SystemCoreClock  system_n32g031.o
    0x2000000c   0x08005a24   0x00000004   PAD
    0x20000010   0x08005a28   0x00000018   Data   RW         1628    .data.g_typeListSoftTimerHead  devicessofttimer.o
    0x20000028   0x08005a40   0x00000002   Data   RW         2035    .data.int16_tT      qmp6989.o
    0x2000002a   0x08005a42   0x00000006   PAD
    0x20000030        -       0x00000048   Zero   RW         1422    .bss..L_MergedGlobals  devicesbuzz.o
    0x20000078        -       0x00000058   Zero   RW         1508    .bss..L_MergedGlobals  deviceskey.o
    0x200000d0        -       0x00000040   Zero   RW         1538    .bss..L_MergedGlobals  devicesled.o
    0x20000110        -       0x0000007c   Zero   RW         1597    .bss..L_MergedGlobals  devicesqueue.o
    0x2000018c   0x08005a42   0x00000004   PAD
    0x20000190        -       0x00000070   Zero   RW         1765    .bss..L_MergedGlobals  devicesinfrared.o
    0x20000200        -       0x00000038   Zero   RW         2036    .bss..L_MergedGlobals  qmp6989.o
    0x20000238        -       0x00000058   Zero   RW         2053    .bss..L_MergedGlobals  main.o
    0x20000290        -       0x00000070   Zero   RW         1766    .bss..L_MergedGlobals.1  devicesinfrared.o
    0x20000300        -       0x00000070   Zero   RW         2054    .bss..L_MergedGlobals.8  main.o
    0x20000370        -       0x00000020   Zero   RW         1842    .bss.g_SoftIIC6988Handle  devicessoftiic.o
    0x20000390        -       0x00000008   Zero   RW         1670    .bss.g_lTimerHigh   devicestime.o
    0x20000398        -       0x0000000c   Zero   RW         1746    .bss.g_typeBlowerInfo  devicesblower.o
    0x200003a4        -       0x00000040   Zero   RW         1537    .bss.st_typeLedInfo  devicesled.o
    0x200003e4        -       0x00000084   Zero   RW         1595    .bss.st_ucQueueKeyInputBuff  devicesqueue.o
    0x20000468        -       0x000000b0   Zero   RW         1401    .bss.st_usADC1DmaDatas  devicesadc.o
    0x20000518        -       0x00000400   Zero   RW         1363    STACK               startup_n32g031.o


==============================================================================

Image component sizes


      Code (inc. data)   RO Data    RW Data    ZI Data      Debug   Object Name

      1472         66          0          0          0      11100   cmt2300a.o
        38          0          0          0          0       1498   cmt2300a_hal.o
      1400         20          0          0          0       5639   cmt_spi3.o
       708         20          0          0        176       4358   devicesadc.o
       632         76          0          0         12       5625   devicesblower.o
       300         28          0          0         72       3596   devicesbuzz.o
        12          0          0          0          0       7281   devicescrc.o
       172          4          0          0          0       3043   devicesdelay.o
       980         60          0          0        224       6411   devicesinfrared.o
        56          0          0          0          0       1720   devicesinput.o
       740         42          0          0         88       5249   deviceskey.o
       708         38          0          0        128       6206   devicesled.o
       108          4          0          0          0       2448   deviceslist.o
       548         20          0          0          0       2131   devicespower.o
       488         40         22          0        256       8175   devicesqueue.o
      1970         40          0          0         32       8518   devicessoftiic.o
       374          4          0         24          0       5174   devicessofttimer.o
       104          8          0          0          8       8001   devicestime.o
       116         16          0          0          0       3430   devicestimer.o
        44          4          0          0          0        644   deviceswatchdog.o
       834        168         67          0        200       3565   main.o
       104         16          0          0          0       3182   misc.o
       348         12          0          0          0      11947   n32g031_adc.o
       214         36          0          0          0       4195   n32g031_dma.o
       128          4          0          0          0       2974   n32g031_exti.o
       522         46          0          0          0       8196   n32g031_gpio.o
       452         56          0          0          0       3421   n32g031_it.o
        60         20          0          0          0       1661   n32g031_iwdg.o
       148         16          0          0          0      12809   n32g031_rcc.o
       758         32          0          0          0      33402   n32g031_tim.o
      1328         64         36          2         56      16487   qmp6989.o
       168         24         96          0          0       1271   radio.o
        28          8        192          0       1024        648   startup_n32g031.o
       332         56         16          4          0       2458   system_n32g031.o

    ----------------------------------------------------------------------
     16414       1048        464         36       2284     206463   Object Totals
         0          0         32          0          0          0   (incl. Generated)
        20          0          3          6          8          0   (incl. Padding)

    ----------------------------------------------------------------------

      Code (inc. data)   RO Data    RW Data    ZI Data      Debug   Library Member Name

        46          4          0          0          0        204   dunder.o
        38          0          0          0          0         72   fmaxf.o
       852         62         56          0          0        136   log.o
       172          0          0          0          0         76   poly.o
         0          0          8          0          0          0   qnan.o
         0          0          0          0          0          0   entry.o
         0          0          0          0          0          0   entry10a.o
         0          0          0          0          0          0   entry11a.o
         8          4          0          0          0          0   entry2.o
         4          0          0          0          0          0   entry5.o
         0          0          0          0          0          0   entry7b.o
         0          0          0          0          0          0   entry8b.o
         8          4          0          0          0          0   entry9a.o
        12          6          0          4          0         60   errno.o
        30          0          0          0          0          0   handlers.o
        36          8          0          0          0         68   init.o
         0          0          0          0          0          0   iusefp.o
        76          0          0          0          0         76   ldiv.o
        32          0          0          0          0         68   llshl.o
        38          0          0          0          0         68   llsshr.o
        34          0          0          0          0         68   llushr.o
        36          0          0          0          0        100   memseta.o
      2252         98          0          0          0        412   printfa.o
        32          4          0          0          0         68   puts.o
         0          0          0          4          0          0   stdout.o
        62          0          0          0          0         72   uidiv_div0.o
        96          0          0          0          0         84   uldiv.o
        40          2          0          0          0         68   cdcmple.o
        40          2          0          0          0         68   cdrcmple.o
        56          0          0          0          0         68   d2f.o
       356          4          0          0          0        140   dadd.o
       240          6          0          0          0         84   ddiv.o
       236          0          0          0          0        216   depilogue.o
        64         10          0          0          0         68   dfixul.o
        40          6          0          0          0         68   dflti.o
       208          6          0          0          0         88   dmul.o
        44          0          0          0          0         72   dscalb.o
        40          0          0          0          0         60   f2d.o
       178          0          0          0          0        108   fadd.o
        52          8          0          0          0         60   fcmp4.o
        28          0          0          0          0         60   fcmpgt.o
        28          0          0          0          0         60   fcmple.o
        28          0          0          0          0         60   fcmplt.o
       124          0          0          0          0         72   fdiv.o
       130          0          0          0          0        144   fepilogue.o
        50          0          0          0          0         60   ffixi.o
        64          0          0          0          0         68   ffixl.o
        22          0          0          0          0         68   fflti.o
        44          0          0          0          0         72   ffltl.o
        14          0          0          0          0         68   ffltui.o
       122          0          0          0          0         72   fmul.o

    ----------------------------------------------------------------------
      6122        238         64          8          0       3604   Library Totals
        10          4          0          0          0          0   (incl. Padding)

    ----------------------------------------------------------------------

      Code (inc. data)   RO Data    RW Data    ZI Data      Debug   Library Name

      1108         66         64          0          0        488   m_ps.l
      2756        124          0          8          0       1144   mc_p.l
      2248         44          0          0          0       1972   mf_p.l

    ----------------------------------------------------------------------
      6122        238         64          8          0       3604   Library Totals

    ----------------------------------------------------------------------

==============================================================================


      Code (inc. data)   RO Data    RW Data    ZI Data      Debug   

     22536       1286        528         44       2284     207671   Grand Totals
     22536       1286        528         44       2284     207671   ELF Image Totals
     22536       1286        528         44          0          0   ROM Totals

==============================================================================

    Total RO  Size (Code + RO Data)                23064 (  22.52kB)
    Total RW  Size (RW Data + ZI Data)              2328 (   2.27kB)
    Total ROM Size (Code + RO Data + RW Data)      23108 (  22.57kB)

==============================================================================

