:020000040800F2
:1000000018090020D500000875160008FB15000827
:1000100000000000000000000000000000000000E0
:10002000000000000000000000000000E1000008E7
:100030000000000000000000E3000008E5000008E8
:10004000E7000008E7000008E7000008E7000008F4
:10005000E7000008E7000008E70000084513000873
:10006000E7000008E7000008E7000008E7000008D4
:10007000E700000869190008E7000008E700000829
:1000800085190008E7000008451A00086D1A0008E5
:1000900039160008E7000008E7000008E70000083C
:1000A000E7000008E7000008E7000008E700000894
:1000B000E7000008E7000008E7000008E700000884
:1000C0000348854600F00CFD00480047D531000884
:1000D000180900200448804704480047FEE7FEE76F
:1000E000FEE7FEE7FEE7FEE791180008C100000802
:1000F000F8B500242546002904DA0E460124002123
:100100004042B141002B04DA1E4600235242012531
:10011000B34100F0EDFA8C4617461E46AC4203D0C0
:10012000002540428D41AC46002C02D000265742AB
:100130009E4161463A46334601B0F0BDD2B201E07D
:100140000270401C491EFBD270470022F6E710B532
:1001500013460A4604461946FFF7F0FF204610BD35
:10016000F8B502464A40D40F42004B0052085B08E3
:100170009A4202D20246084611464A0023D0C30DD5
:100180004A00DDB2120EAD1A202D35DA49020126E1
:10019000490AF6058A19002C00D0524220214F1B33
:1001A0001146B9402A411018C20D9A4221D0002CA4
:1001B00017D0012D08DCDA05801AD20F8019D2077A
:1001C000DBB200F0F0FAF8BDDA05801A0123400036
:1001D0001B06C01880185A428018CA0F10434900E5
:1001E00007E04908C2071143DA05801A8019400860
:1001F000801800F0D0FAF8BD61000122511A001BEE
:10020000F7E70122D2075140AAE70122D207504066
:10021000A6E7024670B54A40D30FDB0740002DD059
:100220004A002AD0010E140E000212020919400AD7
:10023000520A8418E50104465443000A120A2E04A7
:100240005043A4194219200CC543AA18120C0125C9
:10025000AD03521C521912047F39240400D0521CE1
:10026000104301D44000491EC2B20C06C009201838
:10027000401C4008802A02D003E0002070BD4008E6
:100280004000002900DA0020184370BD70B5024616
:100290004A40D50F40004A00ED07400852080028A8
:1002A00014D0002A12D0C40DD30D41020120C00584
:1002B0005202490A520AE41A091812187D3491426E
:1002C00001D3641C00E04900002C01DA002070BD5D
:1002D0000023914201D3891A0343400849000028B2
:1002E000F7D100290AD0914202D10121C90705E0C6
:1002F000914201D2012101E00121C943E005C0186A
:10030000401900F048FA70BDF0B50746084658405D
:1003100087B0C00F049048000E46590040084908B5
:10032000BC1A884105D2384631461E4617460B4650
:1003300002465800400810434CD0300D0390400551
:100340005900400D490D0590401A0290402872DA7C
:1003500018030121000B090508430190049800923D
:10036000002805D001995242002088410092019056
:10037000029840210A1A0199009800F0E9F905460F
:100380000C466B4607CB00F0F3F9C0197141039A94
:100390000E0D0023D71756401A467A40164344D014
:1003A000049A002A2DD0029A012A039A15DC12051C
:1003B000C01A914101263605001C7141D20F059EDD
:1003C000D2070093019202962A46234600F031FAA2
:1003D00007B0F0BD38463146FAE71605224A0F4607
:1003E000B218C01AB74101210905001C4F4100187D
:1003F0007F41114618187941E20F10436D1964418D
:1004000013E0E2076D0815436408C2071443039A1A
:1004100001261205C01A91413605001C7141CE0714
:10042000400830434908C01851412A46234600F08D
:10043000F3F9CDE7FFE7049801224000C117121A33
:1004400000238B4104983146C417381AA141EEE7C6
:1004500030B40124E407634030BC55E730B40124D4
:10046000E407614030BC4FE70000E0FFF0B51FB487
:1004700088B00B990998002448400999C00F490099
:1004800049080991C0070B990090490049080B9150
:1004900009990898A64608431CD00B990A98084366
:1004A00018D0099801244000420D4800410D0998D8
:1004B00024050003000B204309900B980003000B58
:1004C00020430B9050181C494018002201901446FC
:1004D000104605E0002001460DB0F0BD032801DA0A
:1004E000034600E003239C46C11A0AAE0AE05F00FF
:1004F00008ADED5B4F00F75B7D430027AA187C41F8
:10050000491C5B1E6145F2DD410004AB5A522104D7
:10051000120C0A43240C401C0828DFDB01980290CF
:100520000099704601910090059B049A07990698DE
:1005300000F07FF9D0E700000DFCFFFF0122D20799
:10054000002800DB101A002900DB511A814201D873
:1005500001207047002070470122D207002800DBED
:10056000101A002900DB511A814201D20120704784
:10057000002070470122D207002800DB101A002952
:1005800000DB511A814201D90120704700207047D9
:10059000C217C10F504010B54018CA07962300215A
:1005A00000F001F910BD10B500229623114600F0AD
:1005B000FAF810BD0A4670B5C917D30F4A40484033
:1005C0000025C11814466C41DA0796232046002CFA
:1005D00003D0B62300F0E7F870BD08460021F9E724
:1005E000C20F410040020123400ADB05D207090E79
:1005F000C0187F2901DA00207047962903DC962372
:10060000591AC84001E096398840002AF4D0404287
:10061000704710B54100C40F0A0E40020121400A84
:10062000C905E40740187F2A02DA0020014610BD00
:100630000021962A03DC96239A1AD04002E0963ACB
:1006400000F086F8002CF2D0002240428A41114688
:1006500010BDC20FD207400040080BD0C10D0723C8
:10066000DB01C91840020905400A1143C2084007CE
:1006700011437047002001467047CB0FDB0749004C
:1006800010B5490802460A4307D00A0D072409039A
:10069000E401090B121B002A01DC002010BDC90077
:1006A000440F0C43C100E018D205801800F073F825
:1006B00010BD70B50446002903D00020202201237C
:1006C00010E0002801D00020C043C046C0460DE025
:1006D0002546D5408D4205D30D469540641B1D46E9
:1006E000954040191546521E002DF1DC214670BD83
:1006F000F0B51FB40646002082B0054640240191A3
:1007000000901BE0019922460F46304600F0FAF9AE
:10071000049A059B801A994110D310461946224627
:1007200000F016F8361A8F41019722460120002169
:10073000009F00F00DF838184D4100902046641ECF
:100740000028DFDC019B00982946324607B0F0BD47
:1007500010B5202A04DB0146203A9140002010BD4C
:10076000914020239C1A0346E3401943904010BD5A
:1007700010B5202A06DBCB170846203A1041C117D6
:100780000B4306E00B461341D0402024A21A9140AF
:100790000843194610BD002904DA401C490001D164
:1007A00040084000704770B40024050C05D11024A7
:1007B000000402D1002921D01124050E01D100022C
:1007C0000834050F01D10001241D850F01D18000DF
:1007D000A41C002801DB4000641C002908D020254F
:1007E0002E1B0D46F540A14000D0012129430843AE
:1007F00001061B1B000ADB1D02D5002070BC7047E0
:10080000DB05181880180029F8DA401C4900F5D1DA
:1008100070BC40084000704710B5002B08DA002477
:10082000401C614192185B411A4301D140084000CD
:1008300010BDF0B51FB482B005460C0003D00846C9
:1008400004F082F902E004F07FF9203002460090C3
:1008500021462846FFF77CFF049B059A04460F4675
:1008600018431143084314D0184610431BD0009876
:1008700040210A1A1846059900F044F905460E462B
:10088000009A05990498FFF763FF084305D00120FB
:1008900004E02046394607B0F0BD0020C1170543EB
:1008A0000E432C43374300990E986305401A79058F
:1008B000E40A00220C43FD0A0A3002D5002001465A
:1008C000E9E70105101969410C9C0D9D001969416A
:1008D000FFF7A2FFDFE70000F0B50C465C4085B0F3
:1008E000E40FE40703944C00002664085900944682
:1008F000490802460296224321D062460A431ED08E
:100900006200570D4A000E032303550D01240246D1
:100910002C492405781B1B0B360B40182343264318
:10092000614600901C46501AB44103D30098401C05
:10093000009002E0921800985B41002803DA002042
:10094000014605B0F0BD0020012109050746864695
:1009500011E064461D46141BB54106D36546521B83
:10096000B341744607430C43A646CD0740084908E7
:10097000284392185B4105460D43EAD110461843BF
:1009800013D06046194650407140084306D0604677
:10099000101AB34106D20122002306E000220123EF
:1009A000DB0702E00122D243531000987446010590
:1009B000381C6141029C039D00196941FFF72CFF1F
:1009C000BFE70000FD03000070B54B005B08034368
:1009D0000BD04B005C0D002633466542B341D41763
:1009E000AD1AA34102DB0020014670BD120530188C
:1009F000514170BD0EB5C217C10F5040CA07401813
:100A00000021054B0293019200910A460B46FFF725
:100A100010FF03B000BD0000330400004A000903CA
:100A20000123090B1B0519430A4B10B5520D9A42BD
:100A300002DA0020014610BD064B34339A4203DC33
:100A40009A1A00F05FF810BD034BD218FFF780FE32
:100A500010BD0000FF030000CDFBFFFF10B5002913
:100A600004DB0124E40740428C412146002B04DBD7
:100A70001C460123DB075242A3418B4200D1824234
:100A800010BD000010B5002904DB0124E40740423A
:100A90008C412146002B04DB1C460123DB0752421C
:100AA000A341994200D1904210BD000002000A48C3
:100AB00000D4821A002900DB411A914204D301209C
:100AC0004007914200D10548EFF300810902090A6D
:100AD000014381F30088704700000080000000603F
:100AE000064C0125064E05E0E36807CC2B430C3C81
:100AF00098471034B442F7D3FFF7E6FAF8590008E4
:100B0000185A000810B5202A04DB0846203AD040C5
:100B1000002110BD0B46D340D0402024A21A9140A2
:100B20000843194610BD10B50C46002808D0012115
:100B3000204600F0E7FD0024204600F0DBFD10BD5C
:100B400001200002002100F0DDFD204600F0D2FD72
:100B500010BDF0B581B01446072901D8142200E079
:100B6000102286588F000729009400D9203F0F25B6
:100B70002C46BC40A643BB40334383504022D34362
:100B8000009C062C02D83C33383005E00C2C02D8EF
:100B90001E33343000E0303005226243D2189140D9
:100BA00095400268AA430A43026001B0F0BD4A1EA4
:100BB0009141826801239A435118816070474A1E0F
:100BC00091410902012212028368934359188160FE
:100BD0007047052212050029134600D10B46816893
:100BE0009143194381607047411E8841C00501212E
:100BF000C905094A13688B43181810607047C0462E
:100C0000411E8841C0050121C905034A13688B4371
:100C1000181810607047C04608080240411E8841FD
:100C2000400003490A6802239A431018086070477D
:100C300054080240406D0840411E88417047000042
:100C400010B501221202436893430A7812021A4334
:100C5000426082680A4B13404A688C681C43144304
:100C60004A785200224382600F221205036B93439D
:100C7000097B491EC9B209051943016310BDC0466D
:100C8000FDF7F1FFF0B581B00146801E01241E285A
:100C900027D826464000C0467844808840008744D4
:100CA0001E00E700E900E700E700E700EB00E700CF
:100CB000E700E700E700E700E700E700AD01E70035
:100CC000E700E700E700E700E700E700E700E700EC
:100CD000E700E700E700E700E700E700AC010226D5
:100CE0008CE1402900D0C3E0602000F0BAFA7F20F8
:100CF000C505284603F088FE612000F09BFA0F2608
:100D00003040062800D1D0E1284603F07DFE6A205D
:100D100000F090FA000700D5C7E1284603F074FE02
:100D2000612000F087FA3040062800D1BDE1284656
:100D300003F06AFE6A2000F07DFA000700D5B4E1F6
:100D4000284603F061FE612000F074FA3040062866
:100D500000D1AAE1284603F057FE6A2000F06AFAA3
:100D6000000700D5A1E1284603F04EFE612000F007
:100D700061FA3040062800D197E1284603F044FE8E
:100D80006A2000F057FA000700D58EE1284603F0EC
:100D90003BFE612000F04EFA3040062800D184E18D
:100DA000284603F031FE6A2000F044FA000700D51F
:100DB0007BE1284603F028FE612000F03BFA30403A
:100DC000062800D171E1284603F01EFE6A2000F0DB
:100DD00031FA000700D568E1284603F015FE6120CE
:100DE00000F028FA3040062800D15EE1284603F0E2
:100DF0000BFE6A2000F01EFA000700D555E12846D8
:100E000003F002FE612000F015FA3040062800D100
:100E10004BE1284603F0F8FD6A2000F00BFA0007CA
:100E200000D542E1284603F0EFFD612000F002FA10
:100E30003040062800D138E1284603F0E5FD6A205D
:100E400000F0F8F9000700D52FE1284603F0DCFD9B
:100E5000612000F0EFF93040062800D125E1284656
:100E600003F0D2FD6A2000F0E5F90007C40F1CE191
:100E70000026C3E00326C1E0602000F0F2F97F20E5
:100E8000C505284603F0C0FD612000F0D3F90F2608
:100E900030400124052800D107E1284603F0B4FDC5
:100EA0006D2000F0C7F9C00700D0FEE0284603F02F
:100EB000ABFD612000F0BEF93040052800D1F4E020
:100EC000284603F0A1FD6D2000F0B4F9C00700D062
:100ED000EBE0284603F098FD612000F0ABF93040CC
:100EE000052800D1E1E0284603F08EFD6D2000F0DA
:100EF000A1F9C00700D0D8E0284603F085FD6120A5
:100F000000F098F93040052800D1CEE0284603F0E3
:100F10007BFD6D2000F08EF9C00700D0C5E02846AB
:100F200003F072FD612000F085F93040052800D102
:100F3000BBE0284603F068FD6D2000F07BF9C00798
:100F400000D0B2E0284603F05FFD612000F072F9A6
:100F50003040052800D1A8E0284603F055FD6D205B
:100F600000F068F9C00700D09FE0284603F04CFD70
:100F7000612000F05FF93040052800D195E0284657
:100F800003F042FD6D2000F055F9C00700D08CE061
:100F9000284603F039FD612000F04CF93040052867
:100FA00000D182E0284603F02FFD6D2000F042F9C9
:100FB000C0077AD1284603F027FD612000F03AF9F6
:100FC0003040052871D0284603F01EFD6D2000F04A
:100FD00031F9C00769D1284603F016FD612000F001
:100FE00029F93040052860D0284603F00DFD6D201A
:100FF00000F020F90124044057E00426602000F0AE
:1010000030F97F20C505284603F0FEFC612000F082
:1010100011F90F273840864247D0284603F0F4FCE8
:10102000612000F007F9384086423ED0284603F0A0
:10103000EBFC612000F0FEF83840864235D02846AF
:1010400003F0E2FC612000F0F5F8384086422CD035
:10105000284603F0D9FC612000F0ECF838408642C5
:1010600023D0284603F0D0FC612000F0E3F838409C
:1010700086421AD0284603F0C7FC612000F0DAF857
:101080003840864211D0284603F0BEFC612000F0B3
:10109000D1F83840864208D0284603F0B5FC6120DC
:1010A00000F0C8F83840864202D1204601B0F0BDB9
:1010B000284603F0A9FC612000F0BCF83840311A42
:1010C0004842484101B0F0BD80B50146652000F0BE
:1010D000C8F880BDF0B581B00C4605461F200090D1
:1010E00005406626304600F0A5F8E0273840411953
:1010F000304600F0B6F8009804406725284600F016
:1011000099F838400119284600F0ABF801B0F0BD5D
:10111000F0B581B0002A0BD014460D4606460027D4
:10112000E95DB819C0B200F09CF87F1CBC42F7D151
:10113000012001B0F0BD80B50146682000F091F8B3
:1011400080BD70B51F26002801D1044600E0F4439D
:101150000D25284600F06EF830402043C1B22846E5
:1011600000F07FF870BD80B51020FFF78BFD80BDCB
:10117000F0B581B07F20FF2100F073F82A4803F01A
:1011800043FC00240220FFF77DFD3F2C02D8641CA5
:101190000028F7D06124204600F04CF8CF21014010
:1011A0001031204600F05DF86224204600F042F83D
:1011B0000146202000900143204600F052F80D2403
:1011C000204600F037F801461F273940204600F03E
:1011D00048F8662000F02EF806466D2000F02AF848
:1011E00004466A25284600F025F8B10049B2CE1120
:1011F0007040C0B2410804220A408006800F811866
:10120000284600F02EF8744060202040411E88419E
:101210002740A108009A1140791801436B2000F083
:1012200020F801B0F0BDC0460000A04180B501F03B
:1012300053FA80BD10B582B001ACFF212170214668
:1012400001F0C8FA207802B010BD80B501466320D5
:1012500000F007F880BD80B50146642000F001F879
:1012600080BD80B501F078FC80BD00000168224A95
:101270000A4002600021016041608160C160114943
:1012800088420BDD1049884210D01049884210D0A6
:101290000F49884215D10F2000040EE00D49884205
:1012A0000AD00D4988420CD1F02006E00F20000240
:1012B00003E00F20000300E00F2008490A68024302
:1012C0000A6070472F000240300002404400024094
:1012D00058000240080002401C0002400400024086
:1012E0000268002903D001210A43026070470249C5
:1012F0000A4002607047C046FEFF0000B0B50268B9
:101300000C4B13408C681C430D6A4B6A8A6A254358
:101310000C692C434D6925438C692C43CD692543C9
:101320001D4315430560CA6842600A6882604968C7
:10133000C160B0BD0F80FFFF002B00D118461061C7
:101340007047000080B5042000F018F800280AD08B
:10135000042000F00DF80448008904490883503047
:1013600088830020088080BD980300202434014039
:10137000014908607047C046140401408C490A685E
:101380000240531E9A4149690140481E8141114063
:101390000846704710B582798549002A1CD002683A
:1013A0000B6893430B604B6893434B6003790B438B
:1013B0001C6814431C6002688B6893438B60CB6885
:1013C0009343CB60407910280DD188681043886022
:1013D000C8681043C86010BD02790A4300681168EC
:1013E0008143116010BD084301681143016010BDC5
:1013F000B0B5FC220A40704BD4588907090F0F255D
:101400008D40AC43D4508840D1580143D150B0BD39
:10141000F0B58CB009900B910C68002C00D1C3E0A2
:1014200062490998884201D0052100E0022101911A
:1014300001462031029124300090012500260495B8
:1014400033460BE03A43E2600B9804682046E840DC
:10145000B61C6D1C1B1D002800D1A5E06F1E049A50
:10146000BA40204610400890F0D006940A930795A1
:101470000B9841684B1E112B2DD8C0467B441B791D
:101480005B009F4421082828282828282828282865
:101490002828282821083B07029800D500980590A5
:1014A00005681C230A9803400F249C40A5430B9811
:1014B00044699C402C430598046012290BD80123F1
:1014C0008B403C48034206D00B09BB400998446856
:1014D00094431C43446003230C461C40B4400393D4
:1014E000B3403546099E30689843204330600591EB
:1014F0000B998868A840F4689C430443F460C8686A
:10150000B840B36893430343B3600869B840F36AD3
:1015100093430343F3622E460598C000079D0A9B40
:10152000069C00D492E70C2119400F208840039AB2
:101530009743214BFA588243FB1809981F4CA0424D
:1015400006D01F4CA042019F194C03D1012701E096
:101550000027174C8F4017431F6022680B98416883
:10156000C80302D5089F3A4301E0089FBA430A9B8B
:101570002260626888030AD53A436260A268C802A2
:101580000AD4BA43A260E26888020BD55AE7BA438C
:101590006260A268C802F4D53A43A260E268880299
:1015A00000D54FE7BA434EE70CB0F0BD0010014044
:1015B000000401400400060008000140000801404A
:1015C000000C014010B50F21044A002301240CC077
:1015D000036044608360C16010BDC046FFFF00002F
:1015E00000690840411E88417047816270478161EF
:1015F000704742694A4042617047FEE7014908600E
:101600007047C046083000400A48014901607047F1
:10161000CCCC00000748014901607047AAAA00002D
:10162000014908607047C046043000400149086025
:101630007047C0460030004010B50B4C01212046D9
:1016400000F062FA00280ED00121204600F038FA9E
:101650000648416802680023054C121902604B419C
:10166000436000F083FF10BD001000409003002095
:101670001027000070470000B0B54278017849B2E9
:10168000002905D403230C469C43114BE31806E0C4
:101690000F230B40083B0324A3430E4C1B198C075C
:1016A000E40E9207120EA240FF25A5401C68AC4331
:1016B00014431C601F220A400121914080780028B9
:1016C00002D005480160B0BD04480160B0BDC0460D
:1016D00000E400E01CED00E000E100E080E100E05B
:1016E00008433F2189020D4A13688B43034313606B
:1016F0007047C04609490A680F239A4302430A60AB
:101700007047C046002900D108461F210901034A3D
:1017100013688B43034313607047C0462C1002408C
:10172000054A002903D01168014311607047116810
:10173000814311607047C04614100240054A0029D9
:1017400003D0116801431160704711688143116033
:101750007047C0461C100240054A002903D011689A
:101760000143116070471168814311607047C046A2
:101770001810024070B5FFF759FDFFF7F9FC00247F
:1017800020490C2520462A46FFF7C2FC1E49284660
:101790002A46FFF7BDFC18261C4908223046FFF7F1
:1017A000B7FC20251A4928463246FFF7B1FC3820FD
:1017B00018491D22FFF7ACFC552017490B22FFF7F3
:1017C000A7FC09263046FFF735FDF8210140891CAA
:1017D0003046FFF746FD2846FFF776FC0A20192120
:1017E000FFF778FC3920FFF7A6FC2046FFF7A9FC9D
:1017F000C820FFF730FD2046FFF727FDFFF7B3FCB9
:1018000070BDC04645590008715900086959000863
:1018100051590008285900087D59000810B54A4C54
:101820002068504901400122D003814219D0134B56
:10183000994217D010489203914213D121680903AD
:10184000090F48430E49401821688902890F491C35
:10185000FEF72FFF21680902890F491CFEF729FFB7
:1018600000E008480849086022681206120F074B7A
:101870009A5CD040086010BD00127A000840000059
:1018800000366E013075000008000020085900087D
:10189000F0B52D48021F136801210B431360036844
:1018A0002A4C1C4004601368294C1C4014608B05B2
:1018B00014689C4314600368264C1C400460072392
:1018C000DB028362BF231B044360234C2368102583
:1018D0001D43256013680B431360204D16680223D7
:1018E0006F1EAF4202D21E403D46F7D01568AD07CD
:1018F00000D4FEE70325EE432768374027602668BB
:101900001E43266004680460AC050668A6430660B2
:101910000468134E264006602C04066826430660C1
:101920000C061668264316601468A401FCD50268EC
:10193000AA43026002681A4302600A4A036813401D
:101940008C03A342FAD1F0BD041002400000FF2135
:10195000FFFFF6FEFFFF00FE00200240FF04000034
:10196000FFFFC0FE08C0000010B5D34C0121204687
:1019700000F0CAF8002803D00121204600F0A0F8AA
:1019800010BDC046B0B582B001A8002505702A4C34
:101990000121204600F0B8F800280DD00121204692
:1019A00000F08EF8254801A901F018FA002805D0AA
:1019B0000021204600F091F802B0B0BD01A80078E7
:1019C0007F210140491E0729F6D8C046794409798C
:1019D00049008F44040A031003030316ECE70006D2
:1019E000174814D4058102B0B0BD0006144813D4C2
:1019F000858102B0B0BD0006114812D4058202B044
:101A0000B0BD00060E4811D4858202B0B0BD018879
:101A10004908018102B0B0BD01884908818102B046
:101A2000B0BD01884908018202B0B0BD01884908F3
:101A3000818202B0B0BDC046000400402C010020ED
:101A40002C2C0140B0B5D94C01252046294600F088
:101A50005BF8002806D0E8030349086020462946C1
:101A600000F02EF8B0BDC046280C0140B0B5CF4CF8
:101A70000821204600F048F81021CD4300280DD061
:101A80000C4800680C49FEF767FD002803D10120CF
:101A9000C0030A490860284608302061102120460A
:101AA00000F032F8002804D00120C0030349086187
:101AB0002561B0BD98030020CDCCCC3D180C014071
:101AC000C94301617047002A03D082890A43828199
:101AD000704782898A43828170474A1E9141026819
:101AE00001239A43511801607047000010B5054A60
:101AF000002900D0511C4423C45A14400C43C45242
:101B000010BDC046FF7F000002690A40531E9A4183
:101B100080890840411E884110407047F0B5026A34
:101B200001239A430262026A02239A430B891343F8
:101B30004A881A4345680B88048B9C4EB04202D0F9
:101B40009B4EB0420ED10C26B2434E890427BE43B1
:101B500016438A88324303263602B5438E892E43C4
:101B6000CD89354345607325AC431C430483C98844
:101B700081860262F0BDC046F0B5026A10239A4326
:101B80000262026A20239A430B891B0113434A888D
:101B900012011A4345680C88038B844EB04202D070
:101BA000834EB04212D1C026B2434E8936010C4F4B
:101BB000374017438A8812013A430326B602B543D9
:101BC0008E89B6002E43CD89AD00354345603B4D2F
:101BD0002B4024021C430483C98801870262F0BDA4
:101BE000B0FF0F00F0B581B001221302046A9C43DC
:101BF00004625202036A93430A8914021C434A880E
:101C00001202224345680F88848B684EB04202D08E
:101C1000674EB04214D103260097B702BA434F89EA
:101C20003F020C4B3B40009F13438A8812021A4329
:101C300033039D438B891B012B43CD892D011D430C
:101C4000456073239C433C438483C9888187026237
:101C500001B0F0BD00FBFF00F0B582B0012213031C
:101C6000046A9C430462036A45684C8801940C89A9
:101C700000940F88868B4D4CA04202D04C4CA04261
:101C800005D19403A5438C89A4012C4300E02C4684
:101C900044600A4C26403C0234438483C988402473
:101CA000015351038B43009909031943019A12030D
:101CB0000A43026202B0F0BD002C0140FF8C00001C
:101CC00070B50368A54A904205D0384CA04202D0B6
:101CD000374CA0420CD17024A3434C881C43354B95
:101CE000984209D003231B029C43CB88234304E082
:101CF0001C46304B9842F5D1234603608B88838580
:101D00000B880385294CA04202D0294B984201D16F
:101D10000B7A0386012383820668904204D0A04296
:101D200002D0234DA84204D14D7A002D07D0DD0208
:101D30002E43904207D03546904215D119E0DD027E
:101D4000AE439042F7D11D03AE438D7A2D03354348
:101D5000CE7A002E04D05E033543904204D108E0D1
:101D60005E03B543904204D0A04202D0104CA04282
:101D700004D10C7B002C07D0DC03254305604468AC
:101D8000904207D0446070BDDC03A5430560446801
:101D90009042F7D1497B002903D019020C434460DB
:101DA00070BD19028C43446070BDC04600340140D0
:101DB000002C014000100040F0B581B00E460446F2
:101DC0007F20C0432043C5B2634F3846294601F007
:101DD0004BF83846294601F047F83846294601F0C5
:101DE00043F83846294601F03FF83846294601F0C5
:101DF0003BF83846294601F037F83846294601F0C5
:101E000033F83846294601F02FF83846214601F0CC
:101E10002BF83846214601F027F83846214601F0D4
:101E200023F83846214601F01FF83846214601F0D4
:101E30001BF83846214601F017F83846214601F0D4
:101E400013F83846214601F00FF83846214601F0D4
:101E50000BF83846214601F007F83846214601F0D4
:101E600003F83846214600F0FFFF3846214600F0CF
:101E7000FBFF3846214600F0F7FF3846214600F0C8
:101E8000F3FF3846214600F0EFFF3846294600F0C0
:101E9000EBFF3846214600F0E7FF300708D52E4F0C
:101EA0003846214600F0E0FF3846214600F0DCFFCE
:101EB000294F3846294600F0D7FF3846214600F022
:101EC000D3FF700708D5244F3846214600F0CCFFD9
:101ED0003846214600F0C8FF1F4F3846294600F01B
:101EE000C3FF3846214600F0BFFFB00708D51A4FA0
:101EF0003846214600F0B8FF3846214600F0B4FFCE
:101F0000154F3846294600F0AFFF3846214600F00D
:101F1000ABFFF00708D0104E3046214600F0A4FF7A
:101F20003046214600F0A0FF0B4E3046294600F017
:101F30009BFF3046214600F097FF3046214600F0D7
:101F400093FF3046214600F08FFF04480121FFF740
:101F5000C4FD002001B0F0BD2C01002000040040B1
:101F6000002806D0006040608260C360002040B25C
:101F70007047FF2040B2704770B5FF22002820D084
:101F800000291ED08A68CB680124E4430E4DA41AB0
:101F90009D4108D202680A60026851600160486091
:101FA000002250B270BD044640688568C668551B63
:101FB0001D46B541F7DA48606068016061600C60F9
:101FC000002250B270BDC046FFFFFF7FF0B585B064
:101FD0000293009203910446002004900A98019015
:101FE0006189606822699047E06902F03BFD2189C0
:101FF000206822699047E06902F034FD61896068D9
:1020000062699047E06902F02DFD218920686269CC
:102010009047E06902F026FD8025039E16E0618965
:10202000606862699047E06902F01CFD21892068C0
:1020300022699047E06902F015FD218920686269F4
:102040009047E06902F00EFD6D0805D03542E6D0FC
:10205000618960682269E5E7E26800272046394621
:1020600090476189606822699047E06902F0FAFC54
:102070002189206822699047E06902F0F3FC6189B8
:102080006068A26990470546626920682189904787
:10209000E06902F0E7FCE2680126204631469047FD
:1020A000002D08D0854802F0DDFC0498401C049007
:1020B0002028374694D18025009E16E0618960680B
:1020C00062699047E06902F0CDFC218920682269AD
:1020D0009047E06902F0C6FC218920686269904758
:1020E000E06902F0BFFC6D0805D03542E6D0618999
:1020F00060682269E5E7E26800212046904761892F
:10210000606822699047E06902F0ACFC2189206890
:1021100022699047E06902F0A5FC61896068A269C4
:10212000904700906269206821899047E06902F039
:1021300099FCE2680125204629469047618960683C
:1021400022699047E06902F08DFC218920682269AC
:102150009047E06902F086FC618960686269904797
:10216000E06902F07FFC2189206862699047E0699C
:1021700002F078FC039828430497BD1C074680268C
:1021800016E06189606862699047E06902F06AFC64
:102190002189206822699047E06902F063FC218967
:1021A000206862699047E06902F05CFC760805D01F
:1021B0003E42E6D0618960682269E5E7E268002175
:1021C000204690476189606822699047E06902F083
:1021D00049FC2189206822699047E06902F042FCAD
:1021E00061896068A2699047074662692068218911
:1021F0009047E06902F036FCE268012120469047F2
:102200000098002800D0049501980228029E1DDB4A
:10221000451E204601F0C4FB307062696068618928
:102220009047E06902F01EFC2189206822699047EE
:10223000E06902F017FC2189206862699047E06933
:1022400002F010FC6D1E761C002DE2D1204601F03C
:10225000A7FB30702269606861899047E06902F0ED
:1022600001FC2189206822699047E06902F0FAFBAD
:102270002189206862699047E06902F0F3FB618977
:10228000606862699047E06902F0ECFB2189206890
:1022900022699047E06902F0E5FB61896068226984
:1022A0009047E06902F0DEFB002F03D00498001D88
:1022B00005B0F0BD049805B0F0BDC0460000C842AE
:1022C000F0B585B0049300920F46044600200290BA
:1022D0000A9801906189606822699047E06902F07C
:1022E000C1FB2189206822699047E06902F0BAFBAE
:1022F0006189606862699047E06902F0B3FB2189F7
:10230000206862699047E06902F0ACFB802516E026
:102310006189606862699047E06902F0A3FB2189E6
:10232000206822699047E06902F09CFB21892068BF
:1023300062699047E06902F095FB6D0805D03D4267
:10234000E6D0618960682269E5E7E26800252046F9
:10235000294690476189606822699047E06902F0E8
:1023600081FB2189206822699047E06902F07AFBAD
:1023700061896068A2699047039062692068218939
:102380009047E06902F06EFBE26801262046314684
:1023900090470398002808D05E4802F063FB02983B
:1023A000401C02902028354694D12E468025009F5F
:1023B00016E06189606862699047E06902F052FB4B
:1023C0002189206822699047E06902F04BFB21894E
:1023D000206862699047E06902F044FB6D0805D00F
:1023E0003D42E6D0618960682269E5E7E26800273E
:1023F0002046394690476189606822699047E069C4
:1024000002F030FB2189206822699047E06902F0E0
:1024100029FB61896068A269904705466269206866
:1024200021899047E06902F01DFBE2680121204606
:102430009047002D00D0B61C04980199002920D1A6
:102440006189606862699047E06902F00BFB21894D
:10245000206822699047E06902F004FB61896068A6
:1024600022699047E06902F0FDFA70B205B0F0BD54
:102470000420039E064304987F1C401C01998F4250
:10248000DED0039604900578802616E061896068A6
:1024900062699047E06902F0E5FA218920682269C3
:1024A0009047E06902F0DEFA21892068626990476E
:1024B000E06902F0D7FA760805D02E42E6D06189AD
:1024C00060682269E5E7E26800212046904761895B
:1024D000606822699047E06902F0C4FA21892068A7
:1024E00022699047E06902F0BDFA61896068A269DB
:1024F000904705466269206821899047E06902F0AB
:10250000B1FAE268012120469047002DB0D104982D
:10251000039EB1E70000C842F0B581B0002820D08A
:102520001D461646044607980090069F00F01EFEC2
:10253000E560A660277482192260694161602546C2
:10254000183528460B46FFF70BFD0646204829465E
:10255000FFF712FD00992163A462304340B201B03D
:10256000F0BDFF2040B201B0F0BDC04670B5184DBF
:102570006E68AE4206D128E0FE21084020747668DD
:10258000AE4222D03469002CF9D0207CC007F6D0AE
:1025900000F0ECFD0CCC083C801A9941EFDB216B7C
:1025A000002901D020468847207CC106E4D50121BE
:1025B00008432074A068216808182060E0686168FA
:1025C000414161607668AE42DCD1002070BDC046FA
:1025D0001000002000280ED0017C01220A438168EF
:1025E0000368591801600274C16842684A41426038
:1025F000002040B27047FF2040B27047F0B581B074
:10260000002812D00446057C8668C76800F0AEFD3D
:10261000E760A66001222A43227480192060794174
:102620006160002040B201B0F0BDFF2040B201B0B7
:10263000F0BDF0B581B0002810D01C461646054606
:10264000069F00F093FDEC60AE602F748019286047
:1026500061416960002040B201B0F0BDFF2040B28E
:1026600001B0F0BD00207047F0B585B001AF002487
:10267000BC8103946E46B470348010200125294635
:10268000FFF75CF87C80104800681049FEF711F8ED
:10269000401E38800E4802900E483946FFF710FB66
:1026A000B570142030803046FEF7E6FF094E304604
:1026B00029462A46FFF707FA30462946FFF70DFA62
:1026C000204605B0F0BDC0460800002040420F0083
:1026D0000F27000000100040F0B589B00C2601243F
:1026E00030462146FFF738F8002006900490054652
:1026F000802003900594C64F03A93846FEF788FE54
:10270000304602962146FFF727F8069504954020AB
:102710000390059403A93846FEF77AFEE703704854
:102720003946FEF764FF30462146FFF715F8069557
:10273000019504940397059403A9694E3046FEF76A
:1027400067FE30463946FEF752FF0827B048394643
:10275000FEF74BFF029E30462146FEF7FDFF069531
:1027600004940397059403A9FA4D2846FEF750FEFA
:1027700028463946FEF739FF102728463946FEF726
:1027800036FF30462146FEF7E7FF019D069504948B
:102790000397059403A9EF4E3046FEF739FE304605
:1027A0003946FEF724FF202730463946FEF71FFF43
:1027B00002982146FEF7D0FF0695049403970594EE
:1027C00003A93046FEF724FE30463946FEF70FFFD8
:1027D00009B0F0BDF0B58FB007910690DD4810212B
:1027E00007460C460591FEF702FF0C2008900126D3
:1027F0003146FEF7B1FF00200C90054601900A9685
:1028000009940B9609A93846FEF702FE08243846BB
:1028100021460394FEF7E9FE089F38463146FEF74D
:102820009BFF0C950A9609940B9609A9C94D284659
:10283000FEF7EEFD28462146FEF7D7FE2024284667
:1028400021460494FEF7D3FE38463146FEF784FF56
:10285000019D0C950A9609940B9609A9FA48FEF772
:10286000D7FDF9482146FEF7C2FEF1030291F74871
:10287000FEF7BBFE80210698084300F0CBF83846EF
:102880003146FEF769FF0C950A95059F09970B964F
:1028900009A9ED4C2046FEF7BBFD00F023F807998F
:1028A000087020460399FEF7A0FEE8480299FEF75B
:1028B0009EFE20463946FEF79AFE08983146FEF7FE
:1028C0004BFF0C950A9509970B9609A92046FEF730
:1028D0009FFD20460499FEF78AFE0FB0F0BDC0466A
:1028E00000080140F0B587B0D74C08262046314695
:1028F000FEF77BFE20463146FEF779FE1027204684
:102900003946FEF76DFE059020463146FEF76DFE16
:1029100020463146FEF76BFE20463946FEF760FE44
:10292000039020463146FEF760FE20463146FEF712
:102930005EFE20463946FEF753FE0490204631469F
:10294000FEF753FE20463146FEF751FE204639463B
:10295000FEF746FE029020463146FEF746FE204630
:102960003146FEF744FE20463946FEF739FE019017
:1029700020463146FEF739FE20463146FEF737FE47
:1029800020463946FEF72CFE054620463146FEF726
:102990002CFE20463146FEF72AFE20460697394691
:1029A000FEF71EFE074620463146FEF71EFE204675
:1029B0003146FEF71CFE0399481E81410598002808
:1029C00001D00E2000E00C2040188000049A511E17
:1029D0008A4151004018029A511E8A418018800095
:1029E000019A511E8A4151004018691E8D414019BB
:1029F0008000791E8F417900451820460699FEF720
:102A0000EFFD411E88412818C0B207B0F0BDC04696
:102A1000000C014070B505468B4C08212046FEF79E
:102A2000E4FD68B21021002803D42046FEF7DDFD46
:102A300002E02046FEF7DBFD082620463146FEF781
:102A4000D6FD20463146FEF7D0FD1021680603D49E
:102A50002046FEF7CAFD02E02046FEF7C8FD082624
:102A600020463146FEF7C3FD20463146FEF7BDFD48
:102A70001021A80603D42046FEF7B7FD02E0204649
:102A8000FEF7B5FD082620463146FEF7B0FD20468C
:102A90003146FEF7AAFD1021E80603D42046FEF7D2
:102AA000A4FD02E02046FEF7A2FD0826204631469E
:102AB000FEF79DFD20463146FEF797FD10212807C1
:102AC00003D42046FEF791FD02E02046FEF78FFD7D
:102AD000082620463146FEF78AFD20463146FEF79D
:102AE00084FD1021680703D42046FEF77EFD02E036
:102AF0002046FEF77CFD082620463146FEF777FD8E
:102B000020463146FEF771FD1021A80703D4204668
:102B1000FEF76BFD02E02046FEF769FD0826204621
:102B20003146FEF764FD20463146FEF75EFD10217A
:102B3000E80707D12046FEF758FD08212046FEF79A
:102B400056FD70BD2046FEF752FD08212046FEF7D7
:102B50004EFD70BD000C0140F0B58DB006910490A3
:102B60003948102107460D460591FEF740FD0C241B
:102B7000012620463146FEF7EFFD002000900A9026
:102B800008960795099607A93846FEF741FC0825DF
:102B9000384629460295FEF728FD03942046314623
:102BA000FEF7DAFD009F0A9708960795099607A990
:102BB0002548FEF72DFC24482946FEF716FD202562
:102BC000214829460195FEF712FD20463146FEF7C1
:102BD000C3FD0A9708960795099607A91A4C20463F
:102BE000FEF716FC20462946FEF701FDF4031748C0
:102BF0002146FEF7FAFC7F2104980840FFF70AFF00
:102C00000698FFF707FF104D28460299FEF7EDFCE6
:102C10000E482146FEF7EBFC2846059C2146FEF7B0
:102C2000E6FC03983146FEF797FD0A97089707944C
:102C3000099607A92846FEF7EBFB28460199FEF7FF
:102C4000D6FC0DB0F0BDC046000C014000080140AC
:102C5000F0B581B0002500282BD00446C06980471C
:102C600006462068002E22D0864225D100F07EFA4A
:102C700000F07CFA7D22D20000252B46FDF738FAC1
:102C8000218B0822D141042913D8C04679440979FF
:102C900049008F4402505B0E6700A168401A322839
:102CA00007D3012005022583A8B201B0F0BD00289A
:102CB00019D1A8B201B0F0BD0146314081420ED118
:102CC00000F054FA00232383E36066607D22D20083
:102CD000FDF70EFAA0602660A8B201B0F0BD014673
:102CE0003143814214D100F041FA276826607D22E9
:102CF000D2000023FDF7FCF92061208B0425054359
:102D00002583B743E0683843E060A8B201B0F0BD66
:102D100000F02CFA66607D22D2000023FDF7E8F96E
:102D2000A06020612068B043E1680143E160266053
:102D3000A8B201B0F0BDA168401A00097D28B8D33F
:102D4000012045022583A8B201B0F0BDA168411A57
:102D5000094A9142ADD36061012080022083A8B26C
:102D600001B0F0BD6169411A9629A2D360610120CA
:102D70008502A8B201B0F0BD88130000F0B534227E
:102D80000D490020885481230C4A0DA64125087660
:102D90000F463837144681340E604A608C60CA6032
:102DA0000A614B610A46793208A3CB610F624A621D
:102DB0008F62CF620D63F0BD10010020E40300209C
:102DC0004B657920496E707574000000496E66721B
:102DD00061726564204C6566740000000222002860
:102DE00011D04368002B0ED0C26803699A420CD000
:102DF000531CC36012780A708268C168914200D384
:102E00004168C1600022104670470320704770B5CA
:102E100003460220002B26D05C68002C23D0012022
:102E2000002920D0DC681D69AC4205D92D1B5E69E4
:102E3000AD19954217DB02E02D1B954213DB0020F4
:102E4000012A10DB521C04E0491CDC60521E012ADE
:102E500009DD651CDD6024780C709D68DC68AC427F
:102E6000F2D35C68F0E770BD70B504460220002C18
:102E700030D06268002A2DD00D46E0682169884272
:102E800011D0A6684B1CB34200D3134600228342E4
:102E900010460FD12168324801F046FE207E0128FD
:102EA00005D1042070BD00220146104602E02169D0
:102EB000042001224B1C23610D70A16823698B4201
:102EC00000D363682361002A04D05A1C8A4200D3CD
:102ED0006268E26070BDC046F0B581B00446022071
:102EE000002C3BD00E466168002937D01546E068BB
:102EF0002169884205D9C9430F18AF4207DB00207A
:102F00000DE0C943081861694718AF42F7DA216834
:102F1000134801F009FE217E042001291ED00097EC
:102F2000012D11DB691C226904E0761C2261491E17
:102F3000012909DD3378571C276113702269A368C2
:102F40009A42F2D36268F0E70099A94206DA216951
:102F5000491CA268914200D36168E16001B0F0BDF4
:102F60008859000810B5002805D00446007CC00729
:102F700003D1002010BD082010BD00F0F7F80CCCE4
:102F8000801A994101DB022010BD012010BD000014
:102F9000F0B585B00A2802D9002005B0F0BD400088
:102FA00036490A5A0F18F88A8242014600D3114660
:102FB0000392BA8D9142134600D30B4604924221EC
:102FC0007E5AB342344600D31C465821795A8C426B
:102FD0000D4600D325466E22BA5A9542144600D3B8
:102FE0002C468423FB5A9C421D4600D3254602965C
:102FF0009A243F5BBD423C4600D32C460194039E7D
:103000003418049D641986421CD9029EA419A84252
:103010001DDD6018B5421EDD80188E42019C1FDD4B
:10302000C018914220DDC0199A4221DD001BBB422D
:1030300000DC1F46C01BFDF7B6FA1149FDF7E9F8A1
:1030400005B0F0BD3046029EA419A842E1DC054659
:103050006018B542E0DC2E4680188E42019CDFDC11
:103060003146C0189142DEDC0A46C0199A42DDDCC6
:103070001346001BBB42DDDCDBE7C04668040020D2
:103080009988093EB0B50020FFF782FF04462B491E
:10309000FDF7BFF805462A492046FDF7BAF8044671
:1030A00028492846FDF75CF801462046FDF7EEF872
:1030B00004462549FDF742FA002814D12046FDF7C1
:1030C000C8FA02F045FA07225207254BFDF7CEF960
:1030D00002460B460320840722492046FDF7B8F933
:1030E000FDF7CBFAB0BD19492046FDF727FA054692
:1030F0002046FDF7AEFA02F02BFA0122002D0DD189
:103100005407154B2246FDF7B1F902460B46134909
:103110002046FDF79DF9FDF7B0FAB0BDD2070C4B84
:10312000FDF7A4F902460B4603204407094920464F
:10313000FDF78EF9FDF7A1FAB0BDC0466F1283BA54
:1031400000002041333353400000614500002F440C
:103150003D2A4340B8D275405CCF3D408553724014
:10316000A3B03640CC546D4070470000B0B586B077
:10317000002005900490039002900190012100919D
:103180000299039A019B5340009A4A401A4318D06F
:103190000E490F4A0B684C6803940293039B029CF0
:1031A000158864190494434105930B684C68019495
:1031B0000093029B039C019D6540009C5C402C4356
:1031C000E8D10599049806B0B0BDC0469003002030
:1031D0002410004084B0FEF721FB01242046214644
:1031E000FEF7BAFA01F065FC00948E4E8E4A002577
:1031F00030462B46FFF71DFA0094304638308B4A94
:1032000003902B46FFF715FA894F3D460C35029483
:1032100009E089A002F046FB0398FFF7EFF90120CF
:10322000014600F00DFF202282482946FFF7EFFDFE
:10323000002820D1B88C6102884210D04121890039
:103240008842ECD1B869302800D1DFE0202800D1D5
:10325000E0E01028E3D1502001F0ACF9DFE7386955
:103260003028D6D0202800D1D8E01028D4D1502042
:1032700001F066FAD0E70398FFF774FE022808D140
:103280000398FFF7BBF9002000F07AFE502001F010
:1032900091F93046FFF766FE022800D0B3E03046D1
:1032A000FFF798F97DA002F0FDFA00263046FFF7FF
:1032B0006FFEF862FDF7CDF902460B467B483146BA
:1032C00001F032FC01263046FFF762FE3863FDF75D
:1032D000C0F902460B467548314601F025FC02262E
:1032E0003046FFF755FE7863FDF7B3F902460B460B
:1032F0006E48314601F018FC03263046FFF748FEC1
:10330000B863FDF7A6F902460B466848314601F05E
:103310000BFC04263046FFF73BFEF863FDF799F9F6
:1033200002460B466148314601F0FEFB0526304659
:10333000FFF72EFE3864FDF78CF902460B465B481A
:10334000314601F0F1FB06263046FFF721FE786496
:10335000FDF77FF902460B465448314601F0E4FB85
:1033600007263046FFF714FEB864FDF772F90246EF
:103370000B464E48314601F0D7FB08263046FFF792
:1033800007FEF864FDF765F902460B4647483146EB
:1033900001F0CAFB09263046FFF7FAFD3865FDF754
:1033A00058F902460B464148314601F0BDFB0A265A
:1033B0003046FFF7EDFD7865FDF74BF902460B4609
:1033C0003A48314601F0B0FB391D384601F004FAA5
:1033D0007868FDF73EF906460C463868FDF739F97E
:1033E000024600960F4E0194029C31480B4601F0B4
:1033F0009BFBFFF747FEB860FDF72BF902462DA0B7
:103400000B4601F091FB01F08BFB0CE716A002F0DC
:1034100049FA04E7002000F0B3FD00E7114800F08E
:10342000AFFDF9E60003002040420F0080969800AF
:1034300038020020100100204B45595F4149525F7E
:10344000445259494E47207C204B45595F445553BF
:10345000545F484F4F44206B65794C6F6E672E0D5B
:1034600000000000CDCC4C3E4B45595F4149525FB6
:10347000445259494E47207C204B45595F4455538F
:10348000545F484F4F44206B657953686F727420C6
:103490007C206B65794375742E0D000048656C6C5B
:1034A0006F2041524159212E0D000000B2590008F1
:1034B000C15900086650544354656D70657261745B
:1034C0007572653A20252E32660D0A00F0B585B07A
:1034D0001E4614460F46FDF75BF805467720C105EA
:1034E0002846FCF796FE306028462946FCF791FEF8
:1034F000064604903846FDF74BF8039020692946AC
:10350000FCF787FE029060693146FCF782FE01906D
:10351000E0692946FCF77DFE0746206A3146FCF744
:1035200078FE0646A1693846FCF71AFE3146FCF7DC
:1035300017FE039F3946FCF76CFE0646E1680298C9
:10354000FCF70EFE0199FCF70BFE3146FCF708FE76
:103550003946FCF75EFE074660682946FCF759FECF
:103560000546A0680499FCF754FE064621682846E3
:10357000FCF7F6FD3146FCF7F3FD3946FCF7F0FDAC
:103580000A99086005B0F0BDF0B587B00446122076
:103590000090D948D821AA2202ABFEF717FD0028D7
:1035A00003D0FF2040B207B0F0BD02AE70788107B3
:1035B000090F6C4F7958029A120600048018801483
:1035C0004843FCF7E5FF2060FDF743F802460B4651
:1035D000654D0021284601F0A7FAF0788107090F10
:1035E0007958B27812060004801880144843FCF71A
:1035F000CFFF5E49FCF70DFE6060FDF72AF802463A
:103600000B4601210191284601F08EFA707981075D
:10361000090F7958039A1206000480188014484351
:10362000FCF7B6FF5249FCF7F4FDA060FDF711F876
:1036300002460B460221284601F076FAF07981070E
:10364000090F7958B2791206000480188014484393
:10365000FCF79EFF4549FCF7DCFDE060FCF7F9FF55
:1036600002460B460321284601F05EFA707A810774
:10367000090F7958049A12060004801880144843F0
:10368000FCF786FF3A49FCF7C4FD2061FCF7E1FF37
:1036900002460B460421284601F046FAF07A8107DB
:1036A000090F7958B27A1206000480188014484332
:1036B000FCF76EFF2F49FCF7ACFD6061FCF7C9FF1A
:1036C00002460B460521284601F02EFA707B810741
:1036D000090F7958059A120600048018801448438F
:1036E000FCF756FF2449FCF794FDA061FCF7B1FFFD
:1036F00002460B460621284601F016FAF07B8107A8
:10370000090F7958B27B12060004801880144843D0
:10371000FCF73EFF1949FCF77CFDE061FCF799FFDF
:1037200002460B460721284601F0FEF9707C81070E
:10373000090F7958069A120600048018801448432D
:10374000FCF726FF0E49FCF764FD2062FCF781FFC1
:1037500002460B460821284601F0E6F9019840B2DE
:1037600007B0F0BD185900089E590008ACC52737AE
:10377000FFE6DB2E7D1D9026CCBC8C2BAA77382350
:10378000A01D971CF0B585B0002001902C4C204660
:103790001430FFF7F9FE042000908048D821AA22B7
:1037A00001ABFEF78DFD002803D0FF2778B205B0EE
:1037B000F0BD012700977948D821A62202ABFEF779
:1037C00005FC00280CD102AB1878F8210140881CB8
:1037D0001870012000907148D821A622FEF770FDD4
:1037E00000976E48D821A72203ABFEF7EFFB002815
:1037F0000BD103AB1878F82101401970012000901B
:103800006648D821A722FEF75BFD0E4800F076F847
:103810000925657004AC0220207000975F48D82607
:10382000A52231462346FEF74BFD25700097302236
:103830005A4831462346FEF743FD78B205B0F0BD45
:103840000002002028000020F0B585B0054604AB3A
:1038500002241C70012700975048D821A522FEF7AA
:103860002FFDFF21002802D048B205B0F0BD039122
:1038700004AB0920187000974848D8213022FEF781
:103880001FFD002803D0039948B205B0F0BD029592
:10389000002526467F20C00501F0B6F80097D82104
:1038A000022204AB3D48FEF791FB0028EBD104A8AF
:1038B000632D05D8007838406D1C741C0028E8D0B2
:1038C000032000903548D821062204ABFEF77EFB8A
:1038D00000280399C8D10498000404A94A78120268
:1038E0001018897840180002001202990860B11C73
:1038F00048B205B0F0BDC04670030020F0B585B0F9
:10390000054604AB00241C70012700972348D821EA
:10391000A522FEF7D5FCFF26002802D070B205B024
:10392000F0BD04AB0820187000971C48D821302245
:10393000FEF7C6FC0028F1D1039602950220054649
:103940007F20C00501F060F80097D821022604AB63
:1039500012483246FEF73AFB00281AD104A8632C1D
:1039600005D801783940641C681C0029E7D000960E
:103970000A48D821092204ABFEF728FB0028039E41
:10398000CCD1049840BA02990880AE1C70B205B040
:10399000F0BD039E70B205B0F0BDC04670030020BC
:1039A000F0B585B00446C26800219047618960681F
:1039B000226990472189206822699047E06901F0D7
:1039C00051F861896068A269904704906269206833
:1039D00021899047E06901F045F821892068226932
:1039E0009047E06901F03EF861896068A2699047FC
:1039F00003906269206821899047E06901F032F8FC
:103A00002189206822699047E06901F02BF86189DB
:103A10006068A26990470290626920682189904796
:103A2000E06901F01FF82189206822699047E06968
:103A300001F018F861896068A26990470190626995
:103A4000206821899047E06901F00CF821892068FD
:103A500022699047E06901F005F861896068A26910
:103A6000904700906269206821899047E06900F0E2
:103A7000F9FF2189206822699047E06900F0F2FF90
:103A800061896068A2699047074662692068218958
:103A90009047E06900F0E6FF21892068226990479D
:103AA000E06900F0DFFF61896068A2699047054620
:103AB0006269206821899047E06900F0D3FF21897D
:103AC000206822699047E06900F0CCFF6189606856
:103AD000A269904706466269206821899047E0699B
:103AE00000F0C0FFE2680121204690470499481E7B
:103AF0008141C801039A511E8A4191010818029A16
:103B0000511E8A4151010818019A511E8A41110122
:103B10000818009A511E8A41D1000818791E8F4159
:103B2000B9000818691E8D4169000818711E8E4180
:103B30000643F0B205B0F0BDF0B585B001277E03B5
:103B4000484D28463146FDF74BFD202400280494BB
:103B500000D13024BF0328463946FDF741FD10212E
:103B60000028039100D00C4028463146FDF738FD6F
:103B7000002801D00498044028463946FDF730FD5E
:103B8000002801D00398044028463146FDF728FD5F
:103B9000002801D00498044028463946FDF720FD4E
:103BA000002801D003980440284602963146FDF7CC
:103BB00017FD2E46002802D00498044000E0049827
:103BC000C54330463946FDF70BFD002804950197A3
:103BD00000D02C400398C74335463046029E3146FC
:103BE000FDF7FEFC0028039700D03C402846019FCB
:103BF0003946FDF7F5FC002801D00498044028461A
:103C00003146FDF7EDFC002801D00398044028461A
:103C10003946FDF7E5FC002801D004980440284609
:103C20003146FDF7DDFC002801D00398044028460A
:103C30003946FDF7D5FC002801D0049804402846F9
:103C40003146FDF7CDFC002801D003980440049EC6
:103C500028463946FDF7C4FC002800D034402046F1
:103C600005B0F0BD00100140F0B59DB000241C94DB
:103C70001B941A9419940EA804902C21FCF765FA51
:103C80000D940C940B940A940994089401252846E9
:103C90002946FDF745FD0D2003902946FDF75CFD03
:103CA00028032946FDF73CFD082107912046FCF733
:103CB0003AFF0720C10207462046FDF711FD08AE76
:103CC0003046FDF77FFC032006900990B82008904D
:103CD000D8483146FDF79CFB08970597A448314624
:103CE000FDF796FB2846FCF78BFF2846FCF77CFF88
:103CF00028460195FCF792FF19A90B200290087342
:103D0000FF20023008801B9478041A90474F3846F1
:103D1000FCF796FF0F26384606992A463346FCF7ED
:103D200018FF04210091022238463346FCF711FFA8
:103D3000052538462946069A3346FCF70AFF3846D9
:103D40000599009A3346FCF704FF384607992A463E
:103D50003346FCF7FEFE092506223846294633463F
:103D6000FCF7F7FE0A2106913846059A3346FCF720
:103D7000F0FE0C213846079A3346FCF7EAFE384637
:103D800003992A463346FCF7E4FE0E213846069A8C
:103D90003346FCF7DEFE38463146029A3346FCF7DE
:103DA000D8FE234E3046FDF761FA1894019D680352
:103DB000179020201690A8021590280214908020B9
:103DC000139012945820119010941A480F9038466E
:103DD00050300E9030460499FDF790FA314608397C
:103DE000204632462B46FDF7A7FA30462946FDF716
:103DF00077FA38462946FCF7E2FE38462946FCF7B2
:103E0000D6FE20213846FCF715FF0028F9D04021C6
:103E10003846FCF70FFF0028F9D1694800F0F4FD9F
:103E200001213846FCF7D5FE1DB0F0BD0008024068
:103E30000800024068040020F0B595B000261496F2
:103E400013961296119610960F960D960C960BA837
:103E500002908670068007A80190868109960896D0
:103E6000079606960596049603960D200124214692
:103E7000FDF772FCE5033E4885620FAF3846FDF75B
:103E8000A1FB1296119610940F9539483946FDF70B
:103E9000BFFA3846FDF796FB119404250F95654847
:103EA0003946FDF7B5FA02213046FDF7A1FA0CA814
:103EB00084710321890281800C95FDF76BFA0299C8
:103EC0008C70FF200090083008800846FDF7D4FB76
:103ED000284F781C3949088139480E6048606003D2
:103EE0002146FDF739FC019D6E80EA480068ED49E6
:103EF000FCF7DFFB401E288008971F482946FDF786
:103F0000DFFE03AFBE80A8884008F880E448039035
:103F1000200206900596184E30463946FDF762FE9F
:103F200030463946FDF798FE029DAC701348288054
:103F30002846FDF7A1FBAC70009814302880284675
:103F4000FDF79AFB304621462246FDF7BCFD0821CD
:103F500030462246FDF7B7FD102130462246FDF7D8
:103F6000B2FD30462146FDF7B8FD15B0F0BDC046A4
:103F7000000C01400F270000003401401202000035
:103F800070B504460D4E0E4870600E4D2046294611
:103F9000FCF7F0FA002800D125460021284601F060
:103FA000C3FA3060084C2146FCF733F9014620463D
:103FB000FCF727F9FCF714FB308170BD9803002053
:103FC00000004842A4707D3F00401C46F0B589B017
:103FD000434940258D81AE488860002408940794A9
:103FE0000694059404940394042001273946FDF7B0
:103FF000B3FB03AE3046FDF7E5FA06940497384F5D
:10400000B8890390B8683146FDF702FAA0482946FE
:10401000FDF7EDFA08481121009101903846103063
:10402000064A2346FEF778FA8120C000B88009B01E
:10403000F0BDC0460008014005490008A086010007
:10404000274A10714800801E5071704710B5044611
:104050000078401E07280BD8784400794000874438
:1040600030370303030808081D480068800716D08E
:1040700010BD1B480068C007FAD121896068FDF7B0
:10408000B8FA21780629F3D001202256531E637016
:10409000002AEDDC072900D10220207010BD218903
:1040A0006068FDF7A6FA21780329E1D001202256A5
:1040B000531E6370002ADBDC042900D1022020702B
:1040C00010BD21896068FDF790FA0020207010BDB6
:1040D00021896068FDF78BFA0020207010BDC04672
:1040E0003000002080B540200121FDF719FB80BD84
:1040F000F0B583B000F030F8134C00250095019422
:10410000124F134E384632462B46FEF705FA0095FD
:1041100001943837384632462B46FEF7FDF90095B4
:1041200001940C4F384632462B46FEF7F5F90095C0
:1041300001943837384632462B46FEF7EDF90348EE
:10414000FEF75CFA03B0F0BD1949000890010020A9
:10415000A861000090020020F0B593B000251295F0
:10416000119510950F950E950D9509A801908581D3
:104170000B950A950995089507950695059504A848
:10418000039085700580012420032146FDF7E4FAA1
:1041900005202146FDF7E0FA0DAF3846FDF712FA8B
:1041A00002200290129011940E90200200900D9027
:1041B000374E30463946FDF72BF960020D903046F8
:1041C0003946FDF725F9A0020D9030463946FDF736
:1041D0001FF9E0020D9030463946FDF719F9019FAD
:1041E0003D72FD802B4800682B49FCF762FA401EA7
:1041F000B880099529483946FDF762FD05AEB580BE
:10420000B8884008F08026480590009808900795E7
:10421000224D28463146FDF781FC28463146FDF700
:10422000ABFC28463146FDF7DDFC28463146FDF75C
:1042300013FD28462146FDF750FC28462146FDF790
:1042400055FC02982146FDF779FA8D208000B88050
:10425000104800681349FCF72CFA401E3880124EB3
:1042600030463946FDF72CFD03998C702120000162
:1042700008800846FDF700FA304621462246FDF741
:1042800022FC30462146FDF728FC13B0F0BDC046A5
:10429000000801400800002070940000002C01403C
:1042A0006000010040420F000004004070B586B07D
:1042B0000026059604960396029601960096102015
:1042C00001242146FDF748FA6D462846FDF77AF9A4
:1042D00002940196E003009017482946FDF798F8EC
:1042E00006B070BD70B588B000240794069405949C
:1042F000049403940294102001252946FDF72CFA1A
:1043000002AE3046FDF75EF90495039403204003A6
:10431000029009483146FDF77BF808480849C16119
:1043200008491122009201912030074A2346FEF7E6
:10433000F3F808B070BDC0460010014078000020BE
:10434000393B000889490008204E0000F0B58FB0C5
:10435000002008900E900D900C900B900A90099000
:104360008820012507952946FDF7F6F96802049093
:10437000354CA081F148A06029020591A183A0617C
:104380001020608026462036B581EB49B1600420BC
:1043900060822546303502200390A881A960202044
:1043A000069070804020688009AF3846FDF70AF912
:1043B00008980C9007980A90A0890990A06839463F
:1043C000FDF726F8A08B0990A0693946FDF720F883
:1043D000B0890990B0683946FDF71AF8A8890990A4
:1043E000A8683946FDF714F8D44F38460499FDF70C
:1043F000FEF838460599FDF7FAF8F44F3846079964
:10440000FDF7F5F838460399FDF7F1F80F4811214B
:1044100000910190664808300D4A089BFEF77CF831
:10442000302003212154069821540A20A871094AFA
:10443000AA80B071B280A075A2822174A071A280FE
:1044400021700FB0F0BDC046A4030020A9490008A8
:10445000A0860100150A000070B504460078401ED1
:10446000092810D87844007940008744475504044F
:10447000040404040C63052021564D484068FCF7F1
:1044800018F9002900D070BD6588E80609D46807CE
:104490000ED4A80613D4680617D4207803281BD19D
:1044A000F1E701204102CA48FDF7A3F86807F0D5FB
:1044B00001200102C648FDF79CF8A806EBD5C348C9
:1044C0000121FDF796F86806E7D5C0480221FDF7FF
:1044D00090F820780328D6D00628D4D0042161563D
:1044E0004A1E22710029CEDC022107280A4600D08C
:1044F0000122042800D01146217070BD6688F006A4
:10450000EB4D1CD4700721D4B006B04D26D47006F4
:104510002AD40020207070BD6688F006E44D2AD4AD
:1045200070072FD4B006A94D34D4700638D40020BB
:10453000207070BD002020701D48408870BD012093
:1045400041022846FDF751F87007DDD50120010230
:104550002846FDF74AF8B0069C4DD8D501212846DB
:10456000FDF743F87006D4D502212846FDF73DF843
:104570000020207070BD012041022846FDF737F869
:104580007007CFD5012001022846FDF730F8B006AC
:104590008E4DCAD501212846FDF729F87006C6D5EB
:1045A00002212846FDF723F80020207070BDC04688
:1045B000D0000020F0B581B00446C007834D10D173
:1045C000A00714D46007BA4D18D401273E03200772
:1045D0001DD4E00621D4A00625D4600629D401B05C
:1045E000F0BD40212846FDF700F8A007EAD580215C
:1045F0002846FCF7FCFF6007AD4DE6D501204103DE
:104600002846FCF7F2FF01273E032007E1D52846A4
:104610003146FCF7EAFFE006DDD56E483146FCF78F
:10462000E4FFA006D9D5F9032846FCF7DEFF6006B3
:10463000D5D5B9032846FCF7D8FF01B0F0BDC04678
:10464000F0B58BB000270A97099708970797069748
:104650000597042001252946FDF77EF80820294604
:10466000FDF77AF810202946FDF776F880242046D9
:1046700003942946FDF770F8544E402104913046CA
:10468000FCF7B3FF30462146FCF7B1FF6903029106
:10469000874C2046FCF7A9FF2E0320463146FCF745
:1046A000A4FF4C483146FCF7A0FFE90301912046E6
:1046B000FCF79BFFA90300912046FCF796FF05AC91
:1046C0002046FCF77FFF089706950498059007970A
:1046D0003E4D28462146FCF79BFE039F0597284642
:1046E0002146FCF795FE02980590714D284621461B
:1046F000FCF78EFE059628462146FCF789FE0596B6
:1047000034482146FCF784FE01980590284621464E
:10471000FCF77EFE0098059028462146FCF778FEBF
:104720002A4C20460499FCF762FF20463946FCF7E4
:104730005CFF0BB0F0BDC046001C0140000C014006
:10474000F0B581B00446C007204D10D1A00714D4A5
:104750006007574D18D401273E0320071DD4E006FB
:1047600021D4A00625D4600629D401B0F0BD402193
:104770002846FCF73CFFA007EAD580212846FCF735
:1047800034FF60074A4DE6D5012041032846FCF777
:104790002EFF01273E032007E1D528463146FCF7CE
:1047A00026FFE006DDD50B483146FCF720FFA006CA
:1047B000D9D5F9032846FCF71AFF6006D5D5B90309
:1047C0002846FCF714FF01B0F0BDC046001C0140B4
:1047D000000C014000080140F0B581B00C460546D0
:1047E000104F38460830FFF72FF80F4E3046FFF7CE
:1047F00085F8B96830883A46103200923A46143249
:104800003B460C3300B2FEF761FE38692860F86859
:104810000649FBF7FEFC0649FBF7A2FC206001B04D
:10482000F0BDC0460002002028000020E4380E3F02
:10483000E4388EC1F0B587B0002706970597049736
:10484000039702970197082001242146FCF784FF73
:10485000164E1748194B1A4D1A4A1B4930607060A2
:10486000B160F260356173611349B1611149F16161
:10487000A102FCF7BCFE71897068FCF7B8FE01ADBF
:104880002846FCF79FFE0497029403943089019018
:1048900030682946FCF7BCFD112002907089019018
:1048A00070682946FCF7B4FD07B0F0BD7003002026
:1048B000000C014000002040E1150008EB15000845
:1048C000EF150008CD48000800040008F0B587B0D7
:1048D0000D4604460027069705970497039702970D
:1048E000019701AE3046FCF76DFE0497029501205A
:1048F00003906089019060683146FCF789FD07B03C
:10490000F0BD000080B503480168491C02C0FFF7F4
:104910009DFB80BD30000020B0B5194DA8420AD0E3
:1049200029463831884210D0164CA04216D038346F
:10493000A0421CD0B0BD01200321FDF73DFA104C70
:1049400038342046FDF75AFEB0BD02200C21FDF799
:1049500033FA0C4C2046FDF751FEB0BD0420052172
:10496000FDF72AFA38342046FDF748FEB0BD08208E
:104970000A21FDF721FA2C462046FDF73FFEB0BD87
:10498000900100209002002080B50548FEF760F9F4
:10499000002804D0034802492022FEF79DFA80BD7A
:1049A000780000201001002010B514484168491C0F
:1049B0004160017849B24288511841800221425E2B
:1049C000632A01DDFF2107E0415E3022D24391429C
:1049D00001DA012100E001780170094C2046FFF75F
:1049E0003BFD20461030FFF737FD20462030FFF713
:1049F00033FD30342046FFF72FFD10BDD0000020DE
:104A0000A40300207047000010B584B0002103917A
:104A10000291019100911249FBF7FBFB04467F20B4
:104A2000C1052046FBF798FD002816D1FEF79EFB36
:104A30000191009000980199FBF7BCFD01462046CA
:104A4000FBF78EFBFBF7E5FD03910290FEF78EFB73
:104A5000039A029BC01A9141F8DB04B010BDC04616
:104A600000007A4410B584B0044600200390029000
:104A7000019000907F20C1052046FBF76DFD0028C6
:104A800015D1FEF773FB0191009000980199FBF797
:104A900091FD2146FBF764FBFBF7BBFD0391029000
:104AA000FEF764FB039A029BC01A9141F8DB04B045
:104AB00010BD80B5FDF7D6FDFDF7D6FDFFF7A2FFCF
:104AC000FFF710FBFFF7BCFDFEF758F9FFF73EFCC0
:104AD000FFF708FCFFF7EAFBFFF778FAFFF7ACF9FE
:104AE000FFF706FBFFF7C0F8FFF7A4FEFEF74AFE4C
:104AF000FCF740FE00F002F880BD000080B50748DA
:104B0000FCF794FD0520FCF78BFD2720C000FCF787
:104B100075FDFCF77FFDFCF777FD80BD5555000066
:104B200080B5FCF777FD80BD0FB410B503A9044B29
:104B3000044A029800F05CF910BC08BC04B01847A5
:104B400069310008000000202021020C01D0102152
:104B50001046020A01D010460839020901D0104659
:104B6000091F820801D01046891E420801D0881E04
:104B70007047081A7047F8B504464F1EC800083839
:104B8000211815461E46086849683A4606239A4386
:104B900010D02A463346FBF769FC3A46D200083A61
:104BA000A3181A687F1E5B68FBF7AEFB06223B4624
:104BB0009343EED1022F23D0042F11D0062F2FD1F3
:104BC0002A463346FBF752FCE36AA26AFBF79CFBDA
:104BD0002A463346FBF74AFC636A226AFBF794FBDA
:104BE0002A463346FBF742FCE369A269FBF78CFBDC
:104BF0002A463346FBF73AFC63692269FBF784FBDC
:104C00002A463346FBF732FCE368A268FBF77CFBDD
:104C10002A463346FBF72AFC63682268FBF774FBDD
:104C2000F8BD0000002210B5134610460149FBF7FD
:104C300053FE10BD0000F03F10B50122FBF7C4FE8B
:104C400010BD002210B5134610461146FBF744FE76
:104C500010BD02E008C8121F08C1002AFAD170472F
:104C60007047002001E001C1121F002AFBD17047EC
:104C7000014908607047000004000020F0B51FB42F
:104C800086B00998089A030D0021024314D05148B8
:104C9000514A1818504305141198012810981AD039
:104CA000281A401C00264D4F4D4900960191049052
:104CB000002812DA444211E01198012449A3012886
:104CC00001D11098C1430698119A84600360C260B4
:104CD00041600BB0F0BD4042E4E7044621050020EE
:104CE0003F4A001C51410391029012E0E00707D0B7
:104CF00032463B4601990098FBF7B8FB01910090C2
:104D000032463B4610461946FBF7B0FB06460F46B7
:104D10006410002CEAD10498039B0028029A099998
:104D2000089806DAFBF7A2FB019B009AFBF79EFBB3
:104D300005E0FBF7D1FD019B009AFBF7CDFD044692
:104D40000E460022284BFBF79DFE03D80020C043EF
:104D5000014607E00022254B20463146FBF7D4FAF6
:104D6000FBF75CFE102409E0002C0ADB0A2200237A
:104D7000FBF7BEFC079B30321A55641E02460A43FD
:104D8000F2D11122641C079B121B1C19119B012BD1
:104D900003D0012308430ED10AE0084304D01120B8
:104DA00010900020119077E71098151A6D1E0BE0F7
:104DB0001098824202DD00236D1C03E0824201DA7A
:104DC00000236D1E002BEED0069811998260C16001
:104DD00030C07EE701FCFFFF104D000000001440D2
:104DE0000000F03F300000000000F0430000E03F12
:104DF000FFB597B00646002518E2252877D1002494
:104E00002746FD49049400E00443761C32780120D3
:104E1000203A90400842F7D130782A280ED002225A
:104E2000307801463039092916D804990A235943A4
:104E3000303940181443761C0490F1E7189802C8E2
:104E400004911890002904DA0120400304434842E9
:104E5000049002200443761C30782E2814D10420BC
:104E600004437078761C2A2809D11898761C80C8CB
:104E7000189009E00A214F43303FC719761C30785B
:104E8000014630390929F5D930786C2810D006DC74
:104E90004C281AD068280ED06A2817D104E074284C
:104EA00013D07A2812D110E00120400504430CE011
:104EB0000121090501E0032109050C4371788142B4
:104EC00003D1012000052418761C761C307811903F
:104ED00066280BD013DC58287DD009DC00287BD055
:104EE0004528F6D04628F4D047281AD1A5E118E085
:104EF000632835D0642870D0652812D19DE17028D0
:104F00006CD008DC6728F1D069287BD06E280DD0E2
:104F10006F2806D1BAE073282ED0752871D0782872
:104F200059D01A9A199990476D1C7EE16002400F82
:104F3000022809D003280DD00428189801680DD044
:104F40000D60001D189070E11898EA1701680D6057
:104F50004A60F6E7189801680D80F2E70D70F0E7F7
:104F600018986A4601781172001D1890002050723E
:104F700002A80090012005E0189802C818900020AF
:104F80000091C04361070DD5002101E00199491C42
:104F90000191B94212DA8142F8DB009A515C002992
:104FA000F4D10BE0002101E00199491C01918142FB
:104FB000FADB019A0099895C0029F5D101990498DE
:104FC0001A9B471A21463846199A00F097FA019918
:104FD000401945180BE04FE02CE113E04EE000983B
:104FE00000990078491C00911A9A199990470198E4
:104FF000401E0190401CF2D1214638461A9B199A56
:1050000010E137E00A200021009001916002410F79
:10501000022907D0189A01CA1892C2179446032988
:1050200008D00AE01898C01DC108C90005C9189128
:10503000944607E000B2C2179446042902D140B258
:10504000C1178C4600226146944506DA0A460021C3
:10505000404291418C462D2102E0210504D52B21AF
:105060006A461173012103E0E10701D02021F7E72F
:10507000029155E00A200AE0102008E0102000907C
:105080000021042004430191082703E008200021A7
:10509000019100906002410F022907D0189A01CABD
:1050A000189200229446032908D008E01898C01DE1
:1050B000C108C90005C91891944603E080B20429CB
:1050C00000D1C0B200210291210729D51199702980
:1050D00006D0009A1021019B4A401A4305D00EE0E9
:1050E00040216A461173012108E06146014306D060
:1050F00030216A4611731199517302210291009A6D
:105100000821019B4A401A430AD16146014301D15B
:10511000610705D530216A46117301217F1E029176
:105120001199582904D035A10E910DA90D910DE0CA
:1051300037A1F9E76146019B009AFBF7D9FA0E9B6C
:105140008C469B5C0D9A521E0D9213706146014372
:10515000F0D10D9805A9081A20300190600703D5F9
:1051600001200004844300E001270198874201DD0B
:10517000381A00E00020019900904118029809189F
:105180000498401A0490E00306D421461A9B199A09
:10519000049800F0B3F94519002706E003A81A9A0D
:1051A000C05D199990476D1C7F1C02988742F5DB02
:1051B000E0030CD521461A9B199A049800F09EF939
:1051C000451904E01A9A3020199990476D1C0099EE
:1051D000481E00900029F5DC08E00D980D99007834
:1051E000491C0D911A9A199990476D1C0199481EF6
:1051F00001900029F1DC63E10928010030313233EC
:105200003435363738396162636465660000000002
:1052100030313233343536373839414243444546EC
:105220000000000000F05AF94519761C307800287B
:1052300000D0E2E528461BB0F0BD600700D4062789
:105240001898C01DC108C90048680A680831C30F12
:10525000DB071891190001D09CA108E0210501D5B8
:105260009BA104E0E10701D09AA100E09AA14300CC
:1052700011985B08109165280CD006DC452809D0F0
:1052800046281DD0472841D141E0662818D067281C
:105290003CD13CE00021112F01DB112000E0781C03
:1052A0000191009008A911A8FFF7E8FC1399059156
:1052B0000021119A15927F1C12980197009150E0DD
:1052C0000120C00703900120019008A9009711A8B0
:1052D000FFF7D4FC139A149905920022119B0092B7
:1052E00012981593059A0192002901D0104602E008
:1052F000791C40180190381A01D5019804E0404209
:10530000401E0090781C0190C01B029043E0012FCA
:1053100000DA01270021112F01DD112000E03846BD
:105320000191009008A911A8FFF7A8FC1399059115
:10533000119A0021129815920091019721070CD41F
:105340000599B94201DB019900E00191012904DDD1
:10535000159A491E515C302906D0B84201DA011D68
:1053600005DA0121029115E00199491EEDE70028B7
:1053700005DC0099411800910199091A03E0019A8E
:10538000411C914200DD01910099401A401C02909D
:105390000120C0070390200706D40299019881429A
:1053A00002DB0020C043029000206946C87707AFA7
:1053B000012103980337C907884224D002201190A5
:1053C0002B201290039800280CDA404203902D20E5
:1053D000129007E00A210398FBF76BF930317F1E2A
:1053E000039039701199481E11900029F2DC03983E
:1053F0000028EFD1791E12980870307820210840DB
:105400004530BF1E387006A8C01BC01D0390109801
:105410000078002800D00120019941180298C01797
:105420000918039809180498401A401E0490E003D4
:1054300006D421461A9B199A049800F05FF8451982
:1054400010980078002803D01A9A199990476D1C7B
:10545000E00324D521461A9B199A049800F04EF8CF
:1054600045191CE00098002807DB00990598884240
:1054700003DD1598405C199901E0199930201A9ABA
:10548000904700986D1C401C00900298401E0290AE
:10549000002804D11A9A2E20199990476D1C019961
:1054A000481E01900029DDDC05E038781A9A7F1C3F
:1054B000199990476D1C0399481E03900029F4DC4C
:1054C00021461A9B199A0498ACE600002D000000B2
:1054D0002B0000002000000000000000F8B504468A
:1054E00000251E461746880404D405E039462020CE
:1054F000B0476D1C641EF9D52846F8BDFFB50446BB
:10550000002581B01E46C80301D5302700E02027C2
:10551000880404D505E038460399B0476D1C641E25
:10552000F9D5284605B0F0BD70B50C460546FBF729
:10553000BDFA000F022806D06000FF214008C9050F
:10554000081AC00F01D0284670BD204670BD00006B
:10555000F0B5C54A00248FB091420ADA4B005B08CF
:10556000934206D801254A006D05EA4205D100287C
:1055700003D0FFF761FB0FB0F0BD01252D05A94257
:1055800019DA034308D0002910DA0120FFF770FB75
:10559000FFF757FB0FB0F0BD0220FFF769FBFFF7E5
:1055A00041FB0122D20751400FB0F0BD3524E44346
:1055B0003622FBF709FA0A15AC4B1219D4180A0364
:1055C000120BAB49AB4B56182E4031465940114394
:1055D0000192321512190B920022FAF739FF019A43
:1055E0000446921C1003A44E000B0D467E44032873
:1055F00060D2204673683268FBF730FA1CD10B98F2
:10560000002815D0FBF7F6F904460E469B4A9C4B42
:10561000FAF72CFF0D4607469A4A9B4B2046314627
:10562000FAF724FF3A462B46FAF76EFE0FB0F0BDAC
:10563000716830680FB0F0BD944A954B20462946FA
:10564000FAF714FF0022934BFAF708FF06460F46BD
:1056500022462B4610461946FAF708FF32463B46CB
:10566000FAF704FF06460B980F4600281DD0FBF7FB
:10567000C1F9824A824B05910490FAF7F7FE32464F
:105680003B46FAF7EBFE22462B46FAF7E1FE0446CC
:105690000D467C4A7C4B05990498FAF7E7FE2246B2
:1056A0002B46FAF7D5FE0FB0F0BD0B46324620462A
:1056B0002946C4E0012300229B072046FAF724FE76
:1056C00002460B4620462946FBF706F906460F46DA
:1056D0000B98FBF78FF932463B4605910490104634
:1056E0001946FAF7C3FE09910C906B490198099B82
:1056F000421800920C9A19461046FAF7B7FE024675
:1057000007910A90654901980B1A65480193032196
:105710007844079BFFF72FFA079B0A9AFAF7A6FE31
:105720000E905F480D9104217844079B0A9AFFF779
:1057300022FA099B0C9AFAF799FE019B009A1A43E8
:1057400000920D9B0E9AFAF7DFFD009A01910C90E2
:10575000002A4DDD0022D24320462946FBF734F9CA
:1057600022462B46FAF782FE00910A900B980028F9
:105770002BD0424A424B05990498FAF777FE0791DD
:105780000E90019B0C9A00990A98FAF7BDFD3246DB
:105790003B46FAF76BFE079B0E9AFAF7B5FD009BA6
:1057A0000A9AFAF75BFE22462B46FAF751FE0446A8
:1057B0000D46344A344B05990498FAF757FE2246B1
:1057C0002B46FAF745FE0FB0F0BD019B0C9A0A98E4
:1057D000FAF79AFD32463B46FAF748FE009B0A9AD2
:1057E000FAF73CFE22462B46FAF738FE0FB0F0BD22
:1057F0000B98002827D0214A214B05990498FAF7E5
:1058000035FE0791009020462946019B0C9AFAF735
:105810001FFE32463B46FAF729FE079B009AFAF72D
:1058200017FE22462B46FAF713FE04460D46154A8C
:10583000154B05990498FAF719FE22462B46FAF7FC
:1058400007FE0FB0F0BD0B46204629460C9AFAF72A
:10585000FFFD32463B46FAF709FE22462B46FAF791
:10586000FDFD0FB0F0BD00000000F07F01FCFFFF68
:10587000645F09000000F03F10030000763C7935BA
:10588000EF39EA3D0000E0FE422EE63F5555555502
:105890005555D53F0000E03F86EBF9FF51B80600B3
:1058A000B401000010B5044601E0FDF75DFC20786E
:1058B000641C03490028F8D10A20FDF755FC10BDEF
:1058C000000000200000000004FA97999999D93F40
:1058D000AF788E1DC571CC3F9FC678D0099AC33F63
:1058E000935555555555E53F599322942449D23F38
:1058F000DE03CB966446C73F44523EDF12F1C23FFF
:105900000000000000000000000000000000000097
:105910000102030406070809010000000A00000054
:1059200064000000E8030000120800AA0400000060
:105930000000D42DAA001F0000000000000000603D
:10594000FF00001F100066EC1CF08014089102029A
:10595000D032181099E19B190A9F392929C0512A80
:10596000530000B40000010000428C14184276621B
:1059700017AEE0350000F410E242200081509A0C8E
:105980000042B000370A3F7F7054797065517565E9
:1059900075652025732066756C6C210D0A006643C1
:1059A000616C6962506172616D5B25645D3D256665
:1059B0000A004144432025643A20252E32660D0A10
:1059C0000066514D503639383950726573737572AF
:1059D000653A20252E32662C2066514D50363938D6
:1059E0003954656D70657261747572653A20252E43
:1059F00032660D0A00000000185A0008000000205E
:105A000030000000524C0008485A000830000020C6
:105A1000E8080000624C00080000000000000000E0
:105A2000006CDC02000000001000002010000020CC
:105A3000FFFFFFFFFFFFFF7F0000000000000000EE
:085A4000001900000000000045
:04000005080000C12E
:00000001FF
